:020000040800F2
:1000000058010120890100086D03000879030008E8
:100010008103000889030008910300080000000024
:100020000000000000000000000000007D1B000830
:1000300099030008000000007D1D0008DD1D000878
:10004000F5010008F5010008F5010008F5010008B8
:10005000F5010008F5010008F5010008F5010008A8
:10006000F5010008F5010008F5010008F501000898
:10007000F5010008F5010008F5010008F501000888
:10008000F5010008F5010008F5010008F501000878
:10009000F5010008F5010008F5010008F501000868
:1000A000F5010008F5010008F5010008F501000858
:1000B000F5010008F5010008F5010008F501000848
:1000C000F5010008F5010008F5010008F501000838
:1000D000F5010008F5010008F5010008F501000828
:1000E000F5010008F5010008F5010008F501000818
:1000F000F5010008F5010008F5010008F501000808
:10010000F5010008F5010008F5010008F5010008F7
:10011000F5010008F5010008F5010008F5010008E7
:10012000F5010008B5120008F5010008F501000806
:10013000F5010008A5030008F5010008F501000815
:10014000F5010008F5010008F5010008F5010008B7
:10015000F5010008F5010008F5010008F5010008A7
:10016000F5010008F5010008F5010008F501000897
:10017000F5010008F50100080D130008F50100085D
:10018000F5010008F501000880B582B000AF134BFF
:100190007B60134B3B6007E03B681A1D3A607A684E
:1001A000111D796012681A603B680E4A9342F3D3BE
:1001B0000D480E494FF000028842B8BF40F8042BAA
:1001C000FADBDFF82C00016841F47001016001F0F6
:1001D0003BFA00F043F80837BD4680BD15260008FD
:1001E00000000020200000202000002058F90020FE
:1001F00088ED00E080B400AFFEE700BF80B485B0BA
:1002000000AF78600023FB730A4B03F5805314336F
:100210001A687B681340002B02D00123FB7301E0B6
:100220000023FB73FB7B18461437BD465DF8047B47
:10023000704700BF0080024080B483B000AF786098
:10024000054B03F5805314337A681A600C37BD46AA
:100250005DF8047B704700BF0080024080B500AFAE
:1002600001F0F2F94FF4407001F03AFE00F060FE48
:1002700000F0AEFA0023184680BD00BF80B485B000
:1002800000AF786039600023FB600A4B9B68FB601D
:10029000FB6823F0EC63FB607A683B681343FA6801
:1002A0001343FB60034AFB6893601437BD465DF857
:1002B000047B70470038024080B483B000AF7860A0
:1002C0000B46FB70FB78002B06D00949084B1A6BD4
:1002D0007B6813430B6306E00549054B1A6B7B688B
:1002E000DB4313400B630C37BD465DF8047B70475E
:1002F0000038024080B483B000AF78600B46FB70DA
:10030000FB78002B06D00949084B5A6B7B681343D6
:100310004B6306E00549054B5A6B7B68DB43134092
:100320004B630C37BD465DF8047B704700380240D4
:1003300080B483B000AF78600B46FB70FB78002B75
:1003400006D00949084B1A6C7B6813430B6406E01E
:100350000549054B1A6C7B68DB4313400B640C3773
:10036000BD465DF8047B70470038024080B400AFA2
:10037000BD465DF8047B704780B400AFFEE700BF68
:1003800080B400AFFEE700BF80B400AFFEE700BF5F
:1003900080B400AFFEE700BF80B400AFBD465DF89B
:1003A000047B704780B582B000AF00237B604020A3
:1003B000FFF724FF0346012B06D10F4B1A683B1DA4
:1003C0001046194601F020FB4020FFF735FF4FF49F
:1003D0008030FFF731FF7B68002B0AD07B68002B51
:1003E00007D0064B4FF080521A60BFF34F8FBFF318
:1003F0006F8F0837BD4680BD2400002004ED00E06B
:1004000080B400AF0C4B00221A600B4B0022DA6064
:10041000094B1F225A61084B00229A61064B0022A9
:10042000DA61054B00221A62034B00225A62BD4674
:100430005DF8047B704700BF0000055080B485B0B4
:1004400000AF78600023FB601B4A1B4B1B6823F442
:10045000804323F001031360174B1B68FB60FB68AC
:1004600023F47F6323F00203FB607B681A887B68B8
:100470005B8813439AB27B689B8813439AB27B686C
:10048000DB8813439AB27B681B8913439AB27B685B
:100490005B8913439AB27B689B8913439BB21A46CC
:1004A000FB681343FB60044AFB6813601437BD46C6
:1004B0005DF8047B704700BF0000055080B483B036
:1004C00000AF0346FB71FB79002B06D0084A084BAE
:1004D0001B6843F00803136005E0054A044B1B68E2
:1004E00023F0080313600C37BD465DF8047B7047AA
:1004F0000000055080B483B000AF0346FB71FB7968
:10050000002B06D0084A084B1B6843F48043136055
:1005100005E0054A044B1B6823F4804313600C3745
:10052000BD465DF8047B70470000055080B483B081
:1005300000AF0346FB71FB79002B06D0084A084B3D
:100540001B6843F00103136005E0054A044B1B6878
:1005500023F0010313600C37BD465DF8047B704740
:100560000000055080B483B000AF03460A46FB800C
:1005700013467B717B79002B06D00A49094BDA6858
:10058000FB881343CB6007E00649064BDB68FA881B
:10059000D24392B21340CB600C37BD465DF8047B6A
:1005A000704700BF0000055080B487B000AF03461D
:1005B000FB800023FB7500233B61FB881B0B9BB278
:1005C000FB60FB68012B03D10F4B9B683B6109E08B
:1005D000FB68022B03D10C4B5B683B6102E00A4BCA
:1005E0001B693B61FA883B691340002B02D0012351
:1005F000FB7501E00023FB75FB7D18461C37BD46EB
:100600005DF8047B704700BF0000055080B483B0E4
:1006100000AF0346FB80044AFB8853610C37BD469C
:100620005DF8047B704700BF0000055080B58CB0BA
:1006300002AFF860B9603B601346FB80FB68002B9B
:1006400009D14FF0500383F31188BFF36F8FBFF3CD
:100650004F8FBB61FEE73B6B042B09D94FF0500372
:1006600083F31188BFF36F8FBFF34F8F7B61FEE77A
:10067000FB881846B96B00F0EFFB38623B6A002B31
:100680007AD03B6A1A6BFB8803F18043013B9B00E5
:100690001344FB61FB6923F00703FB61FB6903F073
:1006A0000703002B09D04FF0500383F31188BFF3E9
:1006B0006F8FBFF34F8F3B61FEE7FB880093386A73
:1006C000B9683A6BFB6B00F0FDFAF869F9683A68B3
:1006D00001F004FA02463B6A1A607B6B002B02D0E1
:1006E0007B6B3A6A1A6001F0F5FA324B1B680133F2
:1006F000304A1360304B1B68002B09D12E4A3B6AED
:1007000013602C4B1B68012B0FD100F02DFB0CE06C
:100710002A4B1B68002B08D1274B1B68DA6A3B6BFE
:100720009A4202D8244A3B6A1360254B1B68013366
:10073000234A1360224B1A683B6A1A643B6ADB6ADD
:100740001A46012303FA02F21E4B1B6813431D4A8B
:1007500013603B6ADA6A13469B0013449B001A4AF3
:100760001A443B6A04331046194600F01FFF012368
:100770007B6201F0DDFA02E04FF0FF337B627B6ABF
:10078000012B11D10D4B1B68002B0DD00A4B1B68A0
:10079000DA6A3B6B9A4207D20C4B4FF080521A60D8
:1007A000BFF34F8FBFF36F8F7B6A18462837BD4664
:1007B00080BD00BF040100202C000020100100209B
:1007C000200100200C0100203000002004ED00E09A
:1007D00080B588B004AF0023009300230193002369
:1007E000029300230393164816495A220023FFF769
:1007F0001DFFF860FB68012B11D14FF0500383F30C
:100800001188BFF36F8FBFF34F8FBB600E4B012278
:100810001A600E4B00221A6001F0D0F90CE0FB6860
:10082000002B09D14FF0500383F31188BFF36F8F72
:10083000BFF34F8F7B60FEE71037BD4680BD00BF22
:10084000950C000810260008100100200801002067
:1008500080B400AF044B1B680133034A1360BD46EC
:100860005DF8047B704700BF2401002080B584B090
:1008700000AF0023FB603F4B1B68002B09D14FF0FA
:10088000500383F31188BFF36F8FBFF34F8F7B60EB
:10089000FEE701F01FFA374B1B68013B354A136036
:1008A000344B1B68002B5DD1334B1B68002B59D098
:1008B00030E0324BDB68DB68BB60BB68183318463E
:1008C00000F098FEBB680433184600F093FEBB6846
:1008D000DB6A1A46012303FA02F2294B1B68134311
:1008E000274A1360BB68DA6A13469B0013449B00D7
:1008F000244A1A44BB6804331046194600F056FED9
:10090000BB68DA6A204B1B68DB6A9A4202D31F4B32
:1009100001221A60194B1B68002BCAD11C4B1B68A3
:10092000002B11D00CE000F037F80346002B02D06A
:10093000164B01221A60164B1B68013B144A1360C8
:10094000134B1B68002BEED1104B1B68012B09D1F8
:100950000123FB600F4B4FF080521A60BFF34F8FA3
:10096000BFF36F8F01F0E4F9FB6818461037BD46FE
:1009700080BD00BF2401002004010020C40000202D
:100980000C010020300000202C0000201801002065
:100990001401002004ED00E080B586B000AF002314
:1009A0007B61524B1B68002B40F08F80504B1B68C3
:1009B00001334F4A13604E4B1B683B613B69002B70
:1009C0001FD14C4B1B681B68002B09D04FF0500304
:1009D00083F31188BFF36F8FBFF34F8F3B60FEE748
:1009E000444B1B68FB60444B1B68424A1360424AFD
:1009F000FB681360414B1B680133404A136000F0F1
:100A000073FA3F4B1B683A699A424FD3394B1B68C4
:100A10001B68002B01D1012300E00023002B04D030
:100A2000374B4FF0FF321A6040E0324B1B68DB68F7
:100A3000DB68BB60BB685B687B603A697B689A4235
:100A400003D22F4A7B68136030E0BB68043318463A
:100A500000F0D0FDBB689B6A002B04D0BB68183344
:100A6000184600F0C7FDBB68DB6A1A46012303FA8B
:100A700002F2244B1B681343224A1360BB68DA6AF4
:100A800013469B0013449B001F4A1A44BB6804335F
:100A90001046194600F08AFDBB68DA6A1B4B1B68DA
:100AA000DB6A9A4201D301237B61AFE7174B1B68D6
:100AB000DA6A154913469B0013449B000B441B68DC
:100AC000012B07D901237B6104E0114B1B68013323
:100AD0000F4A13600F4B1B68002B01D001237B6171
:100AE0007B6918461837BD4680BD00BF2401002031
:100AF00008010020BC000020C00000201C010020D4
:100B0000000000200C010020300000202C000020FC
:100B1000140100201801002080B487B000AF264BDC
:100B20001B68002B03D0254B01221A603EE0234BAB
:100B300000221A60224B1B68FB60FB68B3FA83F348
:100B4000FB72FB7AC3F11F037B611E497A6913466E
:100B50009B0013449B000B441B68002B09D14FF0F2
:100B6000500383F31188BFF36F8FBFF34F8F7B6008
:100B7000FEE77A6913469B0013449B00114A134415
:100B80003B613B695B685A683B695A603B695A68DC
:100B90003B6908339A4204D13B695B685A683B69F8
:100BA0005A603B695B68DB68074A13601C37BD46C7
:100BB0005DF8047B704700BF24010020180100206D
:100BC0000C010020300000202C00002080B586B0F1
:100BD00000AF78607B68DB68DB683B613B69002BBA
:100BE00009D14FF0500383F31188BFF36F8FBFF328
:100BF0004F8FFB60FEE73B691833184600F0FAFCA4
:100C00001E4B1B68002B1ED13B690433184600F0B5
:100C1000F1FC3B69DB6A1A46012303FA02F2184B26
:100C20001B681343164A13603B69DA6A13469B003C
:100C300013449B00134A1A443B6904331046194677
:100C400000F0B4FC05E03B6918330F48194600F08A
:100C5000ADFC3B69DA6A0D4B1B68DB6A9A4205D929
:100C600001237B610A4B01221A6001E000237B61B2
:100C70007B6918461837BD4680BD00BF240100209F
:100C80000C01002030000020C40000202C000020B7
:100C90001801002080B582B000AF786000F0A2F8A3
:100CA000064B1B68012B07D9054B4FF080521A6089
:100CB000BFF34F8FBFF36F8FF0E700BF300000200E
:100CC00004ED00E080B586B000AFF860B9607A60EE
:100CD0003B6000237B6113E0BA687B691344197899
:100CE000FA687B69134430330A461A71BA687B6923
:100CF00013441B78002B00D105E07B6901337B6135
:100D00007B69092BE8D9FB68002283F83D207B68CA
:100D1000042B01D904237B60FB687A68DA62FB68E4
:100D20007A689A64FB680022DA64FB680433184628
:100D300000F030FCFB681833184600F02BFCFB6811
:100D4000FA681A617B68C3F10502FB689A61FB6867
:100D5000FA685A62FB6800221A65FB68002283F871
:100D600054201837BD4680BD80B582B000AF002347
:100D70007B600CE07A6813469B0013449B00114A89
:100D80001344184600F0E6FB7B6801337B607B6808
:100D9000042BEFD90C4800F0DDFB0C4800F0DAFB27
:100DA0000B4800F0D7FB0B4800F0D4FB0A4800F0DA
:100DB000D1FB0A4B044A1A60094B044A1A600837EF
:100DC000BD4680BD3000002094000020A800002017
:100DD000C4000020D8000020F0000020BC0000204B
:100DE000C000002080B582B000AF28E0FFF730FDE2
:100DF000164B1B68002B0CBF01230023DBB27B606A
:100E0000FFF734FD7B68002B19D100F063FF0F4B17
:100E1000DB68DB683B603B680433184600F0EAFBA4
:100E20000B4B1B68013B0A4A13600A4B1B68013BD2
:100E3000084A136000F07CFF386800F045F8054B65
:100E40001B68002BD2D10837BD4680BDD8000020DA
:100E500004010020EC00002080B584B000AF034600
:100E60003960FB803B68002B06D1FB889B0018464D
:100E700001F0A8F8034600E03B68BB60BB68002BAC
:100E80000ED0582001F09EF8F860FB68002B03D0CC
:100E9000FB68BA681A6305E0B86801F021F901E05F
:100EA0000023FB60FB68002B08D0FB681A6BFB88F3
:100EB0009B001046A5211A4601F05CFBFB68184612
:100EC0001037BD4680BD00BF80B582B000AF7860EE
:100ED0007B681B6B184601F003F9786801F000F994
:100EE0000837BD4680BD00BF80B483B000AF0E4B55
:100EF0001B681B68002B01D1012300E00023002B9D
:100F000004D00A4B4FF0FF321A6008E0064B1B6812
:100F1000DB68DB687B607B685B68044A13600C37C6
:100F2000BD465DF8047B7047BC0000200000002037
:100F300080B500AF00F0B2F800F002F880BD00BF4D
:100F400080B58AB000AF02200121FFF7F1F91B2024
:100F50000121FFF7B1F902233B7103237B710023C9
:100F6000BB710023FB714FF480733B603B464648E6
:100F7000194600F0F9F944480821002200F0A2FACD
:100F80004FF480000021FFF779F904233B6002232E
:100F90003B7103237B710023BB710123FB713B4633
:100FA0003A48194600F0E0F938480221022200F0E0
:100FB00089FA10233B6002233B7103237B710023DA
:100FC000BB710123FB713B463148194600F0CCF957
:100FD0002F480421022200F075FA07F11C0318467D
:100FE00001F048F90023BB834FF4D2733B62002326
:100FF000BB840023FB8307F11C032648194601F03C
:10100000CFF8244800214FF40042002301F06AFA8F
:1010100007F10803184601F001FA60233B81012320
:101020007B8118233B610023BB824FF480733B8399
:1010300007F108031748194601F076F91548082109
:1010400001F00EFA1348012101F02EF90E48082193
:1010500000F018FA0F48012101F046F90D4801216E
:1010600001F01AFA20233B6001233B7100237B71BE
:101070000023BB710023FB713B460748194600F073
:1010800073F92837BD4680BD00000240000C0240C5
:1010900000040240000400400010024080B596B0F9
:1010A00000AF01200121FFF707F902200121FFF71E
:1010B00003F904200121FFF7FFF810200121FFF7B9
:1010C000FBF801200121FFF715F9022387F85430BE
:1010D000032387F85530002387F85630002387F81C
:1010E000573050233B6507F150036B48194600F019
:1010F0003BF9C0233B6507F150036848194600F0EF
:1011000033F94FF470733B6507F150036448194697
:1011100000F02AF970233B6507F150036148194636
:1011200000F022F95C4804210D2200F0CBF95A4866
:1011300006210D2200F0C6F9584806210D2200F0C4
:10114000C1F9564807210D2200F0BCF95448062188
:101150000D2200F0B7F9524807210D2200F0B2F934
:101160004F4808210D2200F0ADF94D4809210D220C
:1011700000F0A8F94B4804210D2200F0A3F94948DA
:1011800005210D2200F09EF9464806210D2200F0AF
:1011900099F9FFF735F900233B8000237B81002379
:1011A000BB812023BB8040233B818023FB80002325
:1011B0007B803B461846FFF741F90120FFF7B6F95F
:1011C0000120FFF77BF908200121FFF7CBF9102060
:1011D0000121FFF7C7F901200121FFF7C3F9022020
:1011E0000121FFF7BFF94FF4407000F079FE4E2364
:1011F0003B7407237B740023BB740123FB7407F14A
:101200001003184600F07EFE0120FFF773F94FF43B
:1012100000537B624FF000737B61234BFB61234BD8
:10122000BB6100233B620023BB624FF48063FB621F
:101230004FF480533B634FF480437B634FF48073E0
:10124000BB634FF44033FB6300233B6403237B64A5
:101250000023BB640023FB6407F114031448194600
:1012600000F0A0FA39233B7408237B740023BB747D
:101270000123FB7407F11003184600F043FE0C48ED
:101280001821012200F000FB0948012100F0E0FADA
:101290005837BD4680BD00BF000002400004024038
:1012A0000008024000100240587900202800055034
:1012B0002864024080B500AF0E480F4900F01EFBC5
:1012C0000346002B06D00B480B4900F06FFB0B4B7D
:1012D0000B4A1A6007480B4900F010FB0346002B2D
:1012E00006D00448074900F061FB044B064A1A6027
:1012F00080BD00BF286402400044001054790020E3
:10130000587900200088001058B9002080B500AF3F
:101310000820FFF749F90346012B02D10820FFF707
:1013200075F91020FFF740F90346012B06D1102074
:10133000FFF76CF90B48202100F0B2F80120FFF70D
:1013400033F90346012B02D10120FFF75FF9022098
:10135000FFF72AF90346012B02D10220FFF756F9C5
:1013600080BD00BF0010024080B487B000AF78603D
:10137000396000237B6100233B610023FB60002375
:101380007B6176E07B69012202FA03F33B613B68F3
:101390001A683B691340FB60FA683B699A4265D161
:1013A0007B681A687B695B00194603238B40DB432B
:1013B0001A407B681A607B681A683B681B7919467B
:1013C0007B695B0001FA03F31A437B681A603B6890
:1013D0001B79012B03D03B681B79022B2ED17B6834
:1013E0009A687B695B00194603238B40DB431A40F4
:1013F0007B689A607B689A683B685B7919467B6971
:101400005B0001FA03F31A437B689A607B685A68B1
:101410007B699BB2194601238B40DB431A407B68F2
:101420005A607B685B683A68927911467A6992B231
:1014300001FA02F292B21A437B685A607B68DA685A
:101440007B699BB25B00032101FA03F3DB431A4083
:101450007B68DA607B68DA683B68DB7919467B6910
:101460005B0001FA03F31A437B68DA607B6901339E
:101470007B617B690F2B85D91C37BD465DF8047BEA
:10148000704700BF80B483B000AF78600B467B80AC
:101490007B687A881A830C37BD465DF8047B7047F9
:1014A00080B483B000AF78600B467B807B685A695C
:1014B0007B885A407B685A610C37BD465DF8047BD7
:1014C000704700BF80B485B000AF78600B467B806A
:1014D00013467B700023FB600023BB607B787A8817
:1014E00002F0070292009340FB607B88DB089BB20E
:1014F00018467B88DB089BB21A467B68083253F893
:1015000022207B8803F007039B0019460F238B40A2
:10151000DB4302EA03017B6800F1080243F8221072
:101520007B88DB089BB21A467B68083253F822207E
:10153000FB681343BB607B88DB089BB21A467B6861
:101540000832B96843F822101437BD465DF8047BB1
:10155000704700BF80B483B000AF78607B6803F150
:1015600008027B685A607B684FF0FF329A607B68A4
:1015700003F108027B68DA607B6803F108027B688C
:101580001A617B6800221A600C37BD465DF8047B47
:10159000704700BF80B483B000AF78607B680022E2
:1015A0001A610C37BD465DF8047B704780B485B086
:1015B00000AF786039607B685B68FB603B68FA6805
:1015C0005A60FB689A683B689A60FB689B683A6857
:1015D0005A60FB683A689A603B687A681A617B686F
:1015E0001B685A1C7B681A601437BD465DF8047B83
:1015F000704700BF80B485B000AF78607B681B691E
:10160000FB607B685B687A6892689A607B689B681D
:101610007A6852685A60FB685A687B689A4203D1BC
:101620007B689A68FB685A607B6800221A61FB68D5
:101630001B685A1EFB681A60FB681B681846143743
:10164000BD465DF8047B704780B500AF154A154B69
:10165000D3F8883043F47003C2F88830124A124B32
:101660001B6843F0010313600F4B00229A600E4A7F
:101670000D4B1B6823F0847323F4803313600A4BF3
:101680000A4A5A60084A084B1B6823F480231360F7
:10169000054B0022DA6000F00BF8024B4FF00062BD
:1016A0009A6080BD00ED00E0003802401030002458
:1016B00080B483B000AF00237B6000233B60354AD9
:1016C000344B1B6843F480331360324B1B6803F4C4
:1016D00000333B607B6801337B603B68002B03D1A8
:1016E0007B68B3F5A06FF0D12A4B1B6803F400337D
:1016F000002B02D001233B6001E000233B603B68EC
:10170000012B42D1234A234B1B6C43F080531364BB
:10171000214A214B1B6843F4804313601D4A1D4B33
:101720009B6893601B4A1B4B9B6843F40043936088
:10173000184A184B9B6843F4A0539360154B174A03
:101740005A60144A134B1B6843F08073136000BF48
:10175000104B1B6803F00073002BF9D0104B40F2C4
:1017600005621A600B4A0B4B9B6823F003039360DE
:10177000084A084B9B6843F00203936000BF054B87
:101780009B6803F00C03082BF9D10C37BD465DF8BC
:10179000047B704700380240007000400854400746
:1017A000003C024080B485B000AF7860396000230F
:1017B000FB607B681B68FB60FA68244B1340FB608E
:1017C0003B681A683B68DB681A433B685B691A43ED
:1017D0003B689B691A433B68DB691A433B681B6A99
:1017E0001A433B685B6A1A433B689B6A1A433B682F
:1017F0005B6B1A433B689B6B1343FA681343FB60B4
:101800007B68FA681A607B685B69FB60FB6823F0A1
:101810000703FB603B68DA6A3B681B6B1343FA689B
:101820001343FB607B68FA685A613B681A697B68FE
:101830005A603B685A687B689A603B689A687B6824
:10184000DA601437BD465DF8047B70473F801CF0BA
:1018500080B483B000AF78600B46FB70FB78002B40
:1018600006D07B681B6843F001027B681A6005E0C4
:101870007B681B6823F001027B681A600C37BD4649
:101880005DF8047B704700BF80B485B000AFF8609E
:10189000B9601346FB71BB6803F08003002B0FD0C7
:1018A000FB79002B06D0FB685B6943F08002FB6884
:1018B0005A6105E0FB685B6923F08002FB685A61AE
:1018C000BB68802B14D0FB79002B08D0FB681A680A
:1018D000BB6803F01E031A43FB681A6008E0FB684C
:1018E0001A68BB6803F01E03DB431A40FB681A60EA
:1018F0001437BD465DF8047B704700BF80B487B0E5
:1019000000AF786039600023FB750023FB60002383
:10191000BB607B68224A934202D8224B3B6101E0C4
:10192000214B3B613B6823F0F02323F0C313002BD2
:101930000AD03B68DB0A03F01E03FB607B681A6871
:10194000FB681340BB6004E07B685B6903F08003C5
:10195000BB603B6803F00053002B03D03B695B681E
:10196000FB6002E03B691B68FB60FB6823F0F0232F
:1019700023F08213FB60FA683B681340002B05D00C
:10198000BB68002B02D00123FB7501E00023FB752F
:10199000FB7D18461C37BD465DF8047B704700BFD1
:1019A0000F640240006002400064024080B485B0D1
:1019B00000AF786039607B68104A934202D8104BC0
:1019C000FB6001E00F4BFB603B6803F00053002B12
:1019D00007D03B6823F0F02323F08213FA68D3602A
:1019E00006E03B6823F0F02323F08213FA6893604B
:1019F0001437BD465DF8047B704700BF0F6402409A
:101A0000006002400064024080B58AB000AF786098
:101A100039607B683B623B6A002B09D14FF0500371
:101A200083F31188BFF36F8FBFF34F8FBB61FEE766
:101A30003B6A1B6C002B09D04FF0500383F31188D5
:101A4000BFF36F8FBFF34F8F7B61FEE700F00CFA9F
:101A5000EFF311824FF0500383F31188BFF36F8FC0
:101A6000BFF34F8F3A61FB603B69FB613B6A9A6B46
:101A70003B6ADB6B9A4224D23B6A9B6B5A1C3B6AE3
:101A80009A633B6A9B6CB3F1FF3F12D13B6A5B6A7E
:101A9000002B13D03B6A24331846FFF797F8034610
:101AA000002B0BD03B68002B08D03B6801221A604A
:101AB00004E03B6A9B6C5A1C3B6A9A6401237B627C
:101AC00001E000237B62FB69BB60BB6883F3118884
:101AD0007B6A18462837BD4680BD00BF80B485B0FC
:101AE00000AFF860B9607A60FB68043BFB60FB689C
:101AF0004FF080721A60FB68043BFB60BA68FB68B9
:101B00001A60FB68043BFB600C4AFB681A60FB68C8
:101B1000143BFB607A68FB681A60FB68043BFB605F
:101B2000FB686FF002021A60FB68203BFB60FB68F9
:101B300018461437BD465DF8047B7047411B00080A
:101B400080B483B000AF0C4B1B68B3F1FF3F09D0EA
:101B50004FF0500383F31188BFF36F8FBFF34F8FA4
:101B60007B60FEE74FF0500383F31188BFF36F8F64
:101B7000BFF34F8F3B60FEE718000020064B19684B
:101B80000868B0E8F04F80F30988BFF36F8F4FF01B
:101B9000000080F3118870472C0000200648006880
:101BA000006880F3088862B661B6BFF34F8FBFF359
:101BB0006F8F00DF00BF000008ED00E080B586B049
:101BC00000AF3B4B1B683B4A934209D14FF0500397
:101BD00083F31188BFF36F8FBFF34F8F3B61FEE735
:101BE000334B1B68344A934209D14FF0500383F3BF
:101BF0001188BFF36F8FBFF34F8FFB60FEE72F4B52
:101C00007B617B691B78DBB2BB607B69FF221A704A
:101C10007B691B78DBB2FB71FB79DBB203F050030D
:101C2000DAB2274B1A70274B07221A6009E0254BBE
:101C30001B68013B234A1360FB79DBB25B00DBB21C
:101C4000FB71FB79DBB2DBB25BB2002BEFDB1D4B30
:101C50001B681B021B4A13601A4B1B6803F4E063EA
:101C6000184A1360BB68DAB27B691A70164A164BC1
:101C70001B6843F470031360134A134B1B6843F053
:101C80007043136000F0CCF8104B00221A6000F093
:101C9000E1F80F4A0E4B1B6843F040431360FFF717
:101CA0007DFFFFF74DFF002318461837BD4680BD66
:101CB00000ED00E071C20F4170C20F4100E400E08E
:101CC000280100202C01002020ED00E01800002059
:101CD00034EF00E080B483B000AF4FF0500383F3E3
:101CE0001188BFF36F8FBFF34F8F7B600E4B1B6864
:101CF00001330D4A13600C4B1B68012B0ED10B4BAB
:101D00001B68DBB2002B09D04FF0500383F311881E
:101D1000BFF36F8FBFF34F8F3B60FEE70C37BD46BD
:101D20005DF8047B704700BF1800002004ED00E060
:101D300080B483B000AF104B1B68002B09D14FF06B
:101D4000500383F31188BFF36F8FBFF34F8F7B6016
:101D5000FEE7094B1B68013B074A1360064B1B68F3
:101D6000002B04D100233B603B6883F311880C37C0
:101D7000BD465DF8047B704718000020EFF3098032
:101D8000BFF36F8F144B1A681EF0100F08BF20EDC1
:101D9000108A20E9F04F10604DF8043D4FF05000DC
:101DA00080F31188BFF34F8FBFF36F8FFEF7B4FE40
:101DB0004FF0000080F3118808BC19680868B0E88B
:101DC000F04F1EF0100F08BFB0EC108A80F30988A6
:101DD000BFF36F8F704700BF2C00002080B584B028
:101DE00000AFEFF311824FF0500383F31188BFF37C
:101DF0006F8FBFF34F8FFA60BB60FEF7CDFD0346D8
:101E0000002B03D0054B4FF080521A6000237B60FB
:101E10007B6883F311881037BD4680BD04ED00E078
:101E200080B400AF074A084B1B680849A1FB0313A5
:101E30009B09013B1360064B07221A60BD465DF803
:101E4000047B704714E000E004000020D34D6210D2
:101E500010E000E0DFF80C00016841F4700101605F
:101E60007047000088ED00E080B485B000AFEFF36C
:101E70000583FB60FB680F2B13D9154AFB681344DD
:101E80001B78FB72134B1B78FA7A9A4209D24FF0F7
:101E9000500383F31188BFF36F8FBFF34F8F7B60C5
:101EA000FEE70D4B1B6803F4E0620C4B1B689A4283
:101EB00009D94FF0500383F31188BFF36F8FBFF33D
:101EC0004F8F3B60FEE71437BD465DF8047B7047DB
:101ED000F0E300E0280100200CED00E02C010020E0
:101EE00080B483B000AF7860054A7B6843F0BF637D
:101EF00043F40033D3600C37BD465DF8047B704774
:101F000000ED00E080B485B000AF78600023FB7383
:101F10000023BB730F237B737B68DB78002B38D0E7
:101F2000264BDB68DB4303F4E0631B0AFB73FB7B9C
:101F3000C3F10403BB737A7BFB7B42FA03F37B732D
:101F40007B685B781A46BB7B02FA03F3FB737B6802
:101F50009A787B7B1340DAB2FB7B1343FB73FB7BEA
:101F60001B01FB73164A7B681B781344FA7B83F8CA
:101F70000023134A7B681B785B09DBB218467B6839
:101F80001B7803F01F03012101FA03F342F820300C
:101F90000FE00B497B681B785B09DBB218467B6856
:101FA0001B7803F01F0301229A4000F1200341F83F
:101FB00023201437BD465DF8047B704700ED00E038
:101FC00000E100E080B588B000AF786000237B615D
:101FD000FEF73EFC3E4B1B68002B04D100F0B8F826
:101FE0003B4B01221A607B68002B0ED008231A4657
:101FF0007B6813447B607B6803F00703002B04D0ED
:102000007B6823F0070308337B607B68002B57D085
:102010007B6847F2F772934252D82E4BBB612D4B2F
:102020001B68FB6104E0FB69BB61FB691B68FB612A
:10203000FB695A687B689A4203D2FB691B68002BD4
:10204000F1D1FB69244A93423AD0BB691B6808224C
:1020500013447B61FB691A68BB691A60FB695A68A3
:102060007B68D31A08225200934222D9FA697B680E
:102070001344FB60FB695A687B68D21AFB685A609C
:10208000FB697A685A60FB685B68BB60114B3B6117
:1020900002E03B691B683B613B691B685A68BB688F
:1020A0009A42F6D33B691A68FB681A603B69FA6882
:1020B0001A600A4B1A68FB695B68D31A074A1360F7
:1020C000FEF7D4FB7B6918462037BD4680BD00BFB4
:1020D0004079002030790020387900201C00002051
:1020E00080B586B000AF78607B683B617B68002B71
:1020F00027D008235B423A6913443B613B69FB608C
:10210000FEF7A6FBFB685B68BB600F4B7B6102E0E0
:102110007B691B687B617B691B685A68BB689A4254
:10212000F6D37B691A68FB681A607B69FA681A60E3
:10213000FB685A68054B1B681344044A1360FEF79A
:1021400095FB1837BD4680BD307900201C0000206B
:1021500080B483B000AF0F4B23F007037B600E4ABF
:102160007B6813600C4B00225A600C4B47F2F872EC
:102170005A600A4B00221A607B683B603B6847F25A
:10218000F8725A603B68054A1A600C37BD465DF824
:10219000047B704738010020307900203879002016
:1021A00080B485B000AF786039600023FB817B6824
:1021B0001B88FB817B68284A934213D07B68274A9F
:1021C00093420FD07B68B3F1804F0BD07B68244AD9
:1021D000934207D07B68234A934203D07B68224A0C
:1021E000934208D1FB8923F07003FB813B685A8836
:1021F000FB891343FB817B681C4A93420CD07B68AC
:102200001B4A934208D0FB8923F44073FB813B684F
:102210001A89FB891343FB817B68FA891A803B6822
:102220005A687B68DA623B681A887B681A857B6823
:10223000094A934203D07B68084A934204D13B6821
:102240009B7A9AB27B681A867B6801229A8214373D
:10225000BD465DF8047B704700000140000401406A
:102260000004004000080040000C00400010004046
:102270000014004080B483B000AF78607B684FF0FA
:10228000FF325A607B6800221A807B6800221A8124
:102290007B6800225A807B6800229A720C37BD4608
:1022A0005DF8047B704700BF80B483B000AF7860F6
:1022B0000B46FB70FB78002B08D07B681B889BB219
:1022C00043F080039AB27B681A8007E07B681B8822
:1022D0009BB223F080039AB27B681A800C37BD460C
:1022E0005DF8047B704700BF80B483B000AF7860B6
:1022F0000B46FB70FB78002B08D07B681B889BB2D9
:1023000043F001039AB27B681A8007E07B681B8860
:102310009BB223F001039AB27B681A800C37BD464A
:102320005DF8047B704700BF80B485B000AF786073
:10233000396000237B810023FB810023BB817B6804
:102340001B8C9BB223F001039AB27B681A847B68D2
:102350001B8CFB817B689B88BB817B681B8B7B8193
:102360007B8923F070037B817B8923F003037B81CE
:102370003B681A887B8913437B81FB8923F0020326
:10238000FB813B689A89FB891343FB813B685A8830
:10239000FB891343FB817B681E4A934203D07B6811
:1023A0001D4A934223D1FB8923F00803FB813B683C
:1023B000DA89FB891343FB81FB8923F00403FB814A
:1023C0003B689A88FB891343FB81BB8923F48073A4
:1023D000BB81BB8923F40073BB813B681A8ABB892C
:1023E0001343BB813B685A8ABB891343BB817B681B
:1023F000BA899A807B687A891A833B689A687B6875
:102400005A637B68FA891A841437BD465DF8047BE9
:10241000704700BF000001400004014080B483B059
:1024200000AF78607B6800221A807B6800225A80A7
:102430007B6800229A807B6800229A607B68002279
:102440009A817B680022DA817B6800221A827B688D
:1024500000225A820C37BD465DF8047B704700BFEE
:1024600080B485B000AF78600B467B800023FB8191
:102470007B681B8BFB81FB8923F00803FB81FA89B6
:102480007B881343FB817B68FA891A831437BD4626
:102490005DF8047B704700BF80B483B000AF786004
:1024A0000B46FB70FB78002B0CD07B68B3F84430F4
:1024B0009BB26FEA43436FEA53439AB27B68A3F837
:1024C000442009E07B68B3F844309BB2C3F30E03A9
:1024D0009AB27B68A3F844200C37BD465DF8047BB4
:1024E000704700BF80B584B000AFF8600846114661
:1024F0001A4603467B810B463B811346FB80798954
:102500003A89FB88F86800F00BF8FB681B899BB2DE
:1025100043F480439AB2FB681A811037BD4680BDF0
:1025200080B487B000AFF860084611461A460346EB
:102530007B810B463B811346FB800023FB82FB68BB
:102540001B89FB82FB8ADBB2FB82FB881B029AB2EF
:102550003B8913439AB27B8913439AB2FB8A134394
:10256000FB82FB68FA8A1A811C37BD465DF8047B42
:10257000704700BF70B4840746D0541E002A41D073
:10258000CDB2034602E0621EE4B3144603F8015BD9
:102590009A07F8D1032C2ED9CDB245EA05250F2C88
:1025A00045EA054519D903F110022646103E0F2EC3
:1025B00042F8105C42F80C5C42F8085C42F8045C9B
:1025C00002F11002F2D8A4F1100222F00F0204F07E
:1025D0000F041032032C13440DD91E462246043A30
:1025E000032A46F8045BFAD8221F22F003020432C1
:1025F000134404F003042CB1C9B21C4403F8011BBA
:10260000A342FBD170BC704714460346C2E700BF2B
:0526100049444C4500A7
:10261500FFFFFFFF007A030A000000000000000032
:102625000102030406070809AAAAAAAAF877000066
:0400000508000000EF
:00000001FF
