:020000040800F2
:10000000E0930120F13D00085555000861550008B6
:100010006955000871550008795500080000000076
:1000200000000000000000000000000069B50008AA
:10003000815500080000000069B70008C9B7000832
:100040005D3E00085D3E00085D3E00085D3E000824
:100050005D3E00085D3E00085D3E00085D3E000814
:100060005D3E00085D3E00085D3E00085D3E000804
:100070005D3E00085D3E00085D3E00085D3E0008F4
:100080005D3E00085D3E00085D3E00085D3E0008E4
:100090005D3E00085D3E00085D3E00085D3E0008D4
:1000A0005D3E00085D3E00085D3E00085D3E0008C4
:1000B0005D3E00085D3E00085D3E00085D3E0008B4
:1000C0005D3E00085D3E00085D3E00085D3E0008A4
:1000D0005D3E00085D3E00085D3E00085D3E000894
:1000E0005D3E00085D3E00085D3E00085D3E000884
:1000F0005D3E00085D3E00085D3E00085D3E000874
:100100005D3E00085D3E00085D3E00085D3E000863
:100110005D3E00085D3E00085D3E00085D3E000853
:100120005D3E0008C98700085D3E00085D3E00088E
:100130005D3E00088D5500085D3E00085D3E0008EC
:100140005D3E00085D3E00085D3E00085D3E000823
:100150005D3E00085D3E00085D3E00085D3E000813
:100160005D3E00085D3E00085D3E00085D3E000803
:100170005D3E00085D3E0008398800085D3E0008CD
:100180005D3E00085D3E000880B483B000AF78603B
:10019000034A7B6813600C37BD465DF8047B7047EB
:1001A000DC00274280B485B000AF7860294B1B6823
:1001B0007A6812881344FB607A68FB689A421FD001
:1001C000FB681B79002B1BD1234B1B68FA689A42F2
:1001D00016D0224B1A68FB689A4202D11F4A7B68EC
:1001E0001360FB681A887B681A801A4B1B68FA68D0
:1001F000128813447A6817490968521A92B25A80D1
:10020000144B1B687A6852881344BB60BA687B68D9
:100210009A421AD0BB681B79002B16D10F4B1A6873
:100220007B689A4202D10D4ABB6813607B681A88CA
:10023000BB681A80074B1B687A6812881344BA6837
:1002400004490968521A92B25A801437BD465DF8C3
:10025000047B70477C09002080090020840900206D
:1002600080B582B000AF194B033323F003031A4665
:10027000174B1A60164B1B687B607B684FF4A052CB
:100280001A807B6800225A807B6800221A71104B0A
:100290001B6803F5A0530F4A13600E4B1B68012225
:1002A0001A710C4B1B684FF4A0521A80094B1B6843
:1002B0004FF4A0525A80064B1B68074A1360074848
:1002C00009F0A4FE0837BD4680BD00BF44B200203F
:1002D0007C09002080090020840900208809002072
:1002E00080B584B000AF78607B68002B00D125E03A
:1002F000144B1B687A689A42124B1B687A689A42C0
:1003000004D3114B1B687A689A4200D316E00F4859
:1003100009F094FE7B68083BFB60FB6800221A71C1
:100320000B4B1B68FA689A4202D2094AFB681360B9
:10033000F868FFF737FF054809F094FE1037BD460F
:1003400080BD00BF7C0900208009002088090020B2
:100350008409002080B586B000AF78600B467B80B2
:100360007B8803339BB223F003037B807B880B2BBA
:1003700001D80C237B807B88B3F5A05F01D90023D3
:10038000A0E0524B1B687A689A42504B1B687A680F
:100390009A4204D34E4B1B687A689A4201D37B6819
:1003A00090E07B68083B7B617B69484A12689B1A36
:1003B0007B827B691A887B8AD31A9BB2083B3B827B
:1003C0007A883B8A9A4201D900237BE07A883B8A6B
:1003D0009A4201D17B6875E03E4809F02FFE3B4B05
:1003E0001B687A6912881344FB60FB681B79002B39
:1003F00032D1FB681B887B817A8A7B8813449BB24D
:1004000008333B81344B1A68FB689A4205D12F4B65
:100410001A683B891344304A13602C4B1A683B8995
:100420001344FB60FB6800221A71FB687A891A800A
:10043000FB687A8A5A807B693A891A80FB681B8834
:10044000B3F5A05F07D0214B1B68FA6812881344EC
:100450003A895A8032E031E07B8803F114023B8A0A
:100460009A422BD87A8A7B8813449BB208333B810B
:10047000164B1A683B891344FB60174B1B68FA68DC
:100480009A4202D2144AFB681360FB6800221A7178
:100490007B691A88FB681A80FB687A8A5A807B69B4
:1004A0003A891A80FB681B88B3F5A05F06D0074B1A
:1004B0001B68FA68128813443A895A80054809F083
:1004C000D1FD7B6818461837BD4680BD7C090020E9
:1004D00080090020880900208409002080B588B0A8
:1004E00000AF0346FB80FB88002B01D100239AE07C
:1004F000FB8803339BB223F00303FB80FB880B2BA9
:1005000001D80C23FB80FB88B3F5A05F01D9002341
:1005100089E0474809F092FD464B1B681A46464B56
:100520001B68D31AFB8374E0434B1A68FB8B13449C
:100530007B617B691B79002B65D17B691B881A461F
:10054000FB8BD31AA3F10802FB889A425BD37B6929
:100550001B881A46FB8BD31AA3F10802FB881433BD
:100560009A4227D3FA8BFB8813449BB208337B82D1
:10057000314B1A687B8A1344FB60FB6800221A71B6
:100580007B691A88FB681A80FB68FA8B5A807B6942
:100590007A8A1A807B6901221A71FB681B88B3F57D
:1005A000A05F0AD0244B1B68FA68128813447A8A29
:1005B0005A8002E07B6901221A711E4B1B687A691E
:1005C0009A421AD11B4B1B68BB6105E01A4B1B6892
:1005D000BA6912881344BB61BB691B79002B04D034
:1005E000164B1B68BA699A42F0D1124ABB69136074
:1005F000104B1A68114B1B689A420D4809F032FDE6
:100600007B6908330FE00C4B1A68FB8B13441B8883
:10061000FB83FA8BFB88C3F5A0539A4284DB044822
:1006200009F020FD002318462037BD4680BD00BFDD
:1006300088090020840900207C090020800900200E
:1006400080B584B000AF0346FB800023FB73FB88BA
:1006500018460CF0ABFC0346FB73FB7B002B03D06E
:10066000144B01221A701FE001F092FA0346002B8E
:1006700002D10323FB7317E00F4B104A1A60104B93
:10068000104A1A60104B114A1A60114B114A1A6035
:10069000114B00221A60114B01221A70104B0222DA
:1006A0001A70044B01221A70FB7B18461037BD46A6
:1006B00080BD00BF0000002094090020D9CF0008B1
:1006C00098090020E5CF00089C090020F1CF000820
:1006D0009009002065D00008A00900208C090020A6
:1006E0008D09002080B582B000AF0023FB71094B5B
:1006F0001B78012B06D1084B1B689847054B00223D
:100700001A7001E00623FB71FB7918460837BD46D5
:1007100080BD00BF000000209409002080B582B099
:1007200000AF0023FB704F4B1B78002B01D006233A
:1007300093E0BB1C184601F06BFA0346012B40F016
:100740008B80BB78032B00F2878001A252F823F044
:1007500059080008610700089507000859080008B3
:10076000414B1B6841484249424A98470346FB7047
:10077000FB78002B0DD13D4B1A783F4B1B789A42EA
:1007800003D03A4B1B78002B03D1022001F01AFA58
:1007900062E061E0364B1B681A78384B1A70384BB0
:1007A00001221A7000237B6020E0364A7B6812F831
:1007B0003330002B00D11CE0324A7B6812F8332022
:1007C0002E4B1B789A420ED12E4A7B68DB001344D5
:1007D0005B68274A126810462649984703461A461E
:1007E000274B1A7005E07B6801337B607B680F2B19
:1007F000DBDD1E4B1B78002B2DD0214B1B78002BF3
:100800001DD01C4B00221A80194B1A68194B1B88EB
:10081000591C88B2174908801344184A127862F0AC
:100820007F02D2B21A70124B1A68124B1B88591CE5
:1008300088B2104908801344114A12781A70124B7A
:100840001B680D4A10780A4A11680A4A12889847AC
:100850000346FB70FFE700BF002318460837BD467C
:1008600080BD00BF000000209C090020A4090020DA
:10087000A8090020AC0900208C090020AE09002046
:10088000AF090020040000209009002080B586B048
:1008900000AF786039600023BB753B681B88052B6F
:1008A0006ED17B6801331B789BB21B02BB827B68D5
:1008B00002331B789AB2BB8A1343BB82BB8A0133D3
:1008C000BB827B6803331B789BB21B027B827B68F5
:1008D00004331B789AB27B8A13437B827B8A002B7A
:1008E0004AD07B8AB3F5FA6F46D27B68FB603B68DF
:1008F00000221A80FB685A1CFA6002221A703B68B8
:100900001B8801339AB23B681A807B8A03F0070385
:10091000002B06D07B8ADB089BB2DBB20133FB7570
:1009200003E07B8ADB089BB2FB75FB685A1CFA600C
:10093000FA7D1A703B681B8801339AB23B681A80B3
:10094000BA8A7B8AF86811461A460DF009FC0346FC
:10095000FB72FB7A002B06D0FB7A184603F028FACC
:100960000346BB750BE03B681A88FB7D9BB21344C2
:100970009AB23B681A8002E00323BB7502E001E0F3
:100980000323BB75BB7D18461837BD4680BD00BF2D
:1009900080B400AFBD465DF8047B704780B500AF02
:1009A00000F0D8FD074B1B780133DAB2054B1A7003
:1009B000044B1B7803F00103002B01D000F0B4FBC3
:1009C00080BD00BFB0090020B0B586B002AF78602E
:1009D0000B46FB70FB78002B67D07B681B7E042BDB
:1009E00003D07B681B7E072B5FD17B685B6F002B7E
:1009F00005D17B689B8D40F66832934255D07B6869
:100A0000186D7B68996A7D687B681C1D7B685A8BB2
:100A10007B689B8B009201932A4623460EF01EFFB3
:100A2000786800F0F5FF764B1A687B689A4205D12A
:100A3000734B1B68DB68724A136019E0704B1B68CC
:100A4000704A136010E06F4B1B68DA687B689A424B
:100A500005D16C4B1B687A68D268DA6008E0694B94
:100A60001B68DB68674A1360664B1B68002BEAD182
:100A70007B680022DA60644B01221A707B681B7E5F
:100A8000042B0CD17B680A221A76604B1A687B68AB
:100A9000DA605E4A7B68136004F0C8FD03E0022060
:100AA000796803F013F80023A4E07B681B7E072B12
:100AB00000F2908001A252F823F000BFDD0A000886
:100AC000470B0008610B0008810B00089D0B000814
:100AD000D50B0008D50B0008B90B00080023FB73E9
:100AE0007B685B8B002B27D0494B1A687B689A4246
:100AF00005D1474B1B68DB68454A136019E0444B3E
:100B00001B68404A136010E03E4B1B68DA687B6844
:100B10009A4205D13B4B1B687A68D268DA6008E0DC
:100B2000384B1B68DB68374A1360364B1B68002B59
:100B3000EAD17B680022DA600220796802F0C6FF01
:100B400000237B604BE00023FB733248796800F0A0
:100B500097FF0320796802F0B9FF00237B603EE035
:100B60000023FB732648796800F08AFF264B012298
:100B70001A700220796802F0A9FF00237B602EE042
:100B800078680DF0DDFF0346FB7397F90F30002BFB
:100B900003D17B6805221A7621E020E078680DF009
:100BA000CFFF0346FB7397F90F30002B03D17B680F
:100BB00005221A7613E012E078680DF0C1FF0346B3
:100BC000FB7397F90F30002B03D17B6809221A764B
:100BD00005E004E00023FB7300237B6000BF7B681B
:100BE000002B06D097F90F30002B02D178680EF059
:100BF0003BFCFB7B5BB218461037BD46B0BD00BF67
:100C00005CC6002068C6002058C6002070C60020C0
:100C10006CC6002064C6002080B582B000AF78604A
:100C20007B681B7E012B06D07B689B7F43F0100303
:100C3000DAB27B689A7778680121FFF7C5FE034630
:100C400018460837BD4680BD80B584B000AFF86057
:100C5000B9607A60FB681B7E012B01D1F32334E07D
:100C6000BB68002B1BD0FB689B7F43F01003DAB2FC
:100C7000FB689A777B68002B05D0F8680121FFF7A5
:100C8000A3FE034621E0FB685B6F002B07D0FB68E7
:100C90005B6F184607F0E4F9FB6800225A677B682F
:100CA000002B11D0FB681B7E032B0BDB042B01DD1B
:100CB000072B07D1BB68DBB2F8681946FFF784FE43
:100CC000034602E0F32300E000235BB2184610372E
:100CD000BD4680BDB0B588B002AF786039607B6832
:100CE0001B7E0A2B08D12848796800F0C9FE022033
:100CF000796802F0EBFE43E07B681B6D7B617B68EB
:100D00009B6A3B617B68D3F88830FB607B681B691A
:100D1000BB601E48796800F0B3FE1D4B01221A70BB
:100D20007B681B6F002B04D07B681B6F184600F09C
:100D3000C5FC7B68DB6E002B04D07B68DB6E18463D
:100D400000F0BCFC3B68002B0ED07D687B681C1D4E
:100D50007B685A8B7B689B8B009201937869396919
:100D60002A4623460EF07AFD0220796802F0AEFE94
:100D7000FB68002B04D0FB68B8686FF00901984746
:100D80001837BD46B0BD00BF70C600205CC600204D
:100D900058C6002080B582B000AF78607868012125
:100DA000FFF798FF0837BD4680BD00BF80B588B00B
:100DB00000AFF860B9601346FB8004237B61FB68D9
:100DC0001B7E002B01D0FA2355E0FB88002B08D1B5
:100DD00000F064F90346FB80FB88002B01D1FE2361
:100DE00049E00023FB612AE0254AFB6952F82330E1
:100DF0001B68BB611DE0BB695B8BFA889A4215D109
:100E0000BB69002B10D0BB691B68002B0CD0BB68E2
:100E1000002B09D0BB681B68002B05D0BB691A6882
:100E2000BB681B689A4201D1F82324E0BB69DB68E8
:100E3000BB61BB69002BDED1FB690133FB61FA6941
:100E40007B699A42D0DBBB68002B07D0BB681B686C
:100E5000002B03D0FB68BA6812681A60FB68FA8836
:100E60005A83084B1A68FB68DA60064AFB6813600D
:100E700004F0DCFB00235BB218462037BD4680BD82
:100E8000306B01086CC6002080B485B000AFF860FC
:100E9000B9601346FB71F6235BB218461437BD46A2
:100EA0005DF8047B704700BF80B584B000AF786008
:100EB0000B46FB707B681B7E002B01D0002371E08A
:100EC0007B681B7E012B01D17B686BE0032002F065
:100ED000DBFDF860FB68002B01D1002362E07B683A
:100EE0001A69FB681A617B685A8BFB685A83FB6836
:100EF00001221A767B685A7EFB685A767B681A7ADA
:100F0000FB681A72FB681B7A43F00203DAB2FB68D3
:100F10001A727B689A7AFB689A727B685A7AFB68C5
:100F20005A727B681A68FB681A607B685B8B002BBF
:100F300027D01E4B1A687B689A4205D11B4B1B6851
:100F4000DB681A4A136019E0184B1B68184A1360D3
:100F500010E0174B1B68DA687B689A4205D1144B86
:100F60001B687A68D268DA6008E0114B1B68DB689E
:100F70000F4A13600E4B1B68002BEAD17B680022DE
:100F8000DA600220796802F0A1FDFB68094A5A6123
:100F9000094B1A68FB68DA60074AFB68136004F0C3
:100FA00045FBFB6818461037BD4680BD6CC6002067
:100FB00068C60020890E000864C6002080B485B091
:100FC00000AF78607B689B6A7A68928D1344FB60FF
:100FD0007B681B6B7A68D28E40F2B4518A4202D889
:100FE0007A68D28E01E040F2B4521344FA68D31A00
:100FF000002B08DB7B689A8D7B68DA857B681B6B2E
:10100000FA68D31A15E07B689A6A7B681B6BD31A5F
:10101000002B03DD7B680022DA8509E07B681A6B10
:101020007B689B6AD31ABB60BB689AB27B68DA851F
:10103000002318461437BD465DF8047B704700BF97
:1010400080B584B000AF78600B467B807B689A8D5A
:101050007B8813449AB27B689A857B689B8D40F6A7
:101060006832934203D97B6840F668329A85786883
:10107000FFF7A4FF0346FB60FB6840F2D9229342CE
:1010800009DD7B689B7F43F00203DAB27B689A77C5
:1010900078680EF0E9F91037BD4680BD80B483B0A2
:1010A00000AF0023BB801E4B1B885A1C91B21C4A08
:1010B00011804FF6FF72934203D1194B4FF4404217
:1010C0001A800023FB711FE0FB79164A52F8233087
:1010D0001B683B6012E03B685A8B114B1B889A429D
:1010E00009D1BB880133BB80BB88B3F5804F01D3E6
:1010F00000230EE0D7E73B68DB683B603B68002BD2
:10110000E9D1FB790133FB71FB79032BDCD9044B6B
:101110001B8818460C37BD465DF8047B704700BF3E
:1011200084000020306B0108B0B58AB002AF002304
:101130007B75A74B1B680133A54A1360A54B1B7831
:101140000133DAB2A34B1A700023BB61A24B1B68B8
:10115000FB61BAE1FB6993F821209E4B1B789A4210
:1011600003D1FB69DB68FB61AFE19A4B1A78FB693D
:1011700083F821200023FB750023BB75FB691B7ED0
:10118000022B08D1FB6993F84630062B03D1FB7D77
:101190000133FB7595E0FB6993F846300C2B03D1C6
:1011A000FB7D0133FB758CE0FB6993F89130002BDC
:1011B00027D0FB6993F890300133DAB2FB6983F8EA
:1011C0009020FB6993F89020FB6993F89130013BE4
:1011D0008249CB5C9A4274D3FB69002283F8902049
:1011E000FB6993F89130062B07D8FB6993F891308F
:1011F0000133DAB2FB6983F89120F8690EF082FCC2
:101200005FE0FB699B8E1BB2002B07DBFB699B8EAB
:101210009BB201339BB29AB2FB699A86FB691B6F42
:10122000002B4ED0FB699A8EFB69B3F8443012B2A2
:101230001BB29A4245DBFB691B7E022B16D0FB6971
:10124000B3F840301BB2DB109BB21AB2FB69B3F8A3
:1012500042301BB21344FA6992F846201146604AA4
:10126000525C93409AB2FB69A3F84420FB690022C8
:101270009A86FB69B3F86020FB69B3F84C3093425F
:1012800028BF13467B827B8A5B089AB2FB69A3F86E
:101290004E20FB69B3F84E301A46FB69DB8E5B00CB
:1012A0009A4206DAFB69DB8E5B009AB2FB69A3F80F
:1012B0004E20FB69DA8EFB69A3F84C20F8690EF02A
:1012C00029FBFB691B7E062B0FD1FB699B7F03F07B
:1012D0001003002B09D03E4B1A68FB695B6AD31AD6
:1012E000282B02D9FB7D0133FB75FB691B7A03F0C8
:1012F0000803002B41D0FB691B7E042B03D0FB6944
:101300001B7E072B39D1324B1A68FB695B6AD21AF4
:10131000FB69D3F88C3003F5242303F6B843314935
:10132000A1FB03135B099A4206D9FB7D0133FB75D0
:10133000BB7D0133BB7520E0254B1A68FB695B6AF6
:10134000D21AFB69D3F88C10FB6993F892301846D7
:10135000254B03FB00F30B442249A1FB03135B095C
:101360009A420AD9F8690EF0A1FBFB6993F8923012
:101370000133DAB2FB6983F89220FB691B7E032BF1
:1013800009D1134B1A68FB695B6AD31A282B02D95F
:10139000FB7D0133FB75FB691B7E092B09D10C4BCF
:1013A0001A68FB695B6AD31AF02B02D9FB7D013303
:1013B000FB75FB7D002B52D0F86900F029FBBB695F
:1013C000002B13D0FB69DA68BB69DA6012E000BF5A
:1013D00060C60020B10900205CC60020286B01080F
:1013E000186B0108D34D6210F8240100FB69DB681B
:1013F000544A1360BB7D002B10D0FB69186DFB694C
:10140000996AFD69FB691C1DFB695A8BFB699B8B03
:10141000009201932A4623460EF020FAFB69D3F886
:101420008830FB60FB691B69BB60FB697B60FB6903
:10143000DB68FB610220796802F048FB424B002226
:101440001A70FB68002B04D0FB68B8686FF00901C4
:1014500098473D4B1B78002B00D075E635E0FB69C3
:10146000BB61FB69DB68FB61BB69DB7F0133DAB21F
:10147000BB69DA77BB69DA7FBB6993F820309A429F
:1014800023D3BB690022DA772F4B00221A70BB6985
:10149000D3F88430002B0AD0BB69D3F88430BA6902
:1014A00012691046B969984703467B7501E000232D
:1014B0007B75254B1B78002B00D045E697F915303E
:1014C000002B02D1B8690DF0CFFFFB69002B7FF430
:1014D00041AE0023BB611D4B1B68FB612CE0002368
:1014E000FB751B4B1A68FB695B6AD31AF02B02D998
:1014F000FB7D0133FB75FB7D002B18D0F86900F0F4
:1015000087FABB69002B04D0FB69DA68BB69DA6033
:1015100003E0FB69DB680D4A1360FB693B60FB6914
:10152000DB68FB610220396802F0D0FA04E0FB6955
:10153000BB61FB69DB68FB61FB69002BCFD1203706
:10154000BD46B0BD5CC6002058C6002070C6002055
:1015500060C6002080B582B000AF234B1B780133FA
:10156000DAB2214B1A70214B1B687B6036E07B6836
:1015700093F821201C4B1B789A422FD01A4B1A78D3
:101580007B6883F821207B689B7F03F00103002B9D
:1015900010D07B689B7F43F00203DAB27B689A77B6
:1015A00078680DF061FF7B689B7F23F00303DAB25C
:1015B0007B689A777B68DB683B607B685B6F002B9E
:1015C0000AD00B4B00221A70786800F013F8084B11
:1015D0001B78002B00D0C6E73B687B607B68002B44
:1015E000C5D10837BD4680BDB10900205CC60020CA
:1015F00058C6002090B585B000AF78607B685B6FFF
:101600005B7BBB737B685B6FBB607B6800225A6748
:101610007B68DB6F002B0BD07B68DC6F7B681B6902
:1016200018467968BA680023A0470346FB7307E0B1
:1016300000207968BA68002300F06CF80346FB7359
:1016400097F90F30002B29D1BB7B03F02003002B2F
:101650002ED07B689B8D40F66832934205D07B6824
:101660009B8D01339AB27B689A857B68DB6F002B78
:101670000BD07B68DC6F7B681B6918467968002299
:101680000023A0470346FB7301E00023FB7397F997
:101690000F3013F10A0F0BD1F6230AE097F90F3040
:1016A00013F10A0F01D1F62303E07B68BA685A6789
:1016B00000235BB218461437BD4690BD80B584B098
:1016C00000AF786007E07B681B68FB60786800F01B
:1016D00009F8FB687B607B68002BF4D11037BD46AE
:1016E00080BD00BF80B582B000AF78607B68002B02
:1016F0000CD07B685B68002B04D07B685B68184665
:1017000006F0AEFC0420796802F0E0F90837BD4627
:1017100080BD00BF80B584B000AFF860B9607A606A
:10172000FB707B68002B09D07B681B89B868194661
:10173000FFF786FC786806F093FC08E097F9033021
:10174000002B04D1B868FFF767FA034600E00023D6
:101750005BB218461037BD4680BD00BF80B586B06D
:1017600000AF0346FB717F23FB720023FB60002365
:101770003B61184B1B687B611FE07B695B7EFA79DC
:101780009A4217D37B695B7EFA7A9A4212D3124B44
:101790001A687B695B6AD21AFB689A420AD30E4BBD
:1017A0001A687B695B6AD31AFB607B693B617B6962
:1017B0005B7EFB727B69DB687B617B69002BDCD124
:1017C0003B69002B02D03869FFF7E4FA1837BD46B1
:1017D00080BD00BF5CC6002060C6002080B584B01C
:1017E00000AF00237B600023BB60114B1B68FB60D4
:1017F00012E0104B1A68FB685B6AD21A7B689A4247
:1018000007D30C4B1A68FB685B6AD31A7B60FB68D2
:10181000BB60FB68DB68FB60FB68002BE9D1BB6841
:10182000002B02D0B868FFF7B5FA1037BD4680BD6F
:1018300070C6002060C6002080B584B000AF0346AB
:10184000FB71022002F020F9F860FB68002B10D138
:10185000FFF7C4FF022002F017F9F860FB68002BC5
:1018600007D1FB791846FFF779FF022002F00CF947
:10187000F860FB68002B5CD0F868002194220EF021
:1018800063FBFB68FA795A76FB6841F68442A3F859
:101890006620FB680022A3F86820FB6840F66832E7
:1018A0009A85FB6840F66832DA85FB6800225A7236
:1018B000FB68FF229A72FB684FF40672DA86FB68B7
:1018C0000622A3F84420FB680022A3F84020FB680E
:1018D0000622A3F84220FB684FF6FF729A86FB6847
:1018E0000122A3F84C2000F01FF9B860FB68BA6829
:1018F0009A65FB68BA681A65FB68BA689A64FB68FF
:10190000BA68DA650D4B1A68FB685A620C4B1A7894
:10191000FB6883F82120FB680022DA77FB68094A1C
:10192000DA67FB68084AC3F88C20FB68002283F85A
:101930009220FB6818461037BD4680BD60C6002067
:10194000B10900201517000800DD6D0080B500AF5B
:101950004020FFF771FF0346184680BD80B483B076
:1019600000AF786039607B683A681A610C37BD4611
:101970005DF8047B704700BF80B483B000AF78602F
:1019800039607B683A68DA670C37BD465DF8047BDE
:10199000704700BF80B483B000AF786039607B6867
:1019A0003A689A670C37BD465DF8047B704700BF04
:1019B00080B483B000AF786039607B683A68C3F860
:1019C00088200C37BD465DF8047B704780B483B037
:1019D00000AF786039607B683A685A610C37BD4661
:1019E0005DF8047B704700BF80B485B000AFF8603D
:1019F000B9601346FB71FB68BA68C3F88420FB68C2
:101A0000FA7983F820201437BD465DF8047B7047CF
:101A100080B582B000AF78607B681B7E002B2CD035
:101A20007B681B7E0A2B28D07B681B7E012B24D071
:101A30007B685B6F002B07D07B685B6F184606F0F6
:101A40000FFB7B6800225A677B684FF6FF729A860D
:101A50007B68DB6E1846FFF731FE7B681B6F18460C
:101A6000FFF72CFE7B680022DA667B68DA6E7B6803
:101A70001A677B680022A3F86A200837BD4680BD3C
:101A800080B582B000AF786039607B681A683B68C7
:101A90009A4205D17B681B68DA687B681A6019E096
:101AA0007B681B681F4A136010E01E4B1B68DA68D6
:101AB0003B689A4205D11B4B1B683A68D268DA60D2
:101AC00008E0184B1B68DB68164A1360154B1B684F
:101AD000002BEAD13B680022DA603868FFF798FFF4
:101AE0003B681B7E0A2B13D03B681B7E012B0FD05B
:101AF0003B689B7F03F00103002B09D03B689B7F71
:101B000043F00203DAB23B689A7738680DF0ACFC18
:101B10003B681B7E012B3B6800221A760837BD46C6
:101B200080BD00BF68C6002080B400AF064B1A68B5
:101B3000064B1B681344044A1360034B1B6818468A
:101B4000BD465DF8047B70478800002060C6002019
:101B500080B584B000AF03463960FB8038680AF076
:101B6000D3F9F860FB68002B0DD0FB689B8C002B31
:101B700009D0FB689B8C283B7B817A89FB88934248
:101B800028BF1346FB80FB8818461037BD4680BD32
:101B900080B582B000AF0023FB710120012100223B
:101BA00008F028FF0246064B1A60054B1B68002B05
:101BB00001D00123FB71FB7918460837BD4680BD73
:101BC000B409002080B584B000AF0346FB71012347
:101BD000FB7308F09BFE0346002B09D00B4B1A68E1
:101BE000FB1D104619460022002309F0CDF808E03D
:101BF000064B1A68FB1D104619460022002308F008
:101C0000E3FFFB7B18461037BD4680BDB4090020BA
:101C100080B584B000AF78600023FB73084B1B686D
:101C2000184679683222002309F0A4F90346012BF3
:101C300001D10123FB73FB7B18461037BD4680BDE5
:101C4000B409002080B586B000AF0346FB800023B6
:101C50007B75FB88002B03D14FF4FB73FB8201E003
:101C6000FB88FB82FFF772FE38613B69FB60FB6813
:101C7000002B02D100237B7528E0FB8AF868174906
:101C80001A46FFF793F80346002B05D03869FEF794
:101C9000C3FF00237B7519E0F868FF21FFF704F903
:101CA000F860FB68002B05D13869FEF7B5FF00230B
:101CB0007B750BE0F8680A49FFF788FE094AFB6864
:101CC000136000200849094A08F0FEFD01237B75D6
:101CD0007B7D18461837BD4680BD00BF786C010873
:101CE000911D0008B8090020406B0108506B0108E5
:101CF00090B587B004AF78607B68002B33D07868EC
:101D0000FEF78AFF0346002B02D07868FFF742F8FF
:101D1000164B1B687A689A421DD17B6804331B7886
:101D20001C467B68043301331B7819467B680433F7
:101D300002331B781A467B68043303331B78009107
:101D40000192029300200A490A4A234608F0BCFD8A
:101D5000064B00221A60084B1B687A689A4202D12F
:101D6000054B00221A600C37BD4690BDBC0900200F
:101D7000686B0108746B0108B809002080B500AFDA
:101D8000024B1B681846FFF7B3FF80BDBC0900205B
:101D900090B58BB004AFF860B9601346FB7197F94A
:101DA0000730002B01D0FB7939E01F4B1B68002B5B
:101DB0002FD11D4ABB681360B8681C49FFF7DCFDD2
:101DC000B8681B49FFF7F4FDB868B968FFF7C6FDAE
:101DD000184B00221A80BB6804331B781C46BB6872
:101DE000043301331B781946BB68043302331B7874
:101DF0001A46BB68043303331B78009101920293A7
:101E000000200D490D4A234608F05EFD0023FB75B6
:101E100004E0B868FFF76CFF0023FB75FB7D5BB245
:101E200018461C37BD4690BDBC090020751E000831
:101E3000411E0008C80A0020406B0108986B010889
:101E400080B584B000AF78600B46FB707B68FB60A8
:101E5000FB68002B07D000200449054A08F034FD38
:101E6000F868FFF745FF1037BD4680BDBC6B010821
:101E7000C86B010880B586B000AFF860B9607A60C1
:101E8000FB70FB78FB7597F91730002B01D0FB7DB9
:101E900066E07B68002B04D1B868FFF729FF0023B8
:101EA0005EE07B685B89B8681946FFF7C9F82F4B7D
:101EB0001B881A467B685B891344B3F5837F05DD75
:101EC000B868FFF715FF0023FB7545E0274B1B881B
:101ED0001A46274BD1187B685A687B685B8908468D
:101EE00011461A460DF096FF7B685A891F4B1B88D6
:101EF00013449AB21D4B1A801C4B1B88062B2BD9FE
:101F00001B4B1B799BB21B02BB82194B5B799AB2AC
:101F1000BB8A1343BB82154B1B881A46BB8A063308
:101F20009A4219DB114B1B881A46BB8A06339A4228
:101F30000AD10E4B1B880F480D491A4608F0FEFBCC
:101F40000120FFF73FFE07E000200B490B4A08F095
:101F5000BBFCB868FFF7CCFE786806F081F8FB7D23
:101F60005BB218461837BD4680BD00BFC80A0020C6
:101F7000C0090020F46B0108BC6B0108006C01086B
:101F800080B483B000AF786039607B68074A1A601C
:101F9000074B1A883B681A80054B00221A800123E0
:101FA00018460C37BD465DF8047B7047C009002019
:101FB000C80A002080B584B000AF78600B467B80F3
:101FC0000023FB73134B1B68002B1ED0114B1A68A8
:101FD0007B88104679681A4601230CF01BFF0346E4
:101FE000002B0DD17B880C480C491A4608F0A6FB43
:101FF000084B1B6818460DF037FA0123FB7304E009
:10200000044B1B681846FFF773FEFB7B184610371E
:10201000BD4680BDBC0900202C6C0108C009002011
:1020200080B584B000AF3A601A460346FB710B4698
:10203000BB711346BB800023FB73BB8802331F2B8D
:1020400031DC1C4B00221A801A4B1B885A1C91B29F
:10205000184A11801946184AFB795354154B1B88AE
:102060005A1C91B2134A11801A46BB79002B01D039
:10207000FF2100E00021104B9954BB88002B14D0A5
:102080000C4B1B881A460C4B1A44BB881046396807
:102090001A460DF0BFFE074B1A88BB8813449AB24C
:1020A000044B1A8001E00423FB73FB7B18461037B6
:1020B000BD4680BDEC0A0020CC0A002080B582B06D
:1020C00000AF786039607B685A1C094B1B8810464A
:1020D00008491A460DF09EFE054B1B8801339AB243
:1020E0003B681A80002318460837BD4680BD00BFF4
:1020F000EC0A0020CC0A002090B589B002AF7860CD
:1021000039607B685B688E4A13607B685B688C4AC9
:102110001268127802F00F0292001344894A136089
:10212000874B1B681B789BB203F00F039BB29B008D
:102130009BB25B429BB29BB21BB27868194605F01A
:102140001FFF0346002B40F0B7827B681B89132BCF
:1021500040F2B2827C4B1B681846396802F096FD4B
:102160000346002B40F0A882774B1B6803F0F00376
:10217000E02B00F0A182734B1B689B899BB2184631
:1021800003F08EFD03461B0B9BB2BB72BB7A9BB266
:102190001A469203D31A9B009BB29BB21BB278687B
:1021A000194605F0EDFE0346002B00D084E2654B96
:1021B0001C68644B1B681B889BB2184603F070FDBB
:1021C000034623805F4B1C685E4B1B685B889BB299
:1021D000184603F065FD034663805A4B1C68594B53
:1021E0001B685B68184603F083FD03466360636801
:1021F000564A1360534B1C68524B1B689B68184629
:1022000003F076FD0346A360A368514A13604D4B6B
:102210001C684C4B1B68DB899BB2184603F040FDE1
:102220000346E381474B1B689B899BB2184603F02A
:1022300037FD0346DBB203F03F03DAB2454B1A70B9
:102240007B681A89434B1B7803F00303002B14BFF0
:1022500001230023DBB29BB213449AB23E4B1A8097
:1022600000233B613D4B1B687B6130E07B699A8BAF
:10227000344B1B681B889BB29A4223D17B695A8BD3
:10228000304B1B685B889BB29A421BD17B695A68B2
:10229000334B1B689A4215D17B691A682A4B1B681D
:1022A0009A420FD13B69002B0BD07B69DA683B69FE
:1022B000DA602A4B1A687B69DA60284A7B69136006
:1022C00008E007E07B693B617B69DB687B617B69D8
:1022D000002BCBD17B69002B7DD1224B1B687B610E
:1022E00025E07B699A8B174B1B681B889BB29A422F
:1022F0001AD17B695A8B134B1B685B889BB29A423D
:1023000012D17B695A68164B1B689A420CD17B69C3
:102310001A680D4B1B689A4206D1786900F0AEFA34
:10232000786805F09DFECAE17B69DB687B617B69AB
:10233000002BD6D100233B610B4B1B68FB602FE0C9
:10234000040B0020000B0020BC830120080B0020A0
:102350000C0B0020100B0020120B00205CC600208C
:10236000B483012070C6002064C60020FB685A8B2D
:10237000954B1B685B889BB29A420CD1FB681A682C
:10238000924B1B689A420ED0FB68002B0BD0FB6867
:102390001B68002B07D0FB683B61FB68DB68FB60B8
:1023A000FB68002BE2D1FB68002B14D03B69002BAB
:1023B0000AD0FB68DA683B69DA60854B1A68FB680B
:1023C000DA60834AFB681360F86800F08DF978687A
:1023D00005F046FE73E17B69002B00F046817D4BE2
:1023E00000221A607B681A897A4B1A81794A7B68C5
:1023F0005360754B1B68774AD360774B00221A6095
:10240000764B00221A70764B1B7803F00803002BE2
:1024100006D07B685B7B43F00103DAB27B685A73BA
:102420007B695B6F002B10D07869FFF7E3F80346F8
:1024300013F10A0F00F006817B695B6F002B04D05B
:10244000684B1B88002B40F0FD80674A7B69136056
:10245000786900F07FFA0346FB7297F90B3013F1AD
:102460000A0F00F0EF805D4B1B7803F00803002B90
:1024700016D07B69D3F88830002B08D07B69D3F85D
:1024800088307A69126910466FF00A0198475748F8
:102490007969FFF7F5FA0220796901F017FBD1E0BD
:1024A0004E4B1B7803F01003002B1CD07B699B7FE5
:1024B00003F01003002B0DD17B69D3F88830002B7B
:1024C00008D07B69D3F888307A69126910466FF0BA
:1024D0000B01984745487969FFF7D2FA02207969DC
:1024E00001F0F4FAAEE00023FB727B69B3F86430CC
:1024F000002B18D07B699B6F002B0CD07B699B6FE6
:102500007A6911697A69B2F864200846796998474E
:102510000346FB7201E00023FB7297F90B3013F1C5
:102520000A0F00D18EE02C4B1B68002B38D07B6942
:102530009B7F03F01003002B08D0274B1B68184625
:1025400005F08EFD7869FEF725FC7BE07B69DB6F8B
:10255000002B0DD07B69DC6F7B691A691E4B1B68F1
:10256000104679691A460023A0470346FB7209E02A
:10257000194B1B68002079691A460023FFF7CAF837
:102580000346FB7297F90B3013F10A0F00D159E0A3
:1025900097F90B30002B03D00F4B1A687B695A67F1
:1025A0000E4B1B7803F02003002B45D07B695B6F3B
:1025B000002B1DD07B695B6F7A69526F527B42F0B2
:1025C0002002D2B25A7337E0000B0020BC830120F6
:1025D00064C60020F00A0020180B0020140B002015
:1025E000100B0020120B002074C600205CC60020D7
:1025F0007B699B8D40F66832934205D07B699B8D49
:1026000001339AB27B699A857B69DB6F002B0BD013
:102610007B69DC6F7B691B6918467969002200239E
:10262000A0470346FB7201E00023FB7297F90B30D1
:1026300013F10A0F00D105E0224B00221A607869DD
:102640000CF012FF1F4B00221A601F4B00221A6071
:102650001E4B5B68002B2ED01C4B5B68184605F0A8
:10266000FFFC1A4B00225A6025E0194B1B689B891E
:102670009BB2184603F014FB034603F00403002B3F
:1026800015D1144B1868144B1B881A46134B1B6842
:10269000D1180F4B1B685B889AB20D4B1B681B88C7
:1026A0009BB2009201930E4A0E4B0DF0D7F878685A
:1026B00005F0D6FC03E002E0786805F0D1FC1C3799
:1026C000BD4690BD74C60020180B0020F00A002003
:1026D000000B00200C0B0020120B0020080B002028
:1026E000BC830120B483012080B586B002AF78603E
:1026F000594B1B7803F00403002B01D00023A5E005
:10270000554B1B7803F01003002B16D0534B186861
:10271000534B1B881A46534B1B68D118524B1B68EE
:102720005B889AB2504B1B681B889BB20092019346
:102730004E4A4F4B0DF092F887E0474B1B7803F061
:102740000203002B00F081807B685B7E1846FFF758
:1027500073F8F860FB68002B01D1FF2376E0434B50
:102760001A68FB681A607B685A8BFB685A83404B77
:102770001A68FB685A603C4B1B681B889AB2FB685E
:102780009A83FB6803221A76364B1B685A1CFB6837
:102790009A62FB689A6AFB681A63334B1B68DB8991
:1027A0009AB2FB68A3F860202F4B1B68DB899AB2B2
:1027B000FB68A3F86220FB68B3F86020FB68A3F80D
:1027C0004E20284B1B685A1EFB685A657B681A69A5
:1027D000FB681A617B685A69FB685A617B681B7ADF
:1027E00023F07303DAB2FB681A72224B1A68FB6893
:1027F000DA60204AFB68136002F018FF1E4B0122CA
:102800001A70F86801F072F8FB68DA8EFB6804331E
:1028100010461946FFF79CF903461A46FB68DA860C
:10282000F86812210CF020FD0346FB7297F90B307B
:10283000002B05D0F8680021FEF74CFAFB7A05E082
:10284000F8680CF011FE034600E000235BB2184666
:102850001037BD4680BD00BF100B00200C0B0020C0
:10286000120B0020080B0020000B0020BC8301206D
:10287000B48301205CC6002058C6002080B584B017
:1028800002AF78602B4B1B7803F00403002B01D0C0
:10289000002349E0274B1B7803F00203002B28D0CC
:1028A000254B1A687B689B6AD31A002B2BDB224BC3
:1028B0001A687B689B6A7968898D0B44D31A002B50
:1028C00021DC1E4B18681E4B1B881A461A4B1B68CE
:1028D000D1181C4B1B685B889AB21A4B1B681B886B
:1028E0009BB200920193184A184B0CF0B7FF0023DB
:1028F0001AE0104B1B7803F00103002B03D0144B9C
:102900001A687B685A620E4B1B88002B0BD07B68C1
:102910009B7F43F00203DAB27B689A7778680CF009
:10292000A3FD034600E000235BB218460837BD460E
:1029300080BD00BF100B0020080B00200C0B0020F6
:10294000120B0020000B0020BC830120B483012067
:1029500060C6002080B588B002AF78600023FB75A8
:102960000023BB75A44B1B7803F00403002B34D069
:102970007B681B7E022B08D17B681A6D9F4B1B68FE
:102980009A4215D10123FB7512E09D4B1A687B68B2
:102990009B6AD31A002B0BDB994B1A687B689B6AE6
:1029A0007968898D0B44D31A002B01DC0123FB7558
:1029B000FB7D002B0FD0934B1B7843F00803DAB25A
:1029C000904B1A707B689B7F23F00103DAB27B681F
:1029D0009A77F52307E3002305E3874B1B7803F081
:1029E0000203002B10D07B681B7E022B0CD07B686F
:1029F0001B7E032B08D07B689B7F43F00203DAB277
:102A00007B689A770023EEE27B689B7F03F01003DC
:102A1000002B03D17C4B1A687B685A627B680022CA
:102A200083F89220786800F061FF7B681B7E023B90
:102A3000072B00F2D68201A252F823F05D2A00088B
:102A40001D2C0008452D00086F2D0008552E00088C
:102A5000452D00081D2F0008B32F0008664B1B787A
:102A600003F01003002B00F0A980634B1B7803F0E8
:102A70000203002B00F0A2807B681B6FDB685B68A1
:102A8000184603F035F903465A1C5C4B1B689A4202
:102A900040F094807B68B3F8663001339AB27B686B
:102AA000A3F86620564B1B685A1C7B689A627B68A9
:102AB0009A6A7B681A63514B1A687B689A64534B15
:102AC0001B68DB899AB27B68A3F860204F4B1B68B8
:102AD000DB899AB27B68A3F86220494B1B685A1EB7
:102AE0007B685A657B6804221A767B68DA8E7B687D
:102AF000043310461946FFF72BF803461A467B6845
:102B0000DA867B68DB8E1A46920013445B009AB229
:102B10007B68A3F84E207B68B3F84C30012B04D1BE
:102B20007B68DB8E5B009BB201E07B68DB8E7A68A2
:102B3000A2F84C307B68B3F86830013B9AB27B68EE
:102B4000A3F868207B681B6F3B613B691A687B6850
:102B50001A673869FEF7C6FD7B681B6F002B04D12E
:102B60007B684FF6FF729A8606E07B6800229A86A1
:102B70007B68002283F846207B68D3F88030002BE6
:102B80000BD07B68D3F880307A6812691046796878
:102B9000002298470346BB7501E00023BB7597F9F7
:102BA000163013F10A0F01D1F6231CE27B689B7FDC
:102BB00043F00203DAB27B689A771CE00E4B1B7875
:102BC00003F01003002B16D00C4B1868104B1B8819
:102BD0001A460B4B1B68D1180C4B1B685B889AB2CA
:102BE0000A4B1B681B889BB200920193094A0A4B4F
:102BF0000CF034FEF6E1F5E1100B00200C0B002088
:102C0000080B0020140B002060C60020000B0020E1
:102C1000120B0020BC830120B48301209C4B1B7845
:102C200003F01003002B7BD09A4B1A687B689B6CD7
:102C3000D31A013B002B5BDB964B1A687B681B6D3C
:102C4000D31A002B54DC7B6804221A767B685B69FC
:102C5000002B0AD07B685B697A6812691046796834
:102C6000002298470346BB7501E0F223BB7597F934
:102C70001630002B09D097F9163013F10A0F02D045
:102C80007868FEF787F8F623ADE17B68B3F84C303F
:102C9000FB81786800F0BAF97B68B3F86430002BE8
:102CA00007D07B68B3F86430013B9AB27B68A3F825
:102CB0006420FB89012B04D17B68DB8E5B009BB217
:102CC00001E07B68DB8E7A68A2F84C30724B1B788F
:102CD00003F02003002B0AD07B689B7F43F00203A4
:102CE000DAB27B689A777B6807221A7617E016E0DB
:102CF000684B1868694B1B881A46694B1B68D118CA
:102D0000684B1B685B889AB2664B1B681B889BB23A
:102D100000920193644A654B0CF0A0FD11E010E0B5
:102D20005B4B1B7803F00203002B0AD07B689B6A85
:102D30005A1E5B4B1B689A4203D178680CF01AFE4E
:102D400050E14FE1786800F061F9534B1B7803F0D4
:102D50002003002B0AD07B689B7F43F00203DAB28A
:102D60007B689A777B6807221A763BE13AE17868BC
:102D700000F04CF9484B1B7803F02003002B58D08F
:102D8000434B1B7803F01003002B47D07B681A6D70
:102D9000404B1B689A4241D17B689B7F43F0020302
:102DA000DAB27B689A777868FEF732FE404B1A6891
:102DB0007B689A4205D13E4B1B68DB683C4A136036
:102DC00019E03B4B1B683B4A136010E0394B1B6812
:102DD000DA687B689A4205D1364B1B687A68D268FC
:102DE000DA6008E0334B1B68DB68324A1360314B12
:102DF0001B68002BEAD17B680022DA602E4B01228F
:102E00001A707B680A221A762C4B1A687B68DA6083
:102E10002A4A7B68136002F009FC1AE07B689B7FFA
:102E200043F00203DAB27B689A777B6808221A764D
:102E30000FE0174B1B7803F01003002B09D07B68C1
:102E40001A6D144B1B689A4203D17B6806221A76CE
:102E5000C8E0C7E0786800F0D9F80F4B1B7803F0A2
:102E60002003002B59D07B689B7F43F00203DAB22A
:102E70007B689A777868FEF7CBFD0D4B1A687B6804
:102E80009A421DD10A4B1B68DB68094A136031E086
:102E9000100B00200C0B0020140B0020120B002044
:102EA000080B0020000B0020BC830120B48301200C
:102EB0005CC6002068C6002058C6002070C60020EE
:102EC0004B4B1B684B4A136010E04A4B1B68DA6897
:102ED0007B689A4205D1474B1B687A68D268DA60F2
:102EE00008E0444B1B68DB68424A1360414B1B6897
:102EF000002BEAD17B680022DA603F4B01221A7076
:102F00007B680A221A763D4B1A687B68DA603B4A76
:102F10007B68136002F08AFB64E063E0786800F08D
:102F200075F8374B1B7803F01003002B40D07B68FB
:102F30001A6D344B1B689A423AD17868FEF768FDE7
:102F40002B4B1A687B689A4205D1294B1B68DB68BA
:102F5000274A136019E0264B1B68264A136010E0CD
:102F6000244B1B68DA687B689A4205D1214B1B68A9
:102F70007A68D268DA6008E01E4B1B68DB681D4A7D
:102F800013601C4B1B68002BEAD17B680022DA60BF
:102F9000194B01221A707B680A221A76174B1A689D
:102FA0007B68DA60154A7B68136002F03FFB19E02A
:102FB00018E0786800F02AF8114B1B7803F0100332
:102FC000002B0DD07B681A6D0E4B1B689A4207D1FF
:102FD0000D4B1B7843F01003DAB20B4B1A7001E073
:102FE00000E000BF00235BB218461837BD4680BD25
:102FF0005CC6002068C6002058C6002070C60020AD
:10300000100B00200C0B0020140B0020F0B58BB02F
:1030100000AF78600023BB61A54B1B7803F0100361
:10302000002B00F0BC827B68B3F860301A467B68E6
:103030009B6D13447B617B685A6D9E4B1B68D31A52
:10304000002B1BDB7B685A6D9A4B1B689A4206D19A
:103050007B689A6D984B1B68D31A002B0EDB7B683C
:103060009A6D954B1B689A4243D1944B1B68DB8940
:103070009AB27B68B3F860309A423AD98F4B1B689A
:10308000DB899AB27B68A3F860207B68B3F8622082
:103090008A4B1B68DB899BB29A4206D2874B1B681E
:1030A000DB899AB27B68A3F86220824B1A687B683E
:1030B0005A65814B1A687B689A657B68B3F8603003
:1030C000002B0DD17B6893F89130002B11D17B68D8
:1030D000002283F890207B68012283F8912008E089
:1030E0007B6893F89130002B03D07B68002283F833
:1030F0009120714B1A687B689B6CD31A002B5CDCA7
:103100007B680022A3F864206D4B1B88002B4BD1F9
:103110007B689B6D7A68B2F860201A447B699A429A
:1031200042D17B689B8E1BB2002B3DDB7B689A6C87
:10313000614B1B689A4237D10123BB617B6893F8CE
:1031400047300133DAB27B6893F847309A4207D9A7
:103150007B6893F847300133DAB27B6883F8472005
:103160007B6893F84730032B16D97B68B3F84C2063
:103170007B68DB8E13449AB27B68B3F84C309A427A
:1031800012D97B68B3F84C207B68DB8E13449AB26B
:103190007B68A3F84C2007E07B6893F84730032B4B
:1031A00002D178680CF030FCBB69002B40F0238121
:1031B0007B68002283F8472067E13F4B1A687B68F1
:1031C0009B6CD31A013B002BC0F211813A4B1A6859
:1031D0007B681B6DD31A002B00F309817B689B7FF2
:1031E00003F00403002B0CD07B689B7F23F00403C7
:1031F000DAB27B689A777B68B3F84E207B68A3F8D5
:103200004C207B68002283F846207B68B3F840306E
:103210001BB2DB109BB29AB27B68B3F842309BB210
:1032200013449BB29AB27B68A3F84420224B1B68DC
:103230009AB27B689B6C9BB2D31A9AB27B68A3F854
:1032400064207B68B3F866207B68B3F8643013446D
:103250009AB27B68A3F866207B68002283F8472037
:10326000154B1A687B689A647B681B7E032B45D9D3
:103270007B68B3F84C207B68B3F84E309A4221D279
:103280007B68B3F84C207B68DB8E13449AB27B6872
:10329000B3F84C309A4231D97B68B3F84C207B6844
:1032A000DB8E13449AB27B68A3F84C2068E000BF21
:1032B000100B0020080B00200C0B0020000B00203E
:1032C000120B00207B68B3F84C207B68DB8E19461C
:1032D0007B68DB8E03FB01F37968B1F84C1093FB3C
:1032E000F1F39BB213447B827B68B3F84C307A8A4B
:1032F0009A4203D97B687A8AA3F84C2040E07B6825
:103300001B6FFB607B681B6F1A687B681A67FB6822
:103310005B68184604F0F4FE7B68B3F86430002B59
:1033200013D0FB68DB689B899BB2184602F0B8FC9F
:10333000034603F00103002B07D07B68B3F8643029
:10334000013B9AB27B68A3F86420FB685B6818466F
:1033500004F0D6FE034619467B68B3F868208BB2AA
:10336000D31A9AB27B68A3F86820F868FEF7BAF916
:103370007B68B3F86830002B02D07B681B6F002B92
:103380007B681B6F002B22D07B681B6FDB685B6840
:10339000184602F0ADFC04467B681B6F1B891D4676
:1033A0007B681B6FDB689B899BB2184602F078FC38
:1033B000034603F00303002B14BF01230023DBB2F9
:1033C0002B44E218914B1B68D31A002B97DD7B68C6
:1033D0001B6F002B04D17B684FF6FF729A8602E0C8
:1033E0007B6800229A867B680022DA7703E07B689C
:1033F0000022A3F8642048E07B68DB6EFB607B68FA
:10340000DB6E1A687B68DA667B68DB6E002B03D1A3
:103410007B680022A3F86A20FB685B68184604F00A
:103420006FFE7B68B3F86430002B13D0FB68DB6859
:103430009B899BB2184602F033FC034603F001035C
:10344000002B07D07B68B3F86430013B9AB27B68ED
:10345000A3F86420FB685B68184604F051FE03463D
:1034600019467B68B3F868208BB2D31A9AB27B688E
:10347000A3F86820F868FEF735F97B68B3F8683080
:10348000002B02D07B681B6F002B7B68DB6E002B50
:1034900029D05E4B1C687B68DB6EDB685B68184676
:1034A00002F026FC05467B68DB6E1B891E467B68A6
:1034B000DB6EDB689B899BB2184602F0F1FB03468A
:1034C00003F00303002B14BF01230023DBB23344BA
:1034D0002B44E31A002B06DB4C4B1A687B681B6DF0
:1034E000D31A002B88DD7B689B6B002B57D07B6841
:1034F000DA6B464B1B68D31A002B50DA444B1B681F
:103500009AB27B689B6B9BB2D31A9BB2FB83FA8BFC
:103510007B68B3F840301BB2DB109BB29BB2D31A6E
:103520009BB2FB837B68B3F840309AB2FB8B1344A9
:103530009BB29AB27B68A3F84020B7F91E30002BEB
:1035400003DAFB8B5B429BB2FB83FA8B7B68B3F89D
:1035500042301BB29B109BB29BB2D31A9BB2FB832F
:103560007B68B3F842309AB2FB8B13449BB29AB299
:103570007B68A3F842207B68B3F840301BB2DB10B5
:103580009BB29AB27B68B3F842309BB213449BB2B1
:103590009AB27B68A3F844207B6800229A631D4B93
:1035A0001B88002B00F07C817B681B7E062B00F2C1
:1035B00077817B689A6A184B1B68D31A013B002BF2
:1035C00072DB7B689A6A134B1B881946124B1B6887
:1035D0000B44D31A0133002B66DC7B689A6A0E4BCE
:1035E0001B68D31A3B620D4B5B687B620B4B5B68BD
:1035F0005B891A463B6A9A4232DA084B5B681A8941
:103600003B6A9BB2D31A7B8119E000BF0C0B0020F0
:1036100060C60020120B0020080B0020F00A0020DA
:103620007B6A5B891A463B6A9B1A3B627B6A7A8992
:103630001A817B6A00225A817B6A1B687B627B6AE3
:103640005B891A463B6A9A42EADB3B6A9BB25B4261
:103650009BB29BB21BB2786A194604F091FC0BE056
:103660009D4B5A683B6A9BB25B429BB29BB21BB2BA
:103670001046194604F084FC974B1A89974B1B6837
:1036800099B27B689B6A9BB2CB1A9BB213449AB2E5
:10369000914B1A81904BDB687A68926A8F490A6075
:1036A0008E4A12685A600DE08C4B1A687B689B6AE0
:1036B000D31A002B06DA7B689B7F43F00203DAB251
:1036C0007B689A77854B1A687B689B6AD31A002BB4
:1036D000C0F2E180814B1A687B689B6A7968898DAA
:1036E0000B44D31A0133002B00F3D5807B689A6A10
:1036F0007A4B1B689A4240F0CA80774B1C89764B04
:10370000DB689B899BB2184602F0CAFA034603F0B5
:103710000303002B14BF01230023DBB29BB223441D
:103720009AB26F4B1A807B689A8D6D4B1B889A42B8
:103730005ED2694BDB689B899BB2184602F0B0FAF7
:10374000034603F00103002B1ED0634BDC68624B81
:10375000DB689B899BB29BB223F47C539DB25E4B8A
:10376000DB689B899BB2184602F09AFA034603F085
:103770003E039BB2184602F07DFA03469BB22A46EE
:1037800013439BB29BB2A3817B689A8D524B1A81E3
:10379000514BDB689B899BB2184602F081FA0346C5
:1037A00003F00203002B05D04B4B1B89013B9AB25F
:1037B000494B1A81484B5A68474B1B89104619469A
:1037C00004F07AFB444B1C89434BDB689B899BB21A
:1037D000184602F065FA034603F00303002B14BFFA
:1037E00001230023DBB29BB223449AB23C4B1A80E4
:1037F0003B4B1B881A46394B1B681A447B689A62FC
:103800007B689A8D364B1B88D31A9AB27B689A854F
:103810007868FDF7D3FB304B5B681B89002B06D023
:103820002D4B5B682F4A13602B4B00225A602A4BAA
:10383000DB689B899BB2184602F032FA034603F01C
:103840000103002B06D0284B1B7843F02003DAB28B
:10385000254B1A707B689B7F03F00103002B0ED071
:103860007B689B7F23F00103DAB27B689A777B68E1
:103870009B7F43F00203DAB27B689A770FE07B68A4
:103880009B7F43F00103DAB27B689A7707E07868A0
:103890000BF0B0FD03E078680BF0ACFD19E018E028
:1038A0000E4B1A687B689B6AD31A002B0ADB0B4B02
:1038B0001A687B689B6A7968898D0B44D31A013337
:1038C000002B06DD7B689B7F43F00203DAB27B6846
:1038D0009A772C37BD46F0BDF00A0020080B002077
:1038E000120B0020180B0020140B002080B586B0AE
:1038F00000AF78603D4B1B6814333B613B4B1B684A
:103900009B899BB2184602F0CBF903461B0B9BB276
:10391000052B68D9354B1B689B899BB2184602F072
:10392000BFF903461B0B9BB2053B9BB29B00FB817F
:103930000023FB8251E0FB8A3A6913441B787B73B6
:103940007B7B012B04D0022B06D0002B4AD033E026
:10395000FB8A0133FB8240E0FB8A01333A6913445E
:103960001B78042B04D1FB8A1A1DFB899A4200DDC7
:1039700039E0FB8A02333A6913441B781B0299B27F
:10398000FB8A03333A6913441B789BB20A461343FC
:103990009BB27B817B8940F2B452934204D87B89ED
:1039A000002B01D07A8901E040F2B4527B68DA86BC
:1039B000FB8A0433FB8210E0FB8A01333A6913442B
:1039C0001B78002B00D10EE0FB8A01333A691344C7
:1039D0001B789AB2FB8A1344FB82FA8AFB899A42CB
:1039E000A9D300E000BF1837BD4680BD000B002002
:1039F00080B483B000AF00237B8002E07B8801337A
:103A00007B807B880B2BF9D91B4B033323F00303FB
:103A10007B6000237B8027E07B88184A002142F8E6
:103A2000231000233B8015E07B88144A52F82320A2
:103A30007B681A607B8811497A6841F823207B886B
:103A40000F4A32F813301A467B6813447B603B8878
:103A500001333B807B880B4A32F813303A889A4214
:103A6000E2D37B8801337B807B880B2BD4D90C3746
:103A7000BD465DF8047B70474C0B00201C0B0020FA
:103A8000386C0108506C010880B485B000AF034663
:103A9000FB71FB790B2B01D900230EE0FB790A4A5D
:103AA00052F82330FB60FB68002B05D0FB79FA68E5
:103AB0001268054941F82320FB6818461437BD46B3
:103AC0005DF8047B704700BF1C0B002080B485B0FC
:103AD00000AF03463960FB713B68002B00D10CE05E
:103AE0003B68FB60FB79074A52F82320FB681A60A9
:103AF000FB790449FA6841F823201437BD465DF884
:103B0000047B70471C0B002080B582B000AF78604A
:103B10007B68002B13D07B681B68002B0BD07B6865
:103B20001B68184604F09CFA7B6800225A607B6888
:103B30005A687B681A6005207968FFF7C7FF083765
:103B4000BD4680BD80B485B000AFF860B9607A60D2
:103B5000FB68002B01D1F2231AE0BB68002B01D1D6
:103B6000F22315E07B68002B01D1F22310E0FB6803
:103B70005B68002B01D1FE230AE0FB685B685A6892
:103B8000BB681A60FB685B685A897B681A800023EF
:103B90005BB218461437BD465DF8047B704700BF22
:103BA00080B584B000AF78603F4B1B68002B05D018
:103BB0003D4B1B683D4A12681046984707F10C03BD
:103BC0003B48194601F058FEFB681B78052B69D865
:103BD00001A252F823F000BFF13B0008033C0008AB
:103BE000413C0008633C00087F3C0008973C00080B
:103BF000FB689B681B68FA68926804321046984715
:103C000051E0FB68DB6893F82D3003F06003002B74
:103C100008D0FB689A68FB68DB681046194603F019
:103C200031F907E0FB689A68FB68DB6810461946C3
:103C300008F0A6F9FB6808201946FFF747FF32E0B5
:103C4000FB689968FB68DA68FB681B6908461146DF
:103C50001A4601F05DFDFB6807201946FFF736FFA5
:103C600021E0FB68DA68FB681B691046194601F021
:103C7000BDFDFB6807201946FFF728FF13E0FB682E
:103C80009B68FA68D26810469847FB680720194677
:103C9000FFF71CFF07E0FB689B68FA68D2681046D4
:103CA000984700E000BF89E7B4350020B835002010
:103CB000BC35002080B584B000AF78603960154B0A
:103CC0001B68002B01D1FA231FE00820FFF7DCFE60
:103CD000F860FB68002B01D1FF2316E0FB6801228E
:103CE0001A70FB687A689A60FB683A68DA6009487B
:103CF000F96806F049F80346002B05D00820F9685A
:103D0000FFF7E4FEFF2300E000235BB21846103704
:103D1000BD4680BDBC35002080B588B000AF78605E
:103D20000E4B1B68002B13D000233B737B687B6119
:103D300007F10C030948194606F010F87B685B6828
:103D40000C331846002106F01DF97B681B7A00E051
:103D5000FA235BB218462037BD4680BDBC35002033
:103D600080B584B002AF7860396001F0DBFD0B4AAA
:103D70007B6813600A4A3B6813600A48052105F016
:103D8000B1FF032300930848084900224FF47A73D7
:103D900006F0AAF90837BD4680BD00BFB435002043
:103DA000B8350020BC350020686C0108A13B000834
:103DB00080B485B000AF0346FB71FB79012B06D0C0
:103DC000072B07D0002B08D10023FB7308E0022348
:103DD000FB7305E00623FB7302E00423FB7300BFC3
:103DE000FB7B18461437BD465DF8047B704700BF67
:103DF00080B582B000AF134B7B60134B3B6007E094
:103E00003B681A1D3A607A68111D796012681A6061
:103E10003B680E4A9342F3D30D480E494FF000021F
:103E20008842B8BF40F8042BFADBDFF82C000168A9
:103E300041F47001016006F02FFA01F007FA08372B
:103E4000BD4680BD406F0108000000207C090020B5
:103E50007C090020DC8B012088ED00E080B400AFFD
:103E6000FEE700BF80B485B000AF78600023FB6040
:103E70007B68FB6002E0FB68013BFB60FB68002B9A
:103E8000F9D11437BD465DF8047B704780B500AFAB
:103E90004FF00070012101F03FFB4FF00070002156
:103EA00001F03AFB80BD00BF80B483B000AF786002
:103EB0007B6801221A607B6800225A607B680022BE
:103EC0009A607B680022DA607B6800221A617B6856
:103ED0004FF480425A617B6800229A617B6800221D
:103EE000DA617B684FF400621A627B6800225A62D2
:103EF0007B6800229A627B680022DA627B6800227B
:103F00001A637B6800225A637B6800229A637B688D
:103F10000022DA637B6840221A647B6820225A649C
:103F20007B6800229A647B680022DA647B68002246
:103F30001A657B6800225A657B6800229A657B6857
:103F40000022DA657B6800221A667B6880225A6646
:103F50007B6800229A667B680022DA667B68002212
:103F60001A677B6800225A677B6800229A677B6821
:103F70000022DA677B684FF08062C3F880207B689C
:103F80004FF00072C3F884207B680022C3F88820B9
:103F90007B684FF40012C3F88C207B680022C3F8C2
:103FA00090207B680022C3F894207B680022C3F82D
:103FB00098207B680022C3F89C207B680022C3F80D
:103FC000A0207B684FF00072C3F8A4207B684FF4F8
:103FD0008032C3F8A8207B684FF48002C3F8AC207D
:103FE0007B684FF40052C3F8B0207B680022C3F80E
:103FF000B4207B680022C3F8B8200C37BD465DF8BA
:10400000047B704780B58CB000AF78600B467B8036
:104010000023BB620023FB6200233B62864B7B6272
:104020000023FB60854B1B69FB62FB6A23F01C03CA
:10403000FB6207F11003184601F04CF97B697B62C3
:104040007B6A7F4A934208D97B6A7E4A934204D8AE
:10405000FB6A43F00803FB6226E07B6A794A9342DD
:1040600008D97B6A784A934204D8FB6A43F00C0370
:10407000FB6219E07B6A744A934204D97B6A734AF3
:10408000934200D810E07B6A704A934208D97B6A59
:104090006F4A934204D8FB6A43F00403FB6203E0D7
:1040A000FB6A43F01003FB62644AFB6A13617B887E
:1040B000184600214FF4004200F096FD0346002B05
:1040C00001D10023AAE16348FFF7CCFE7B681B689F
:1040D000002B00F09B80FB680133FB607B88184657
:1040E000012100F031FD034603F00403002B03D14E
:1040F000FB68594A9342EED9FB68584A934201D172
:1041000000238BE10023FB607B88184600214FF4DD
:10411000805200F069FD0346002B01D100237DE1B0
:10412000FB680133FB607B881846012100F00CFD21
:10413000034603F02003002B03D1FB68464A934259
:10414000EED9FB68454A934201D1002366E1002382
:10415000FB607B8818461F2100F0F6FC0346BB621B
:10416000BB6A03F01C03043B142B4DD801A252F888
:1041700023F000BFFB410008094200080942000883
:1041800009420008DB410008094200080942000812
:1041900009420008094200080942000809420008D3
:1041A00009420008094200080942000809420008C3
:1041B00009420008EB4100080942000809420008D2
:1041C00009420008C94100087B684FF400621A6286
:1041D0007B684FF480425A6117E07B6800221A62C4
:1041E0007B684FF480425A610FE07B684FF40062B5
:1041F0001A627B6800225A6107E07B6800221A621B
:104200007B6800225A6100E000BF2DE07B681B6ADA
:10421000DB089AB27B685B695B089BB213439BB275
:104220007A88104600211A4600F0DEFC0346002B77
:1042300016D10023F2E000BF008793030080024004
:10424000FF2C3101BF0E1602FF869303FFE0F50538
:104250007FD1F008FFFF0F00FEFF0400FFFF040006
:104260006FF07F40FFF7FEFD6E4B1B68FB62FA6A42
:104270006D4B1340FB627B685A687B689B681A43EE
:104280007B68DB681A437B681B691A437B685B6940
:104290001A437B689B691A437B68DB691A437B6816
:1042A0001B6A1A437B685B6A1A437B689B6A1A43E2
:1042B0007B68DB6A1A437B681B6B1A437B685B6B0A
:1042C0001343FA6A1343FB62564AFB6A136055496B
:1042D0007B689A6B7B68DB6B1A437B681B6C1A43A9
:1042E0007B685B6C1A437B689B6C1A437B68DB6C56
:1042F0001A437B681B6D1A437B685B6D13434B60ED
:10430000484A7B689B6D9360464A7B68DB6DD3604F
:10431000444B9B69FB62FA6A4FF641731340FB62A0
:104320007B681B6E1A047B685B6E1A437B689B6E0E
:104330001A437B68DB6E1A437B681B6F1A437B68EA
:104340005B6F1343FA6A1343FB62364AFB6A93615D
:1043500034497B689A6F7B68DB6F1343CB61314BC9
:1043600003F5805318331B68FB62FA6A2F4B134026
:10437000FB627B68D3F880207B68D3F884301A43D3
:104380007B68D3F888301A437B68D3F88C301A43A3
:104390007B68D3F890301A437B68D3F894301A4383
:1043A0007B68D3F898301A437B68D3F89C301A4363
:1043B0007B68D3F8A0301343FA6A1343FB62194BAE
:1043C00003F580531833FA6A1A6016497B68D3F8EC
:1043D000A4207B68D3F8A8301A437B68D3F8AC30AC
:1043E0001A437B68D3F8B0301A437B68D3F8B430F3
:1043F0009B001A437B68D3F8B830134343F40002A0
:1044000001F580531A600749064B03F580531B687A
:1044100043F0800201F580531A60012318463037BB
:10442000BD4680BD008002400F8120FF233FDEF8A3
:1044300080B500AF012000F00DF800F021FB012055
:1044400000F024F8012000F02FFB012000F054FBC5
:1044500080BD00BF80B483B000AF0346FB71FB7921
:10446000002B06D0084A084B1B6843F00803136072
:1044700005E0054A044B1B6823F0080313600C3762
:10448000BD465DF8047B70470080024080B483B075
:1044900000AF0346FB71FB79002B06D0084A084B9E
:1044A0001B6843F00403136005E0054A044B1B68D6
:1044B00023F0040313600C37BD465DF8047B70479E
:1044C0000080024080B485B000AF786039603B68FE
:1044D00005331B781B023A68043212781343FB60E1
:1044E0007A68114B13441A46FB6813603B68033328
:1044F0001B781A063B6802331B781B041A433B687F
:1045000001331B781B0213433A6812781343FB6094
:104510007A68064B13441A46FB6813601437BD468D
:104520005DF8047B704700BF408002404480024039
:1045300090B486B000AF78600023FB6000233B613D
:1045400000237B610023BB6077E0BB680133BB6065
:10455000454B1B681B6803F40073002B16D0424BBD
:104560001B681B6803F48073002B0FD13F4B1B6843
:104570003D4A12681A603D4B1B6801229A603A4B13
:104580001B68DB681A46384B1A6056E0364B1B68CE
:104590001B6803F48073002B12D1334B1B681B681C
:1045A00003F40073002B0BD1304B1B689A68013267
:1045B0009A602D4B1B68DB681A462B4B1A603CE057
:1045C0002A4B1B68284A12685A60284B1B689A6855
:1045D00001329A60254B1B689B68012B04D1234B49
:1045E0001B68214A12681A601F4B1B681A68204B0F
:1045F00013401B0C043BFB601C4B1B689B68012B8E
:1046000005D91A4B1B681B689B683B6103E0164B7E
:104610001B689B683B61144B1B687B61124B1B68DA
:10462000DB681A46104B1A607B681C4607F10C03C6
:1046300093E8070084E8070010E00B4B1B681B6839
:10464000002B03DBBB68042B7FF67FAF7B681C4627
:1046500007F10C0393E8070084E80700786818372F
:10466000BD4690BC704700BF84C60020F4E4002023
:104670000000FF3F80B487B000AF0346FB800023FB
:104680007B610023BB6000233B61514B1B681B68AF
:10469000002B01DA002395E04D4B1B68FB60FB8883
:1046A00040F2F452934217D9FB884A4AA2FB0323F3
:1046B0009B0A9BB27B61FB88464AA2FB0312920ACB
:1046C00040F2F45101FB02F29B1A9BB2002B05D081
:1046D0007B6901337B6101E001237B617B69012BF5
:1046E0001CD13B4B1B683A4A1268126842F0405298
:1046F0001A60374B1B68FA88C2F30C025A60344BBD
:104700001B68334A1268126842F000421A60304B4C
:104710001B68DB681A462E4B1A603DE000233B61A4
:1047200033E03B69002B07D1294B1B68284A1268EC
:10473000126842F080521A60FB6840F2F4525A60EC
:104740007B695A1E3B699A4213D1FB681B6843F090
:104750000052FB681A60FA887B691F4901FB03F36A
:10476000134403F2F453BB60BB68C3F30C02FB6851
:104770005A60FB681B6843F00042FB681A60FB68E4
:10478000DB68FB603B6901333B613A697B699A42B4
:10479000C7D30F4AFB681360104B03F580531433E3
:1047A0001B6803F00403002B0BD00C4B03F5805364
:1047B000143304221A60094B03F58053043300229A
:1047C0001A60012318461C37BD465DF8047B70470C
:1047D00088C600200BB002AC0CFAFFFF008002403C
:1047E00080B487B000AFF860B9607A6000237B6165
:1047F000214AFB68136000237B612AE07B695B012F
:10480000FA6813443B613B694FF000421A603B6910
:1048100044F2F4525A607B6940F2F45202FB03F313
:10482000BA6813441A463B699A607B685A1E7B69D2
:104830009A4208D97B6901335B01FA6813441A462E
:104840003B69DA6002E0FA683B69DA607B69013350
:104850007B617A697B689A42D0D3084BFA6803F58A
:1048600080530C331A60064B064A1A601C37BD464B
:104870005DF8047B704700BF84C6002000800240C2
:10488000F4E4002078C6002080B487B000AFF86060
:10489000B9607A6000237B611D4AFB6813600023C6
:1048A0007B6126E07B695B01FA6813443B613B69ED
:1048B0004FF480121A607B6940F2F45202FB03F35A
:1048C000BA6813441A463B699A607B685A1E7B6932
:1048D0009A4208D97B6901335B01FA6813441A468E
:1048E0003B69DA6002E0FA683B69DA607B690133B0
:1048F0007B617A697B689A42D4D3064BFA6803F5E8
:10490000805310331A601C37BD465DF8047B704736
:1049100088C600200080024080B483B000AF786079
:1049200039607B681A683B681A437B681A600C37E9
:10493000BD465DF8047B704780B483B000AF7860FB
:104940000B46FB70FB78002B06D07B685B6823F07E
:1049500000427B685A6005E07B685B6843F0004278
:104960007B685A600C37BD465DF8047B704700BF1A
:1049700080B400AF0649064B03F580531B6843F033
:10498000010201F580531A60BD465DF8047B704753
:104990000080024080B483B000AF0023FB710A4B5B
:1049A00003F580531B6803F00103002B02D00123A1
:1049B000FB7101E00023FB71FB7918460C37BD4603
:1049C0005DF8047B704700BF0080024080B485B072
:1049D00000AF78600023FB730A4B03F58053143358
:1049E0001A687B681340002B02D00123FB7301E09F
:1049F0000023FB73FB7B18461437BD465DF8047B30
:104A0000704700BF0080024080B483B000AF786080
:104A10000B46FB70FB78002B0CD00F490E4B03F5B7
:104A200080531C331A687B681A4301F580531C338A
:104A30001A600CE00849084B03F580531C331A68D0
:104A40007B68DB431A4001F580531C331A600C3736
:104A5000BD465DF8047B70470080024080B483B09F
:104A600000AF7860054B03F5805314337A681A6001
:104A70000C37BD465DF8047B704700BF00800240E4
:104A800080B400AF0749074B03F5805318331B6808
:104A900043F4801201F5805318331A60BD465DF867
:104AA000047B70470080024080B483B000AF0346AF
:104AB000FB71FB79002B0CD00E490E4B03F5805394
:104AC00018331B6843F4005201F5805318331A6001
:104AD0000BE00849074B03F5805318331B6823F498
:104AE000005201F5805318331A600C37BD465DF84B
:104AF000047B70470080024080B483B000AF03465F
:104B0000FB71FB79002B0CD00E490E4B03F5805343
:104B100018331B6843F0020201F5805318331A6002
:104B20000BE00849074B03F5805318331B6823F04B
:104B3000020201F5805318331A600C37BD465DF848
:104B4000047B70470080024080B485B000AF03460C
:104B50000A46FB801346BB800023FB600023BB603A
:104B60001E4B1B69FB60FB6803F01C03FB60FB88AA
:104B7000DB029BB2FA681343FB60BB889B0103F422
:104B8000F863FA681343FB60FB6823F00203FB60E1
:104B9000FB6843F00103FB60104AFB681361BB68CC
:104BA0000133BB600D4B1B69FB60FB6803F0010325
:104BB000002B03D0BB680A4A9342F0D9BB68094A6C
:104BC000934201D1002302E0044B5B699BB218467B
:104BD0001437BD465DF8047B704700BF008002407B
:104BE000FEFF0400FFFF040080B485B000AF034661
:104BF000FB800B46BB8013467B800023FB600023B9
:104C0000BB601F4B1B69FB60FB6803F01C03FB6070
:104C1000FB88DB029BB2FA681343FB60BB889B01F5
:104C200003F4F863FA681343FB60FB6843F0020384
:104C3000FB60FB6843F00103FB60114A7B88536112
:104C40000F4AFB681361BB680133BB600C4B1B69E7
:104C5000FB60FB6803F00103002B03D0BB68094A2B
:104C60009342F0D9BB68084A934201D1002300E087
:104C7000012318461437BD465DF8047B704700BF1A
:104C800000800240FEFF0400FFFF040080B485B0F6
:104C900000AF786039607B68FB607B68B3F1FF3FF1
:104CA00002D07B68002B01D1012325E03B6893F8FB
:104CB0002D3003F00203002B01D100231CE03B68E0
:104CC0005A687B689A4201D1002315E0FA683B6874
:104CD0005B685A403B689B681340002B0BD13B68D4
:104CE0009B68DA437B681A403B689B68DB439A42C7
:104CF00001D1012300E0002318461437BD465DF8BA
:104D0000047B704780B584B000AF786039600023C1
:104D1000FB733B681B88052B24D17B6801331B7810
:104D20009BB21B02BB817B6802331B789AB2BB89A2
:104D30001343BB81BB890133BB817B68DA1CBB8910
:104D4000104619460122012309F082F90346FB723D
:104D5000FB7A002B08D0FB7A1846FFF729F80346A8
:104D6000FB7301E00323FB73FB7B18461037BD4642
:104D700080BD00BF80B584B000AF7860396000238B
:104D8000FB733B681B88052B4AD97B6801331B7872
:104D90009BB21B02BB817B6802331B789AB2BB8932
:104DA0001343BB81BB890133BB817B6803331B7811
:104DB0009BB21B027B817B6804331B789AB27B8990
:104DC00013437B817B685B797B727B89002B23D0CB
:104DD0007B89782B20D87B89DBB25B00DBB27A7AC7
:104DE0009A4219D17B68991DBA897B890846114678
:104DF0001A46012309F02CF903463B723B7A002B3B
:104E000006D03B7A1846FEF7D3FF0346FB7306E055
:104E10003B6805221A8002E00323FB7302E001E0F5
:104E20000323FB73FB7B18461037BD4680BD00BFD4
:104E300080B586B000AF786039600023FB753B68B1
:104E40001B88052B5FD17B6801331B789BB21B024B
:104E5000BB827B6802331B789AB2BB8A1343BB8246
:104E6000BB8A0133BB827B6803331B789BB21B0276
:104E70007B827B6804331B787B827B8A002B3ED04D
:104E80007B8A7D2B3BD87B68FB603B6800221A80C5
:104E9000FB685A1CFA6003221A703B681B880133B6
:104EA0009AB23B681A80FB685A1CFA607A8AD2B2BE
:104EB0005200D2B21A703B681B8801339AB23B6829
:104EC0001A80BA8A7B8AF86811461A46002309F0CC
:104ED000BFF80346FB72FB7A002B06D0FB7A18461C
:104EE000FEF766FF0346FB750CE03B681A887B8A79
:104EF0005B009BB213449AB23B681A8002E0032322
:104F0000FB7502E001E00323FB75FB7D18461837B3
:104F1000BD4680BD80B586B000AF786039600023A3
:104F2000FB753B681B88092B40F29F807B6801332F
:104F30001B789BB21B02BB827B6802331B789AB240
:104F4000BB8A1343BB82BB8A0133BB827B680333BA
:104F50001B789BB21B027B827B6804331B789AB25E
:104F60007B8A13437B827B6805331B789BB21B02D1
:104F70003B827B6806331B789AB23B8A13433B82A1
:104F80003B8A01333B827B6807331B789BB21B0251
:104F9000FB817B6808331B789AB2FB891343FB8142
:104FA0007B685B7A7B737B8A002B5CD07B8A7D2B52
:104FB00059D8FB89002B56D0FB89792B53D8FB8914
:104FC0005A007B7B9A424ED17B6803F10A013A8AF0
:104FD000FB89084611461A46012309F039F80346B1
:104FE000BB75BB7D002B33D17B68BB603B68002267
:104FF0001A80BB685A1CBA6017221A703B681B885B
:1050000001339AB23B681A80BB685A1CBA607A8A2C
:10501000D2B25200D2B21A703B681B8801339AB2E6
:105020003B681A80BA8A7B8AB86811461A46002300
:1050300009F00EF80346BB75BB7D002B08D13B6819
:105040001A887B8A5B009BB213449AB23B681A8031
:10505000BB7D002B06D0BB7D1846FEF7A9FE03469C
:10506000FB7502E001E00323FB75FB7D1846183752
:10507000BD4680BD80B489B000AF786039607B6880
:10508000FB610023FB8100237B61FB6903F00103CB
:105090003B613B69002B0DD03B68002B0ADD07F11B
:1050A0000E030133FA69511CF96112781A703B68DA
:1050B000013B3B60FB69BB610AE0BB699A1CBA61BA
:1050C0001B881A467B6913447B613B68023B3B604B
:1050D0003B68012BF1DC3B68002B04DD07F10E037C
:1050E000BA6912781A70FB891A467B6913447B618E
:1050F0007B691A0C7B699BB213447B617B691A0C38
:105100007B699BB213447B613B69002B08D07B69B0
:105110001B029AB27B6903F47F431B0A13437B6132
:105120007B699BB218462437BD465DF8047B704707
:1051300080B582B000AF78600B467B807B88786852
:105140001946FFF797FF0346DB439BB21846083723
:10515000BD4680BD80B586B000AF786000237B611E
:105160000023FB737B683B6129E03B695A683B691C
:105170005B8910461946FFF77DFF03461A467B6997
:1051800013447B617B691A0C7B699BB213447B617E
:105190003B695B8903F001039BB2002B0CD0FB7BC6
:1051A000C3F10103FB737B691B029AB27B6903F4B1
:1051B0007F431B0A13437B613B691B683B613B696F
:1051C000002BD2D1FB7B002B08D07B691B029AB24B
:1051D0007B6903F47F431B0A13437B617B699BB2AA
:1051E000DB439BB218461837BD4680BD90B589B0E9
:1051F00004AF00200021FEF7B3FD0F4BFB606FF002
:105200007F43BB600D4B7B6007F10C0107F1080287
:105210003C1D002300930A4B01930A4B02930A485A
:10522000234603F043FB084803F01AFC064803F04A
:1052300025FC1437BD4690BDC0A86D96C0A86D8CE6
:1052400039600008B53C00085C03012080B584B0DB
:1052500004AF00F079FBFFF7C9FF06F037FB03F05E
:10526000A5F807F0DDFD012300930023019300233F
:10527000029300230393064806494FF4007200236B
:1052800001F07EFE01F04EFF00231846BD4680BDB2
:10529000FDE30008806C010880B485B000AF786041
:1052A00039600023FB600A4B9B68FB60FB6823F0BE
:1052B000EC63FB607A683B681343FA681343FB6056
:1052C000034AFB6893601437BD465DF8047B704762
:1052D0000038024080B489B000AF78600023BB6121
:1052E00000237B610023FB6102233B610023FB6001
:1052F0000223BB60484B9B6803F00C03BB61BB6996
:10530000042B07D0082B09D0002B3FD17B68434AE0
:105310001A603FE07B68424A1A603BE03E4B5B68A4
:1053200003F480039B0DFB603B4B5B6803F03F0382
:10533000BB60FB68002B0DD0394ABB68B2FBF3F2AF
:10534000354B596847F6C0730B409B0903FB02F3CA
:10535000FB610CE0314ABB68B2FBF3F22E4B59689B
:1053600047F6C0730B409B0903FB02F3FB612A4B1A
:105370005B6803F440331B0C01335B003B61FA694B
:105380003B69B2FBF3F27B681A6003E07B68234A57
:105390001A6000BF204B9B6803F0F003BB61BB6940
:1053A0001B09BB611F4ABB6913441B78DBB27B61DD
:1053B0007B681A687B69DA407B685A60164B9B6889
:1053C00003F4E053BB61BB699B0ABB61154ABB692F
:1053D00013441B78DBB27B617B685A687B69DA40D7
:1053E0007B689A600C4B9B6803F46043BB61BB69AC
:1053F0005B0BBB610B4ABB6913441B78DBB27B615F
:105400007B685A687B69DA407B68DA602437BD467E
:105410005DF8047B704700BF003802400024F400B0
:1054200000127A008C00002080B483B000AF786056
:105430000B46FB70FB78002B06D00949084B1A6B12
:105440007B6813430B6306E00549054B1A6B7B68C9
:10545000DB4313400B630C37BD465DF8047B70479C
:105460000038024080B483B000AF78600B46FB7018
:10547000FB78002B06D00949084B5A6B7B68134315
:105480004B6306E00549054B5A6B7B68DB431340D1
:105490004B630C37BD465DF8047B70470038024013
:1054A00080B483B000AF78600B46FB70FB78002BB4
:1054B00006D00949084B1A6C7B6813430B6406E05D
:1054C0000549054B1A6C7B68DB4313400B640C37B2
:1054D000BD465DF8047B70470038024080B483B05D
:1054E00000AF78600B46FB70FB78002B06D00949B3
:1054F000084B5A6C7B6813434B6406E00549054B27
:105500005A6C7B68DB4313404B640C37BD465DF837
:10551000047B70470038024080B483B000AF7860ED
:105520000B46FB70FB78002B06D00949084B1A6923
:105530007B6813430B6106E00549054B1A697B68DC
:10554000DB4313400B610C37BD465DF8047B7047AD
:105550000038024080B400AFBD465DF8047B704760
:1055600080B400AFFEE700BF80B400AFFEE700BF2D
:1055700080B400AFFEE700BF80B400AFFEE700BF1D
:1055800080B400AFBD465DF8047B704780B582B043
:1055900000AF00237B604020FFF718FA0346012B81
:1055A00006D10F4B1A683B1D1046194605F078FCD2
:1055B0004020FFF753FA4FF48030FFF74FFA7B6833
:1055C000002B0AD07B68002B07D0064B4FF080528F
:1055D0001A60BFF34F8FBFF36F8F0837BD4680BD92
:1055E000D035002004ED00E080B582B000AF7860D7
:1055F000FBF7D4F9094B1B68002B03D1084B1B6840
:10560000002B05D0FA200749002200F081F802E0C3
:10561000054B00221A600837BD4680BD5CC60020DD
:1056200070C60020E9550008C435002080B500AFE1
:105630000A4B1B68002B0FD1094B1B68002B03D1B1
:10564000084B1B68002B07D0044B01221A60FA207C
:105650000549002200F05CF880BD00BFC435002081
:105660005CC6002070C60020E955000880B582B0F5
:1056700000AF786000F024FE41F288300349002238
:1056800000F046F80837BD4680BD00BF6D560008E3
:1056900080B582B000AF786007F0DCFD4EF6602088
:1056A0000349002200F034F80837BD4680BD00BF32
:1056B0009156000880B582B000AF786007F0F8FD21
:1056C0004FF4FA700349002200F022F80837BD4673
:1056D00080BD00BFB556000880B500AF41F28830EC
:1056E0000849002200F014F84EF660200649002216
:1056F00000F00EF84FF4FA700449002200F008F8A8
:1057000080BD00BF6D56000891560008B5560008D0
:1057100080B586B000AFF860B9607A600920FEF706
:10572000B3F938613B69002B00D15AE03B69002294
:105730001A603B69BA689A603B697A68DA603B69CB
:10574000FA685A60284B1B68002B03D1264A3B6934
:10575000136046E0244B1B685A68FB689A420FD9D5
:10576000214B1B68204A12685168FA688A1A5A60ED
:105770001D4B1A683B691A601B4A3B69136030E095
:10578000194B1B687B6129E03B695A687B695B6840
:10579000D21A3B695A607B691B68002B06D07B6973
:1057A0001B685A683B695B689A4214D97B691B681D
:1057B000002B08D07B691B687A69126851683A69C6
:1057C00052688A1A5A607B691A683B691A607B6959
:1057D0003A691A6005E07B691B687B617B69002B75
:1057E000D2D11837BD4680BDC035002080B584B009
:1057F00000AF786039601F4B1B68002B00D136E08A
:105800001C4B1B68BB600023FB602CE0BB689A68E4
:105810007B689A4222D1BB68DA683B689A421DD104
:10582000FB68002B04D1BB681B68124A136003E0BD
:10583000BB681A68FB681A60BB681B68002B08D03D
:10584000BB681B68BA6812685168BA6852680A4433
:105850005A600920B968FEF739F908E0BB68FB60B7
:10586000BB681B68BB60BB68002BCFD100BF103783
:10587000BD4680BDC035002080B586B000AF7860E1
:105880003960274B1B68002B06D1786839680022E5
:1058900004F0B0FA786140E0214B1B685B68002B94
:1058A00009D01F4B1B685B68786839681A4604F09A
:1058B000A1FA786102E04FF0FF337B617B69B3F1BD
:1058C000FF3F17D1164B1B683B613B691B68144AAD
:1058D00013603B699B68FB603B69DB68BB60092028
:1058E0003969FEF7F3F8FB68002B02D0FB68B86853
:1058F0009847C6E70A4B1B685A687B699A4208D9E1
:10590000074B1B68064A126851687A698A1A5A60FE
:1059100003E0034B1B6800225A601837BD4680BD68
:10592000C035002080B500AF04F0D8FBFAF798FC32
:10593000FEF75EF802F0B4FF05F0F6FFFBF728F87B
:10594000FFF7CAFE80BD00BF80B500AF00F070F861
:1059500000F006F900F008F8024B1B68002B00D19C
:10596000FEE780BDC835002080B5B0B000AF4FF075
:1059700060600121FFF758FDFEF788FAFEF7F8FF97
:1059800000BFFFF707F80346012BFAD03B1D18466E
:10599000FEF78AFA01237B6000233B624FF4007319
:1059A000FB6200233B630023FB630023BB640023F3
:1059B0003B6500237B650023BB650023C7F884306B
:1059C0004FF00073C7F888304FF40013C7F89030D9
:1059D0000023C7F898300023C7F89C300423C7F889
:1059E000A4304FF00073C7F8A8304FF48033C7F8E5
:1059F000AC304FF48003C7F8B0304FF40053C7F811
:105A0000B4304FF48043C7F8BC303B1D1846012129
:105A1000FEF7F8FA0246044B1A6004480121FEF72B
:105A2000F3FFC037BD4680BDC835002040000100EF
:105A300080B584B000AF07200121FFF7F5FC4FF4DB
:105A400080400121FFF74AFD0120FAF79DFB8623E4
:105A50007B6003237B7202233B720023BB72002313
:105A6000FB723B1D3A48194604F04AF838480121B8
:105A70000B2204F0EFF8364802210B2204F0EAF87A
:105A8000334807210B2204F0E5F84FF470537B6094
:105A90003B1D3048194604F033F82E480A210B22EA
:105AA00004F0D8F82B480B210B2204F0D3F8294836
:105AB0000C210B2204F0CEF826480D210B2204F015
:105AC000C9F832237B603B1D2348194604F018F8BF
:105AD000214801210B2204F0BDF81F4804210B22AC
