:020000040800F2
:10000000007A01200D440008A95A0008B55A0008DA
:10001000BD5A0008C55A0008CD5A0008000000006B
:10002000000000000000000000000000D55A000899
:10003000E15A000800000000ED5A0008F95A0008D3
:1000400069440008694400086944000869440008DC
:1000500069440008694400086944000869440008CC
:1000600069440008694400086944000869440008BC
:1000700069440008694400086944000869440008AC
:1000800069440008694400080D8A000869440008B2
:10009000694400086944000869440008694400088C
:1000A000694400086944000869440008694400087C
:1000B000694400086944000869440008694400086C
:1000C000694400086944000869440008694400085C
:1000D000694400086944000869440008694400084C
:1000E000694400086944000869440008694400083C
:1000F000694400086944000869440008694400082C
:10010000694400086944000869440008694400081B
:10011000694400086944000869440008694400080B
:1001200071890008694400086944000869440008AE
:1001300069440008694400086944000869440008EB
:1001400069440008694400086944000869440008DB
:1001500069440008694400086944000869440008CB
:1001600069440008694400086944000869440008BB
:1001700069440008694400086944000869440008AB
:10018000694400086944000880B483B000AF786017
:10019000034A7B6813600C37BD465DF8047B7047EB
:1001A000DC00274280B485B000AF7860294B1B6823
:1001B0007A6812881344FB607A68FB689A421FD001
:1001C000FB681B79002B1BD1234B1B68FA689A42F2
:1001D00016D0224B1A68FB689A4202D11F4A7B68EC
:1001E0001360FB681A887B681A801A4B1B68FA68D0
:1001F000128813447A6817490968521A92B25A80D1
:10020000144B1B687A6852881344BB60BA687B68D9
:100210009A421AD0BB681B79002B16D10F4B1A6873
:100220007B689A4202D10D4ABB6813607B681A88CA
:10023000BB681A80074B1B687A6812881344BA6837
:1002400004490968521A92B25A801437BD465DF8C3
:10025000047B7047B4110020B8110020BC110020AD
:1002600080B483B000AF1A4B033323F003031A4664
:10027000184B1A60174B1B687B607B684FF4006259
:100280001A807B6800225A807B6800221A71114B09
:100290001B6803F50063104A13600F4B1B680122B3
:1002A0001A710D4B1B684FF400621A800A4B1B68D1
:1002B0004FF400625A80094B01221A70054B1B68EB
:1002C000074A13600C37BD465DF8047B704700BFDA
:1002D000A0090020B4110020B8110020C011002096
:1002E000BC11002080B584B000AF78607B68002B23
:1002F00000D11BE00F4B1B687A689A4204D30E4B67
:100300001B687A689A4200D310E07B68083BFB6068
:10031000FB6800221A71094B1B68FA689A4202D2E4
:10032000064AFB681360F868FFF73CFF1037BD46CC
:1003300080BD00BFB4110020B8110020BC11002006
:1003400080B487B000AF78600B467B807B88033336
:100350009BB223F003037B807B880B2B01D80C23FB
:100360007B807B88B3F5006F01D9002396E04E4B6C
:100370001B687A689A4204D34C4B1B687A689A428D
:1003800001D37B688AE07B68083B7B617B69464AD6
:1003900012689B1A7B827B691A887B8AD31A9BB26C
:1003A000083B3B827A883B8A9A4201D9002375E058
:1003B0007A883B8A9A4201D17B686FE03A4B1B688E
:1003C0007A6912881344FB60FB681B79002B32D1D9
:1003D000FB681B887B817A8A7B8813449BB2083335
:1003E0003B81334B1A68FB689A4205D12E4B1A6841
:1003F0003B8913442E4A13602B4B1A683B891344E4
:10040000FB60FB6800221A71FB687A891A80FB681E
:100410007A8A5A807B693A891A80FB681B88B3F50F
:10042000006F07D0204B1B68FA68128813443A8982
:100430005A8032E031E07B8803F114023B8A9A4211
:100440002BD87A8A7B8813449BB208333B81164BA6
:100450001A683B891344FB60154B1B68FA689A4283
:1004600002D2134AFB681360FB6800221A717B6991
:100470001A88FB681A80FB687A8A5A807B693A89F5
:100480001A80FB681B88B3F5006F06D0064B1B680B
:10049000FA68128813443A895A807B6818461C37D8
:1004A000BD465DF8047B7047B4110020B8110020F0
:1004B000BC11002080B487B000AF0346FB80FB88EE
:1004C000002B01D100238AE0FB8803339BB223F089
:1004D0000303FB80FB880B2B01D80C23FB80FB88DC
:1004E000B3F5006F01D9002379E0404B1B681A4631
:1004F0003F4B1B68D31AFB826AE03D4B1A68FB8AAC
:1005000013443B613B691B79002B5BD13B691B8822
:100510001A46FB8AD31AA3F10802FB889A4251D3E8
:100520003B691B881A46FB8AD31AA3F10802FB8891
:1005300014339A4227D3FA8AFB8813449BB20833B8
:10054000FB812B4B1A68FB891344BB60BB680022FC
:100550001A713B691A88BB681A80BB68FA8A5A808C
:100560003B69FA891A803B6901221A71BB681B88B2
:10057000B3F5006F0AD01E4B1B68BA68128813448B
:10058000FA895A8002E03B6901221A71174B1B68F5
:100590003A699A4213D107E0154B1B68134A126857
:1005A00012881344114A1360104B1B681B79002BEF
:1005B00005D00E4B1A680F4B1B689A42ECD13B6971
:1005C00008330CE00A4B1A68FB8A13441B88FB8231
:1005D000FA8AFB88C3F500639A428EDB0023184633
:1005E0001C37BD465DF8047B704700BFBC1100207E
:1005F000B4110020B811002080B584B000AF0346CC
:10060000FB800023FB73FB88184609F0E3FA0346DE
:10061000FB73FB7B002B03D0144B01221A701FE0ED
:1006200001F07CF90346002B02D10323FB7317E092
:100630000F4B104A1A60104B104A1A60104B114AA7
:100640001A60114B114A1A60114B00221A60114BAB
:1006500001221A70104B02221A70044B01221A70E8
:10066000FB7B18461037BD4680BD00BF0000002050
:10067000CC110020019C0008D01100200D9C000826
:10068000D4110020199C0008C81100208D9C00087E
:10069000D8110020C4110020C511002080B582B0FF
:1006A00000AF0023FB71094B1B78012B06D1084BCF
:1006B0001B689847054B00221A7001E00623FB7166
:1006C000FB7918460837BD4680BD00BF00000020FA
:1006D000CC11002080B582B000AF0023FB704F4BDF
:1006E0001B78002B01D0062393E0BB1C184601F0B9
:1006F00039F90346012B40F08B80BB78032B00F2C5
:10070000878001A252F823F0110800081907000899
:100710004D07000811080008414B1B684148424939
:10072000424A98470346FB70FB78002B0DD13D4BA6
:100730001A783F4B1B789A4203D03A4B1B78002B18
:1007400003D1022001F0F8F862E061E0364B1B684B
:100750001A78384B1A70384B01221A7000237B60CC
:1007600020E0364A7B6812F83330002B00D11CE0C1
:10077000324A7B6812F833202E4B1B789A420ED1F6
:100780002E4A7B68DB0013445B68274A12681046D8
:100790002649984703461A46274B1A7005E07B689E
:1007A00001337B607B680F2BDBDD1E4B1B78002B3E
:1007B0002DD0214B1B78002B1DD01C4B00221A8002
:1007C000194B1A68194B1B88591C88B217490880A5
:1007D0001344184A127862F07F02D2B21A70124B98
:1007E0001A68124B1B88591C88B2104908801344A0
:1007F000114A12781A70124B1B680D4A10780A4A77
:1008000011680A4A128898470346FB70FFE700BF49
:10081000002318460837BD4680BD00BF00000020F9
:10082000D4110020DC110020E0110020E411002090
:10083000C4110020E6110020E71100200400002070
:10084000C811002080B586B000AF78603960002301
:10085000BB753B681B88052B6ED17B6801331B7809
:100860009BB21B02BB827B6802331B789AB2BB8AA5
:100870001343BB82BB8A0133BB827B6803331B7883
:100880009BB21B027B827B6804331B789AB27B8A03
:1008900013437B827B8A002B4AD07B8AB3F5FA6FA5
:1008A00046D27B68FB603B6800221A80FB685A1CBA
:1008B000FA6002221A703B681B8801339AB23B68C7
:1008C0001A807B8A03F00703002B06D07B8ADB08A3
:1008D0009BB2DBB20133FB7503E07B8ADB089BB282
:1008E000FB75FB685A1CFA60FA7D1A703B681B881E
:1008F00001339AB23B681A80BA8A7B8AF86811463B
:100900001A4609F03FFD0346FB72FB7A002B06D026
:10091000FB7A184603F05AFD0346BB750BE03B68B3
:100920001A88FB7D9BB213449AB23B681A8002E09E
:100930000323BB7502E001E00323BB75BB7D1846B2
:100940001837BD4680BD00BF80B500AF00F03AFD4E
:10095000074B1B780133DAB2054B1A70044B1B7836
:1009600003F00103002B01D000F042FB80BD00BF6B
:10097000E811002080B584B000AF78607B681B7CF4
:10098000072B00F28B8001A252F823F0AD0900087A
:100990000F0A0008290A0008430A0008610A000833
:1009A0009D0A00089D0A00087F0A00080023FB73C7
:1009B000454B1A687B689A4205D1434B1B68DB683C
:1009C000414A136019E0404B1B68404A136010E035
:1009D0003E4B1B68DA687B689A4205D13B4B1B682B
:1009E0007A68D268DA6008E0384B1B68DB68374AFF
:1009F0001360364B1B68002BEAD17B680022DA605B
:100A00000220796802F016FF00237B604BE0002390
:100A1000FB732F48796800F0F9FE0320796802F033
:100A200009FF00237B603EE00023FB7329487968BF
:100A300000F0ECFE0220796802F0FCFE00237B60EF
:100A400031E07868012109F045FE0346FB7397F910
:100A50000F30002B03D17B6805221A7423E022E0BB
:100A60007868012109F036FE0346FB7397F90F30D1
:100A7000002B03D17B6805221A7414E013E0786818
:100A8000012109F027FE0346FB7397F90F30002B75
:100A900003D17B6809221A7405E004E00023FB738C
:100AA00000237B6000BF7B68002B06D097F90F30D6
:100AB000002B02D178680AF04FF9FB7B5BB2184635
:100AC0001037BD4680BD00BF983000209430002014
:100AD000903000208830002090B58DB002AF786053
:100AE00039607B681B7C0A2B08D13148796800F09B
:100AF0008DFE0220796802F09DFE55E07B689B6DBB
:100B00007B627B685B6A3B627B68002B02D07B6800
:100B10001B6800E00023FB607B680433002B02D0DD
:100B20007B685B6800E000233B617B681B8BFB8379
:100B30007B681B8CBB837B68D3F89030BB617B6880
:100B40005B697B611B48796800F060FE7B689B6F86
:100B5000002B04D07B689B6F184600F093FC7B68E9
:100B60005B6F002B04D07B685B6F184600F08AFC3B
:100B70000220796802F05EFEBB69002B04D0BB69DD
:100B800078696FF0040198473B68002B0CD007F19F
:100B90000C0207F11004FB8B0093BB8B0193786A66
:100BA000396A23460AF0DEFA2C37BD4690BD00BFF5
:100BB0009C3000208830002080B586B000AFF860FF
:100BC000B9601346FB80FB681B7C002B01D0F3232C
:100BD000A2E0FB88002B03D100F0B4F90346FB80B0
:100BE000504B1B687B611DE07B691B8BFA889A4226
:100BF00015D17B69002B10D07B691B68002B0CD0B2
:100C0000BB68002B09D0BB681B68002B05D07B6933
:100C10001A68BB681B689A4201D1F5237CE07B69A6
:100C2000DB687B617B69002BDED13F4B1B687B61FE
:100C30001DE07B691B8BFA889A4215D17B69002BDA
:100C400010D07B691B68002B0CD0BB68002B09D02F
:100C5000BB681B68002B05D07B691A68BB681B68E2
:100C60009A4201D1F52357E07B69DB687B617B69A0
:100C7000002BDED12D4B1B687B611DE07B691B8B3C
:100C8000FA889A4215D17B69002B10D07B691B68CA
:100C9000002B0CD0BB68002B09D0BB681B68002B55
:100CA00005D07B691A68BB681B689A4201D1F5239D
:100CB00032E07B69DB687B617B69002BDED11C4BFA
:100CC0001B687B610FE07B691B8BFA889A4207D116
:100CD0007B691A68BB681B689A4201D1F5231BE047
:100CE0007B69DB687B617B69002BECD1BB68002BE7
:100CF00007D0BB681B68002B03D0FB68BA6810687C
:100D00001860FB68FA881A83084B1A68FB68DA6077
:100D1000064AFB68136000235BB218461837BD46CD
:100D200080BD00BF90300020883000209830002027
:100D30009C30002080B485B000AFF860B9601346E5
:100D4000FB71FB235BB218461437BD465DF8047B8C
:100D5000704700BF80B584B000AF78600B46FB7071
:100D60007B681B7C002B01D000236CE07B681B7C24
:100D7000012B01D17B6866E0032002F039FDF860A9
:100D8000FB68002B01D100235DE07B685A69FB689A
:100D90005A617B681A8BFB681A83FB6801221A74FC
:100DA0007B681A89FB681A81FB681B8943F0020380
:100DB0009AB2FB681A817B68DA7AFB68DA727B6820
:100DC0009A7AFB689A727B68002B02D07B681B685A
:100DD00000E00023FA6813601D4B1A687B689A4292
:100DE00005D11B4B1B68DB68194A136019E0184BCF
:100DF0001B68184A136010E0164B1B68DA687B68A2
:100E00009A4205D1134B1B687A68D268DA6008E011
:100E1000104B1B68DB680F4A13600E4B1B68002BDE
:100E2000EAD17B680022DA600220796802F002FDD4
:100E3000FB68094ADA61094B1A68FB68DA60074AFD
:100E4000FB681360FB6818461037BD4680BD00BFC5
:100E50009830002094300020350D0008903000209C
:100E600080B485B000AF78607B685B6A7A68128D69
:100E70001344FB607B68DB6A7A68128F40F2B451DE
:100E80008A4202D87A68128F01E040F2B4521344C9
:100E9000FA68D31A002B08DB7B681A8D7B685A85A9
:100EA0007B68DB6AFA68D31A15E07B685A6A7B684C
:100EB000DB6AD31A002B03DD7B6800225A8509E028
:100EC0007B68DB6A9AB27B685B6A9BB2D31A9AB280
:100ED0007B685A85002318461437BD465DF8047BAD
:100EE000704700BF80B584B000AF78600B467B8050
:100EF0007B681A8D7B8813449AB27B681A857B685D
:100F00001B8D40F66832934203D97B6840F6683205
:100F10001A857868FFF7A4FF0346FB60FB6840F280
:100F2000D92293420BDD7B6893F8223043F0020311
:100F3000DAB27B6883F82220786809F00DFF103759
:100F4000BD4680BD80B483B000AF254B1B88013304
:100F50009AB2234B1A80224B1B889BB21BB2002BE8
:100F600003DA1F4B4FF480521A801E4B1B687B60C4
:100F700009E07B681A8B1A4B1B889A4200D1E4E780
:100F80007B68DB687B607B68002BF2D1164B1B68AB
:100F90007B6009E07B681A8B114B1B889A4200D159
:100FA000D3E77B68DB687B607B68002BF2D10F4B5B
:100FB0001B687B6009E07B681A8B094B1B889A428F
:100FC00000D1C2E77B68DB687B607B68002BF2D1D5
:100FD000034B1B8818460C37BD465DF8047B7047F1
:100FE000B0000020883000209C300020903000208D
:100FF000B0B588B002AF00237B73994B1B680133F7
:10100000974A136000233B61964B1B687B6195E117
:101010000023FB730023BB737B691B7C022B08D16D
:101020007B6993F84A30062B03D1FB7B0133FB73BA
:1010300092E07B6993F84A300C2B03D1FB7B0133A0
:10104000FB7389E07B6993F89C30002B26D07B6989
:10105000D3F898305A1C7B69C3F898207B69D3F881
:1010600098307A6992F89C20013A7F498A5C9342D1
:1010700072D37B690022C3F898207B6993F89C3077
:10108000062B07D87B6993F89C300133DAB27B6971
:1010900083F89C2078690AF0D3F95DE07B69DB8EE8
:1010A0001BB2002B07DB7B69DB8E9BB201339BB24B
:1010B0009AB27B69DA867B699B6F002B4CD07B6987
:1010C000DA8E7B69B3F8483012B21BB29A4243DB26
:1010D0007B691B7C022B16D07B69B3F844301BB2B2
:1010E000DB109BB21AB27B69B3F846301BB21344D3
:1010F0007A6992F84A2011465C4A525C93409AB24F
:101100007B69A3F848207B690022DA867B69B3F803
:101110005C207B69B3F85230934228BF13467B8131
:101120007B895B089AB27B69A3F854207B69B3F88A
:1011300054207B691B8F9A4206D27B691B8F5B0010
:101140009AB27B69A3F854207B691A8F7B69A3F854
:10115000522078690AF07EF87B691B7C062B09D146
:101160003F4B1A687B691B6BD31A282B02D9FB7B78
:101170000133FB737B691B8903F00803002B41D00B
:101180007B691B7C042B03D07B691B7C072B39D12B
:10119000334B1A687B691B6BD21A7B69D3F8943086
:1011A00003F5242303F6B8433149A1FB03135B097C
:1011B0009A4206D9FB7B0133FB73BB7B0133BB73C4
:1011C00020E0274B1A687B691B6BD21A7B69D3F826
:1011D00094107B6993F89D301846264B03FB00F36F
:1011E0000B442349A1FB03135B099A420AD978698E
:1011F0000AF0F8F87B6993F89D300133DAB27B6925
:1012000083F89D207B691B7C032B09D1144B1A6842
:101210007B691B6BD31A282B02D9FB7B0133FB7331
:101220007B691B7C092B09D10D4B1A687B691B6BF1
:10123000D31AF02B02D9FB7B0133FB73FB7B002B12
:101240004AD0786900F0B2FA3B69002B14D03B69B0
:10125000002B11D07B69DA683B69DA6010E000BFCF
:101260008C30002088300020B8210108A821010816
:10127000D34D6210F82401007B69DB684E4A13608D
:101280007B69D3F89030002B08D07B69D3F890307D
:101290007A69526910466FF004019847BB7B002BB6
:1012A00010D07B69986D7B69596A7D697B691C1DCB
:1012B0007B691A8B7B691B8C009201932A4623461B
:1012C00009F050FF7B69DB687B600220796902F0DE
:1012D000B1FA7B687B6131E07B6993F8343001338C
:1012E000DAB27B6983F834207B6993F834207B6918
:1012F00093F835309A421CD37B69002283F834205E
:101300007B69D3F88C30002B0AD07B69D3F88C3002
:101310007A69526910467969984703467B7301E000
:1013200000237B7397F90D30002B02D1786909F007
:1013300013FD7B693B617B69DB687B617B69002B0B
:101340007FF466AE00233B611C4B1B687B612CE085
:101350000023FB731A4B1A687B691B6BD31AF02BA3
:1013600002D9FB7B0133FB73FB7B002B18D0786920
:1013700000F01CFA3B69002B04D07B69DA683B69FA
:10138000DA6003E07B69DB680C4A13607B69DB6829
:101390007B600220796902F04DFA7B687B6104E092
:1013A0007B693B617B69DB687B617B69002BCFD10B
:1013B0001837BD46B0BD00BF883000209C300020EB
:1013C0008C30002090B583B000AF2D4B1B687B6044
:1013D0004FE07B68DA687B689A4202D17B68002222
:1013E000DA607B68DB6F002B24D07B68D3F8843015
:1013F000002B0ED07B68D3F884407B685A697B68E9
:10140000DB6F104679681A460023A0470346FB703D
:1014100009E07B68DB6F002079681A46002300F042
:101420006BF80346FB7097F90330002B02D17B6801
:101430000022DA677B6893F8223003F00103002B67
:1014400014D07B6893F8223043F00203DAB27B6851
:1014500083F82220786809F07FFC7B6893F82230BB
:1014600023F00303DAB27B6883F822207B68DB6811
:101470007B607B68002BACD10C37BD4690BD00BFB4
:101480008830002080B584B000AF78600023FB7303
:101490000CE07B681B68BB60786800F00FF80346BF
:1014A0001A46FB7B1344FB73BB687B607B68002B95
:1014B000EFD1FB7B18461037BD4680BD80B584B0A8
:1014C00000AF78600023FB737B68002B0ED07B6835
:1014D0005B68002B06D07B685B68184606F078F8DE
:1014E0000346FB730420796802F0A4F9FB7B1846DD
:1014F0001037BD4680BD00BF80B584B000AFF86036
:10150000B9607A60FB707B68002B09D07B681B890F
:10151000B8681946FFF7E6FC786806F059F808E065
:1015200097F90330002B04D1B868FFF723FA03467C
:1015300000E000235BB218461037BD4680BD00BFF7
:1015400080B586B000AF0346FB717F23FB7200239A
:10155000FB6000233B61184B1B687B611FE07B69CC
:101560005B7CFA799A4217D37B695B7CFA7A9A4260
:1015700012D3124B1A687B691B6BD21AFB689A4212
:101580000AD30E4B1A687B691B6BD31AFB607B690D
:101590003B617B695B7CFB727B69DB687B617B69A0
:1015A000002BDCD13B69002B03D038690121FFF708
:1015B00093FA1837BD4680BD883000208C3000205B
:1015C00080B584B000AF00237B600023BB60124B6A
:1015D0001B68FB6012E0114B1A68FB681B6BD21A88
:1015E0007B689A4207D30D4B1A68FB681B6BD31AB2
:1015F0007B60FB68BB60FB68DB68FB60FB68002B03
:10160000E9D1BB68002B03D0B8680121FFF764FA69
:101610001037BD4680BD00BF9C3000208C300020BC
:1016200080B584B000AF0346FB71022002F0E0F801
:10163000F860FB68002B10D1FFF7C2FF022002F018
:10164000D7F8F860FB68002B07D1FB791846FFF745
:1016500077FF022002F0CCF8F860FB68002B59D02D
:10166000F8680021A0220AF07DF8FB6840225A7435
:10167000FB6841F2D062A3F86E20FB680022A3F859
:101680007020FB6840F668321A85FB6840F66832C5
:101690005A85FB6800229A72FB68FF22DA72FB68A7
:1016A0004FF406721A87FB680622A3F84820FB68ED
:1016B0000022A3F84420FB680622A3F84620FB681A
:1016C0004FF6FF72DA86FB680122A3F8522000F081
:1016D000F1F8B860FB68BA685A66FB68BA689A6540
:1016E000FB68BA68DA64FB68BA689A660C4B1A68D9
:1016F000FB681A63FB68002283F83420FB68094A00
:10170000C3F88420FB68084AC3F89420FB680022D1
:1017100083F89D20FB6818461037BD4680BD00BF8A
:101720008C300020F914000800DD6D0080B500AF9A
:101730004020FFF775FF0346184680BD80B483B094
:1017400000AF786039607B683A685A610C37BD46F3
:101750005DF8047B704700BF80B483B000AF786051
:1017600039607B683A68C3F884200C37BD465DF861
:10177000047B704780B483B000AF786039607B68C9
:101780003A68C3F890200C37BD465DF8047B70477B
:1017900080B483B000AF786039607B683A68DA6102
:1017A0000C37BD465DF8047B704700BF80B582B042
:1017B00000AF78607B681B7C002B24D07B681B7C8F
:1017C0000A2B20D07B681B7C012B1CD07B68DB6F35
:1017D000002B07D07B68DB6F184605F0F9FE7B68AD
:1017E0000022DA677B685B6F1846FFF74BFE7B6869
:1017F0009B6F1846FFF746FE7B6800225A677B689E
:101800005A6F7B689A670837BD4680BD80B582B045
:1018100000AF786039607B681A683B689A4205D1EE
:101820007B681B68DA687B681A6019E07B681B6854
:101830001F4A136010E01E4B1B68DA683B689A422F
:1018400005D11B4B1B683A68D268DA6008E0184B78
:101850001B68DB68164A1360154B1B68002BEAD126
:101860003B680022DA603868FFF7A0FF3B681B7C0A
:101870000A2B16D03B681B7C012B12D03B6893F8D7
:10188000223003F00103002B0BD03B6893F8223089
:1018900043F00203DAB23B6883F82220386809F08B
:1018A0005BFA3B6800221A740837BD4680BD00BF52
:1018B0009430002080B400AF064B1A68064B1B68BA
:1018C0001344044A1360034B1B681846BD465DF879
:1018D000047B7047B40000208C30002080B584B0B9
:1018E00000AF03463960FB80386807F035FBF860CD
:1018F000FB68002B0DD0FB681B8E002B09D0FB680A
:101900001B8E283B7B817A89FB88934228BF134634
:10191000FB80FB8818461037BD4680BD80B400AF01
:10192000044B00221A7001231846BD465DF8047B63
:10193000704700BFEA11002080B483B000AF0346B7
:10194000FB71064B01221A70054AFB7913700123C3
:1019500018460C37BD465DF8047B7047EA1100203D
:10196000E911002080B485B000AF78600023FB73DC
:10197000094B1B78002B08D0084B1A787B681A702B
:10198000054B00221A700123FB73FB7B18461437AA
:10199000BD465DF8047B7047EA110020E911002084
:1019A00080B586B000AF0346FB8000237B75FB88C3
:1019B000002B03D14FF4FB73FB8201E0FB88FB8219
:1019C000FFF7B4FE38613B69FB60FB68002B02D176
:1019D00000237B7528E0FB8AF86817491A46FFF751
:1019E000EBF80346002B05D03869FEF7C3FF002350
:1019F0007B7519E0F868FF21FFF7ACF9F860FB6828
:101A0000002B05D13869FEF7B5FF00237B750BE08D
:101A1000F8680A49FFF7BCFE094AFB68136000201A
:101A20000849094A06F0FEFD01237B757B7D1846B7
:101A30001837BD4680BD00BFE0220108111B000819
:101A4000EC110020C0210108D0210108F0B587B0B9
:101A500004AF78607B68002B45D07868FEF78AFF7A
:101A60000346002B03D078680121FFF735F81F4BA0
:101A70001B687A689A422ED17B685B68184605F02D
:101A800077FF03461B0E9BB2DEB27B685B6818468D
:101A900005F06EFF03461B0C9BB2DDB27B685B68F2
:101AA000184605F065FF03461B0A9BB2DCB27B6853
:101AB0005B68184605F05CFF03469BB2DBB20095FD
:101AC0000194029300200A490A4A334606F0AAFD0F
:101AD000064B00221A60084B1B687A689A4202D1B2
:101AE000054B00221A600C37BD46F0BDF0110020F6
:101AF000E8210108F4210108EC11002080B500AFB5
:101B0000024B1B681846FFF7A1FF80BDF0110020B3
:101B1000F0B58BB004AFF860B9601346FB7197F96C
:101B20000730002B01D0FB794AE0284B1B68002BC3
:101B300040D1264ABB681360B8682549FFF70CFE00
:101B4000B8682449FFF716FEB868B968FFF7F6FDD4
:101B5000214B00221A80BB685B68184605F008FF1D
:101B600003461B0E9BB2DEB2BB685B68184605F0ED
:101B7000FFFE03461B0C9BB2DDB2BB685B681846D8
:101B800005F0F6FE03461B0A9BB2DCB2BB685B683D
:101B9000184605F0EDFE03469BB2DBB200950194BA
:101BA000029300200D490E4A334606F03BFD002308
:101BB000FB7504E0B868FFF749FF0023FB75FB7D68
:101BC0005BB218461C37BD46F0BD00BFF0110020C7
:101BD000191C0008E51B0008FC120020C0210108A8
:101BE0001822010880B584B000AF78600B46FB7006
:101BF0007B68FB60FB68002B07D000200449054A86
:101C000006F010FDF868FFF721FF1037BD4680BDD4
:101C10003C2201084822010880B586B000AFF86078
:101C2000B9607A60FB70FB78FB7597F91730002B71
:101C300001D0FB7D66E07B68002B04D1B868FFF71C
:101C400005FF00235EE07B685B89B8681946FFF7F3
:101C500049F92F4B1B881A467B685B891344B3F5FF
:101C6000837F05DDB868FFF7F1FE0023FB7545E0D3
:101C7000274B1B881A46274BD1187B685A687B680C
:101C80005B89084611461A4609F0D2FC7B685A89DE
:101C90001F4B1B8813449AB21D4B1A801C4B1B8888
:101CA000062B2BD91B4B1B799BB21B02BB82194BFA
:101CB0005B799AB2BB8A1343BB82154B1B881A46C9
:101CC000BB8A06339A4219DB114B1B881A46BB8A22
:101CD00006339A420AD10E4B1B880F480D491A460B
:101CE00006F0DAFB0120FFF727FE07E000200B4992
:101CF0000B4A06F097FCB868FFF7A8FE786805F075
:101D000067FCFB7D5BB218461837BD4680BD00BF3F
:101D1000FC120020F4110020742201083C2201086A
:101D20008022010880B483B000AF786039607B689E
:101D3000074A1A60074B1A883B681A80054B002235
:101D40001A80012318460C37BD465DF8047B7047A6
:101D5000F4110020FC12002080B584B000AF786040
:101D60000B467B800023FB73134B1B68002B1ED09C
:101D7000114B1A687B88104679681A46012308F0CF
:101D8000BFFC0346002B0DD17B880C480C491A463A
:101D900006F082FB084B1B68184608F0DDFF0123A4
:101DA000FB7304E0044B1B681846FFF74FFEFB7BF8
:101DB00018461037BD4680BDF0110020AC22010846
:101DC000F411002080B584B000AF3A601A46034693
:101DD000FB710B46BB711346BB800023FB73BB88B2
:101DE00002331F2B31DC1C4B00221A801A4B1B883C
:101DF0005A1C91B2184A11801946184AFB7953545B
:101E0000154B1B885A1C91B2134A11801A46BB7994
:101E1000002B01D0FF2100E00021104B9954BB881A
:101E2000002B14D00C4B1B881A460C4B1A44BB8851
:101E3000104639681A4609F0FBFB074B1A88BB8825
:101E400013449AB2044B1A8001E00423FB73FB7B1A
:101E500018461037BD4680BD201300200013002017
:101E600080B582B000AF786039607B685A1C094B3E
:101E70001B88104608491A4609F0DAFB054B1B88F7
:101E800001339AB23B681A80002318460837BD46D2
:101E900080BD00BF2013002000130020B0B588B023
:101EA00002AF786039607B685B68A04A13607B682A
:101EB0005C689E4B1B681B889BB2184605F030FD82
:101EC00003461B0A9BB203F00F039B002344984A6E
:101ED0001360964B1B681B889BB2184605F020FDCB
:101EE00003461B0A9BB203F00F039BB29B009BB2FD
:101EF0005B429BB29BB21BB27868194605F0F8FAB8
:101F00000346002B03D17B681B89132B03D8786809
:101F100005F05EFB9DE2854B1B681033184639685F
:101F200003F052F90346002B0FD1804B1B681C694C
:101F30004FF0704005F01CFD03461C404FF0604020
:101F400005F016FD03469C4203D1786805F040FB7E
:101F50007FE2774B1B689B899BB2184605F0E0FC3B
:101F600003461B0B9BB2BB72BB7A9BB21A46920311
:101F7000D31A9B009BB29BB21BB27868194605F03E
:101F8000B7FA0346002B03D0786805F021FB60E226
:101F9000674B1C68664B1B681B889BB2184605F094
:101FA000BFFC03462380624B1C68614B1B685B8847
:101FB0009BB2184605F0B4FC034663805C4B1C687A
:101FC0005B4B1B685B68184605F0D2FC03466360F8
:101FD0006368584A1360564B1C68554B1B689B68D6
:101FE000184605F0C5FC0346A360A368524A136077
:101FF0004F4B1C684E4B1B68DB899BB2184605F0A3
:102000008FFC0346E3814A4B1B689B899BB21846B1
:1020100005F086FC0346DBB203F03F03DAB2474B20
:102020001A707B681A89454B1B7803F00303002B59
:1020300014BF01230023DBB29BB213449AB2404B7E
:102040001A8000233B613F4B1B687B6132E07B6958
:102050001A8C374B1B681B889BB29A4225D17B692F
:102060001A8B334B1B685B889BB29A421DD17B69EC
:102070005A682E4B1B68DB689A4216D17B691A6836
:102080002A4B1B681B699A420FD13B69002B0BD06E
:102090007B69DA683B69DA602A4B1A687B69DA6027
:1020A000284A7B69136008E007E07B693B617B6934
:1020B000DB687B617B69002BC9D17B69002B7AD1FE
:1020C000214B1B687B6127E07B691A8C184B1B68CE
:1020D0001B889BB29A421CD17B691A8B144B1B68DC
:1020E0005B889BB29A4214D17B695A680F4B1B687C
:1020F000DB689A420DD17B691A680C4B1B681B691F
:102100009A4206D1786900F083FA786805F060FA9F
:102110009FE17B69DB687B617B69002BD4D1002365
:102120003B610A4B1B68FB6042E000BF3C13002090
:1021300038130020401300204413002048130020CF
:102140004A130020883000209C300020903000206E
:10215000FB68002B0AD0FB681B68002B06D0FB68CD
:102160001A689C4B1B681B699A421CD1FB681A8B2E
:10217000994B1B685B889BB29A4214D13B69002B38
:102180000AD0FB68DA683B69DA60944B1A68FB682E
:10219000DA60924AFB681360F86800F067F97868C3
:1021A00005F016FA55E1FB683B61FB68DB68FB60F4
:1021B000FB68002BCCD17B69002B00F01D81884B84
:1021C00000221A607B681A89854B9A817B685B685C
:1021D000834A9360824A7B6853607F4B1B68804AC6
:1021E0001361804B00221A607F4B00221A707B69BA
:1021F000DB6F002B29D07B69D3F88430002B0ED005
:102200007B69D3F884407B695A697B69DB6F104630
:1022100079691A460023A0470346FB7209E07B69EF
:10222000DB6F002079691A460023FFF765F9034642
:10223000FB7297F90B30002B03D17B690022DA6720
:1022400003E0786805F0C4F903E1684A7B6913602C
:10225000786900F051FA0346FB7297F90B3013F1DD
:10226000050F00F0A780604B1B7803F00803002BDC
:1022700016D07B69D3F89030002B08D07B69D3F857
:1022800090307A69526910466FF0050198475848B6
:102290007969FFF7BBFA0220796901F0CBFA89E08E
:1022A000514B1B7803F01003002B08D0504879697C
:1022B000FFF7ACFA0220796901F0BCFA7AE000235A
:1022C000FB727B69B3F86C30002B14D07B69D3F8B8
:1022D0008030002B0DD07B69D3F880307A6951694A
:1022E0007A69B2F86C200846796998470346FB7210
:1022F00001E00023FB723B4B1B68002B34D03D4BAD
:102300001B7803F00803002B08D0364B1B68354AB6
:102310001268527B42F00102D2B25A737B69D3F841
:102320008430002B0ED07B69D3F884407B695A69D6
:102330002C4B1B68104679691A460023A0470346B8
:10234000FB7209E0274B1B68002079691A460023BD
:10235000FFF7D2F80346FB7297F90B30002B03D03E
:10236000204B1A687B69DA671F4B1B7803F0200348
:10237000002B19D07B69D3F88430002B0CD07B69FB
:10238000D3F884407B695B69184679690022002391
:10239000A0470346FB7207E0002079690022002372
:1023A000FFF7AAF80346FB72104B00221A60786907
:1023B00008F0D2FC0D4B00221A60094B5B68002B21
:1023C00047D0074B5B68184605F002F9044B002222
:1023D0005A603EE03C13002038130020903000206B
:1023E00024130020501300204C130020A0300020A4
:1023F0008830002048130020174B1B689B899BB234
:10240000184605F08DFA034603F00403002B1DD196
:10241000124B1868124B1B881A46124B1B68D118B6
:10242000114B1B6803F110050F4B1B6803F10C04E3
:10243000094B1B685B889AB2074B1B681B889BB2D1
:10244000009201932A46234608F08CFE786805F036
:10245000BFF81837BD46B0BD381300204413002024
:102460004A130020401300203C130020B0B586B072
:1024700002AF78605F4B1B7803F01003002B1FD076
:102480005D4B1B68581C5D4B1B881A465C4B1B68D8
:10249000D1185C4B1B6803F110055A4B1B6803F104
:1024A0000C04594B1B685B889AB2574B1B681B88FE
:1024B0009BB2009201932A46234608F053FE92E015
:1024C0004C4B1B7803F00203002B00F08C807B68E0
:1024D0005B7C1846FFF7A4F8F860FB68002B01D17D
:1024E000FF2381E0474B1B681033002B03D0454B83
:1024F0001B681B6900E00023FA6813607B681A8B75
:10250000FB681A833F4B1B680C33002B03D03D4BF9
:102510001B68DB6800E00023FA6853603A4B1B68D5
:102520001B889AB2FB681A84FB6803221A74344B26
:102530001B685A1CFB685A62FB685A6AFB68DA62BD
:10254000314B1B68DB899AB2FB68A3F85C20FB68FF
:10255000B3F85C20FB68A3F85420294B1B685A1E73
:10256000FB681A667B685A69FB685A617B68DA699E
:10257000FB68DA617B681A8940F2991313409AB2BA
:10258000FB681A81214B1A68FB68DA601F4AFB68F6
:102590001360F86801F05EF8FB681A8FFB6804337B
:1025A00010461946FFF79AF903461A46FB681A8740
:1025B0000023009301230193F868002100221223D5
:1025C00008F0D0F80346FB7297F90B30002B05D0CA
:1025D000F8680021FEF780FAFB7A05E0F86808F059
:1025E000BBFB034600E000235BB218461037BD4634
:1025F000B0BD00BF48130020441300204A13002040
:10260000401300203C1300203813002088300020A5
:10261000B0B584B002AF7860304B1B7803F0040390
:10262000002B01D0002353E02C4B1B7803F0020356
:10263000002B30D02A4B1A687B685B6AD31A002BB8
:1026400033DB274B1A687B685B6A7968098D0B441A
:10265000D31A002B29DC234B1868234B1B881A46FE
:102660001F4B1B68D118214B1B6803F110051F4B32
:102670001B6803F10C041E4B1B685B889AB21C4B51
:102680001B681B889BB2009201932A46234608F0E0
:1026900069FD00231CE0114B1B7803F00103002BA4
:1026A00003D0144B1A687B681A630F4B1B88002BEE
:1026B0000DD07B6893F8223043F00203DAB27B68D6
:1026C00083F82220786808F047FB034600E00023E7
:1026D0005BB218460837BD46B0BD00BF48130020A6
:1026E00040130020441300204A1300203C13002014
:1026F000381300208C300020B0B586B002AF78606F
:102700000023FB730023BB73A54B1B7803F004036A
:10271000002B36D07B681B7C022B08D17B689A6D1E
:10272000A04B1B689A4215D10123FB7312E09E4B0C
:102730001A687B685B6AD31A002B0BDB9A4B1A680A
:102740007B685B6A7968098D0B44D31A002B01DC26
:102750000123FB73FB7B002B11D0944B1B7843F0C0
:102760000803DAB2914B1A707B6893F8223023F099
:102770000103DAB27B6883F82220FA2310E30023F6
:102780000EE3874B1B7803F00203002B15D07B6808
:102790001B7C022B11D07B681B7C032B0DD07B682C
:1027A00093F8223043F00203DAB27B6883F82220E8
:1027B000786808F0D1FA0023F2E27D4B1A687B6852
:1027C0001A637B68002283F89D20786800F042FF3E
:1027D0007B681B7C023B072B00F2E08201A252F8CF
:1027E00023F000BF05280008C1290008FD2A0008C1
:1027F000312B0008492C0008FD2A0008E12C0008B4
:102800006D2D0008664B1B7803F01003002B00F0C1
:10281000A080634B1B7803F00203002B00F099802B
:102820007B689B6F1B695B68184605F0A1F803463F
:102830005A1C5C4B1B689A4240F08B807B68B3F853
:102840006E3001339AB27B68A3F86E20564B1B683A
:102850005A1C7B685A627B685A6A7B68DA62514B01
:102860001A687B68DA64534B1B68DB899AB27B6811
:10287000A3F85C204C4B1B685A1E7B681A667B6869
:1028800004221A747B681A8F7B6804331046194639
:10289000FFF724F803461A467B681A877B681B8F6C
:1028A0001A46920013445B009AB27B68A3F8542046
:1028B0007B68B3F85230012B04D17B681B8F5B001F
:1028C0009BB201E07B681B8F7A68A2F852307B686C
:1028D000B3F87030013B9AB27B68A3F870207B6834
:1028E0009B6FBB60BB681A687B689A677B689B6F4D
:1028F000002B04D17B684FF6FF72DA8606E07B6816
:102900000022DA867B68002283F84A20B868FEF746
:10291000D5FD7B68D3F88830002B0BD07B68D3F8CB
:1029200088307A68526910467968002298470346D1
:10293000BB7301E00023BB737B6893F8223043F044
:102940000203DAB27B6883F82220786808F004FA80
:1029500024E0134B1B7803F01003002B1ED0114B07
:102960001868154B1B881A460F4B1B68D118134B60
:102970001B6803F11005114B1B6803F10C040D4B90
:102980001B685B889AB20B4B1B681B889BB200923A
:1029900001932A46234608F0E5FB00E2FFE100BF71
:1029A0004813002044130020401300204C13002043
:1029B0008C300020381300204A1300203C130020E4
:1029C000974B1B7803F01003002B00F08580954B8C
:1029D0001A687B68DB6CD31A013B002B5CDB914BE4
:1029E0001A687B689B6DD31A002B55DC7B68042228
:1029F0001A747B68DB69002B0AD07B68DB697A6814
:102A0000526910467968002298470346BB7301E07B
:102A10000023BB7397F90E30002B05D07868012195
:102A2000FEF75AF8FB23BBE17B68B3F85230BB8159
:102A3000786800F0C7F97B68B3F86C30002B07D0DA
:102A40007B68B3F86C30013B9AB27B68A3F86C20CA
:102A5000BB89012B04D17B681B8F5B009BB201E01B
:102A60007B681B8F7A68A2F852306F4B1B7803F09B
:102A70002003002B0FD07B6893F8223043F0020331
:102A8000DAB27B6883F82220786808F065F97B6801
:102A900007221A741FE01EE0624B1868634B1B8804
:102AA0001A46634B1B68D118624B1B6803F1100573
:102AB000604B1B6803F10C045F4B1B685B889AB288
:102AC0005D4B1B681B889BB2009201932A462346EC
:102AD00008F048FB11E010E0514B1B7803F00203B3
:102AE000002B0AD07B685B6A5A1E514B1B689A42C6
:102AF00003D1786808F0DEFB51E150E1786800F01E
:102B000061F9494B1B7803F02003002B0FD07B6841
:102B100093F8223043F00203DAB27B6883F8222074
:102B2000786808F019F97B6807221A7437E136E1F2
:102B3000786800F047F93C4B1B7803F02003002B2A
:102B40005DD0374B1B7803F01003002B47D07B6818
:102B50009A6D344B1B689A4241D17B6893F82230BE
:102B600043F00203DAB27B6883F82220786808F029
:102B7000F3F87868FEF71AFE304B1A687B689A42C1
:102B800005D12E4B1B68DB682C4A136019E02B4BD8
:102B90001B682B4A136010E0294B1B68DA687B68BE
:102BA0009A4205D1264B1B687A68D268DA6008E041
:102BB000234B1B68DB68224A1360214B1B68002BE8
:102BC000EAD17B680022DA607B680A221A741D4B06
:102BD0001A687B68DA601B4A7B6813601FE07B68B9
:102BE00093F8223043F00203DAB27B6883F82220A4
:102BF000786808F0B1F87B6808221A740FE0084B77
:102C00001B7803F01003002B09D07B689A6D054BED
:102C10001B689A4203D17B6806221A74BFE0BEE0AB
:102C200048130020441300204C1300204A130020B6
:102C3000401300203C13002038130020883000206F
:102C4000943000209C300020786800F0BBF8574B8F
:102C50001B7803F02003002B41D07B6893F82230CF
:102C600043F00203DAB27B6883F82220786808F028
:102C700073F87868FEF79AFD4D4B1A687B689A42A4
:102C800005D14B4B1B68DB68494A136019E0484B80
:102C90001B68484A136010E0464B1B68DA687B6883
:102CA0009A4205D1434B1B687A68D268DA6008E023
:102CB000404B1B68DB683F4A13603E4B1B68002B90
:102CC000EAD17B680022DA607B680A221A743A4BE8
:102CD0001A687B68DA60384A7B6813605FE05EE000
:102CE000786800F06FF8354B1B7803F01003002B69
:102CF0003BD07B689A6D324B1B689A4235D178681D
:102D0000FEF754FD2A4B1A687B689A4205D1284B7E
:102D10001B68DB68264A136019E0254B1B68254AAF
:102D2000136010E0234B1B68DA687B689A4205D178
:102D3000204B1B687A68D268DA6008E01D4B1B687C
:102D4000DB681C4A13601B4B1B68002BEAD17B68B5
:102D50000022DA607B680A221A74174B1A687B68B3
:102D6000DA60154A7B68136019E018E0786800F0B3
:102D700029F8124B1B7803F01003002B0DD07B6851
:102D80009A6D0F4B1B689A4207D1084B1B7843F092
:102D90001003DAB2054B1A7001E000E000BF002317
:102DA0005BB218461037BD46B0BD00BF4C130020C3
:102DB00088300020943000209C30002048130020F0
:102DC00044130020F0B58BB000AF78600023BB61E6
:102DD000A54B1B7803F01003002B00F07E827B686C
:102DE000B3F85C301A467B685B6E13447B617B688A
:102DF0001A6E9E4B1B68D31A002B1BDB7B681A6E66
:102E00009A4B1B689A4206D17B685A6E984B1B6896
:102E1000D31A002B0EDB7B685A6E954B1B689A42C7
:102E200025D1944B1B68DB899AB27B68B3F85C3080
:102E30009A421CD98F4B1B68DB899AB27B68A3F836
:102E40005C208A4B1A687B681A66894B1A687B6813
:102E50005A667B68B3F85C30002B08D07B6893F827
:102E60009C30002B03D07B68002283F89C20804B91
:102E70001A687B68DB6CD31A002B5BDC7B68002252
:102E8000A3F86C207C4B1B88002B4AD17B685B6EBF
:102E90007A68B2F85C201A447B699A4241D17B6817
:102EA000DB8E1BB2002B3CDB7B68DA6C704B1B6843
:102EB0009A4236D10123BB617B6893F850300133CD
:102EC0007A6892F85020934207DD7B6893F850307F
:102ED0000133DAB27B6883F850207B6893F8503076
:102EE000032B16D97B68B3F852207B681B8F1344E1
:102EF0009AB27B68B3F852309A4212D97B68B3F821
:102F000052207B681B8F13449AB27B68A3F852202F
:102F100007E07B6893F85030032B02D1786808F003
:102F20000BFABB69002B40F019817B68002283F803
:102F3000502048E14E4B1A687B68DB6CD31A013B8A
:102F4000002BC0F207814A4B1A687B689B6DD31A2D
:102F5000002B00F3FF807B6893F8223003F004031A
:102F6000002B0ED07B6893F8223023F00403DAB2F2
:102F70007B6883F822207B68B3F854207B68A3F831
:102F800052207B68002283F84A207B68B3F84430E3
:102F90001BB2DB109BB29AB27B68B3F846309BB28F
:102FA00013449BB29AB27B68A3F84820304B1B684D
:102FB0009AB27B68DB6C9BB2D31A9AB27B68A3F897
:102FC0006C207B68B3F86E207B68B3F86C301344D8
:102FD0009AB27B68A3F86E207B68002283F85020A9
:102FE000234B1A687B68DA647B681B7C032B3AD915
:102FF0007B68B3F852207B68B3F854309A4216D2FB
:103000007B68B3F852207B681B8F13449AB27B68AD
:10301000B3F852309A4226D97B68B3F852207B68C5
:103020001B8F13449AB27B68A3F852205AE07B6846
:10303000B3F852207B681B8F19467B681B8F03FBFC
:1030400001F37968B1F8521093FBF1F39BB213448A
:103050007B827B68B3F852307A8A9A4203D97B68C4
:103060007A8AA3F852203DE0481300204013002044
:1030700044130020381300204A1300207B689B6F04
:10308000FB607B689B6F1A687B689A677B68B3F804
:103090006C30002B13D0FB681B699B899BB21846D0
:1030A00004F03EFC034603F00103002B07D07B68CD
:1030B000B3F86C30013B9AB27B68A3F86C20FB68D4
:1030C0005B68184604F0C8FA034619467B68B3F8F3
:1030D00070208BB2D31A9AB27B68A3F87020F8687C
:1030E000FEF7ECF97B689B6F002B22D07B689B6F0F
:1030F0001B695B68184604F03BFC04467B689B6FC9
:103100009B891D467B689B6F1B699B899BB21846F8
:1031100004F006FC034603F00303002B14BF012355
:103120000023DBB22B44E218944B1B68D31A002B0C
:10313000A4DD7B689B6F002B04D17B684FF6FF7288
:10314000DA8602E07B680022DA867B68002283F858
:10315000342003E07B680022A3F86C2033E07B6816
:103160005B6FFB607B685B6F1A687B685A677B6884
:10317000B3F86C30002B13D0FB681B699B899BB2A2
:10318000184604F0CDFB034603F00103002B07D0E3
:103190007B68B3F86C30013B9AB27B68A3F86C2073
:1031A000FB685B68184604F057FA034619467B68CB
:1031B000B3F870208BB2D31A9AB27B68A3F8702050
:1031C000F868FEF77BF97B685B6F002B29D06B4BAF
:1031D0001C687B685B6F1B695B68184604F0C8FB62
:1031E00005467B685B6F9B891E467B685B6F1B692E
:1031F0009B899BB2184604F093FB034603F003033C
:10320000002B14BF01230023DBB233442B44E31A09
:10321000002B06DB594B1A687B689B6DD31A002B79
:103220009DDD7B68DB6B002B57D07B681A6C534BA2
:103230001B68D31A002B50DA514B1B689AB27B687B
:10324000DB6B9BB2D31A9BB2FB83FA8B7B68B3F820
:1032500044301BB2DB109BB29BB2D31A9BB2FB83F0
:103260007B68B3F844309AB2FB8B13449BB29AB29A
:103270007B68A3F84420B7F91E30002B03DAFB8BE0
:103280005B429BB2FB83FA8B7B68B3F846301BB280
:103290009B109BB29BB2D31A9BB2FB837B68B3F8A3
:1032A00046309AB2FB8B13449BB29AB27B68A3F868
:1032B00046207B68B3F844301BB2DB109BB29AB255
:1032C0007B68B3F846309BB213449BB29AB27B68DA
:1032D000A3F848207B680022DA632A4B1B88002B66
:1032E00000F094817B685A6A274B1B68D31A013B14
:1032F000002B75DB7B685A6A224B1B881946224BD0
:103300001B680B44D31A0133002B69DC7B685A6AB3
:103310001D4B1B68D31A3B621C4B5B687B621B4BCB
:103320005B685B891A463B6A9A4231DA174B5B68E5
:103330001A893B6A9BB2D31A7B810EE07B6A5B8958
:103340001A463B6A9B1A3B627B6A7A891A817B6ABE
:1033500000225A817B6A1B687B627B6A5B891A4602
:103360003B6A9A42EADB3B6A9BB25B429BB29BB2EE
:103370001BB2786A194604F0BBF815E0441300202C
:103380008C3000204A13002040130020241300201A
:10339000994B5A683B6A9BB25B429BB29BB21BB291
:1033A0001046194604F0A4F87B6A5B68924A936061
:1033B000914B9A89914B1B6899B27B685B6A9BB26F
:1033C000CB1A9BB213449AB28B4B9A818A4B1B69DE
:1033D0007A68526A89490A60884A12685A6012E01B
:1033E000864B1A687B685B6AD31A002B0BDA7B6802
:1033F00093F8223043F00203DAB27B6883F822208C
:10340000786807F0A9FC7D4B1A687B685B6AD31A61
:10341000002BC0F2EB80794B1A687B685B6A796895
:10342000098D0B44D31A0133002B00F3DF807B6836
:103430005A6A724B1B689A4240F0D4806E4B9C894A
:103440006D4B1B699B899BB2184604F069FA0346D1
:1034500003F00303002B14BF01230023DBB29BB254
:1034600023449AB2664B1A807B681A8D644B1B8882
:103470009A425ED2604B1B699B899BB2184604F04E
:103480004FFA034603F00103002B1ED05A4B1C6970
:10349000594B1B699B899DB24FF6C07004F02AFA04
:1034A00003462B409DB2544B1B699B899BB2184627
:1034B00004F036FA034603F03E039BB2184604F0CC
:1034C00019FA03462B439BB2A3817B681A8D4A4BA2
:1034D0009A81494B1B699B899BB2184604F020FADC
:1034E000034603F00203002B05D0434B9B89013BAD
:1034F0009AB2414B9A81404B5A683F4B9B89104688
:10350000194603F09DFF3C4B9C893B4B1B699B89F3
:103510009BB2184604F004FA034603F00303002BA1
:1035200014BF01230023DBB29BB223449AB2344B75
:103530001A80334B1B881A46304B1B681A447B6831
:103540005A627B681A8D2E4B1B88D31A9AB27B68FD
:103550001A857868FDF784FC274B5B681B89002B74
:1035600006D0254B5B68274A1360234B00225A6024
:10357000214B1B699B899BB2184604F0D1F9034685
:1035800003F00103002B06D01F4B1B7843F02003F0
:10359000DAB21D4B1A707B6893F8223003F00103F6
:1035A000002B15D07B6893F8223023F00103DAB2A8
:1035B0007B6883F822207B6893F8223043F0020373
:1035C000DAB27B6883F82220786807F0C5FB11E047
:1035D0007B6893F8223043F00103DAB27B6883F80A
:1035E000222007E0786807F075FB03E0786807F0B1
:1035F00071FB29E028E000BF2413002040130020C5
:103600004A130020501300204C130020104B1A685E
:103610007B685B6AD31A002B0ADB0D4B1A687B6848
:103620005B6A7968098D0B44D31A0133002B0BDDDB
:103630007B6893F8223043F00203DAB27B6883F8A8
:103640002220786807F088FB2C37BD46F0BD00BF0C
:103650004013002080B586B000AF78603D4B1B68FA
:1036600014333B613B4B1B689B899BB2184604F0AB
:1036700057F903461B0B9BB2052B68D9354B1B68CA
:103680009B899BB2184604F04BF903461B0B9BB277
:10369000053B9BB29B00FB810023FB8251E0FB8A30
:1036A0003A6913441B787B737B7B012B04D0022B7C
:1036B00006D0002B4AD033E0FB8A0133FB8240E086
:1036C000FB8A01333A6913441B78042B04D1FB8A2B
:1036D0001A1DFB899A4200DD39E0FB8A02333A6900
:1036E00013441B781B0299B2FB8A03333A691344D3
:1036F0001B789BB20A4613439BB27B817B8940F2C5
:10370000B452934204D87B89002B01D07A8901E01E
:1037100040F2B4527B681A87FB8A0433FB8210E0C4
:10372000FB8A01333A6913441B78002B00D10EE069
:10373000FB8A01333A6913441B789AB2FB8A13441B
:10374000FB82FA8AFB899A42A9D300E000BF1837AE
:10375000BD4680BD3813002080B483B000AF002385
:103760007B8002E07B8801337B807B88082BF9D942
:103770001B4B033323F003037B6000237B8027E094
:103780007B88184A002142F8231000233B8015E073
:103790007B88144A52F823207B681A607B88114981
:1037A0007A6841F823207B880F4A32F813301A4692
:1037B0007B6813447B603B8801333B807B880B4AEA
:1037C00032F813303A889A42E2D37B8801337B8007
:1037D0007B88082BD4D90C37BD465DF8047B704735
:1037E0007813002054130020B8220108CC220108CD
:1037F00080B485B000AF0346FB71FB79082B01D97B
:1038000000230EE0FB790A4A52F82330FB60FB6884
:10381000002B05D0FB79FA681268054941F823208E
:10382000FB6818461437BD465DF8047B704700BF3F
:103830005413002080B485B000AF03463960FB719B
:103840003B68002B00D10CE03B68FB60FB79074A2A
:1038500052F82320FB681A60FB790449FA6841F8A2
:1038600023201437BD465DF8047B704754130020B5
:1038700080B584B000AF78600123FB73FB7B002B25
:1038800010D07B689B6A1B7A002B03D0786800F00D
:103890007BF80AE0786800F051F87B689B6A642244
:1038A0001A7202E0786800F06FF81037BD4680BDEC
:1038B00080B584B000AF786039607B6893F83730AA
:1038C0001A467B6893F838301B021A43184B13448E
:1038D000184604F033F80346184604F049F8F86037
:1038E0007B689B6A5B7A1A46FB681344FB60FB6843
:1038F0009BB243F0294343F47E03FB60FB680D4A0F
:10390000934203D8FB6803F57E43FB60FB680A4AD9
:10391000934203D9FB68A3F57E43FB60F86804F08B
:103920000DF802463B681A601037BD4680BD00BFE7
:103930000001FEA9FF00FEA9FFFEFEA990B587B019
:1039400004AF78607B6803F133027B6803F13304D2
:103950007B689B6A18467B689B6A19460090084BF7
:10396000019302910123039378681146054A234687
:1039700003F060FB034618460C37BD4690BD00BF00
:10398000F8220108F022010880B584B000AF786009
:103990007B689B6AFB600023FB72786804F02CF95B
:1039A0000346002B02D0786804F006F97B680022F9
:1039B0005A607B6800229A607B680022DA60FB68AC
:1039C000002B11D10A20FCF775FDF860FB68002B75
:1039D00001D1FF2329E0F86800210A2207F0C2FE86
:1039E0007B68FA689A6211E0FB6800221A71FB6832
:1039F0000022DA80FB6800225A71FB681846002119
:103A0000042207F0AFFEFB6800221A72FB68786898
:103A10001946FFF74DFFFB685B7A0133DAB2FB68AA
:103A20005A72786800F006F8FB7A5BB218461037D5
:103A3000BD4680BD80B485B000AF78607B689B6A6E
:103A4000FB60FB6801221A71FB6800225A717B68D7
:103A500093F838301A067B6893F836301B041A4303
:103A60007B6893F835301B0213437A6892F837204D
:103A700013437A68926A002A03D07A68926A527A6B
:103A800000E0002299180C4BA3FB0123DA0813462F
:103A90009B0013445B00CA1A92B2FB68DA80FB6891
:103AA0005B7A0A2B03D9FB684FF41672DA8014375D
:103AB000BD465DF8047B7047CDCCCCCC80B586B0DC
:103AC00000AF786039607B689B6A002B69D07B68A7
:103AD0009B6A1B79002B64D07B6893F833303B7270
:103AE0007B6893F834307B727B6893F83530BB7217
:103AF0007B6893F83630FB727B6893F837303B7302
:103B00007B6893F838307B733A6807F114030E3200
:103B1000106818603A6807F11003183210681860CE
:103B20007B689B6A1B79012B09D07B689B6A1B7998
:103B3000022B21D17B689B6A5B79002B1CD17A69AF
:103B40007B689B6A1B689A4211D03A697B689B6AC2
:103B50001B689A420FD13B68083307F108021046F0
:103B60001946062207F032FD0346002B03D0786881
:103B7000FFF70AFF15E014E07A697B689B6A1B680F
:103B80009A420ED13B68083307F1080210461946E5
:103B9000062207F01BFD0346002B02D07868FFF7D2
:103BA00067FE1837BD4680BD80B586B000AF78602F
:103BB000396000237B617B685B685B68FB60FB6846
:103BC0009B889BB2002B1ED17B685B683B61FB68C6
:103BD0001A687B685A603B695A687B6808331046EC
:103BE0001946142207F024FD3869012105F06EFE04
:103BF000386903F031FD03461A467B6913447B6143
:103C0000386903F0E5FC7B685B683B6112E03B6967
:103C10005B68FB603B69BB60FB681B683B61B86825
:103C200003F01AFD03461A467B6913447B61B868AA
:103C300003F0CEFC3B69002BE9D17868396800F0CD
:103C4000A5F8064B1A887B699BB2D31A9AB2034B2C
:103C50001A807B6918461837BD4680BD9026002023
:103C600080B588B000AF7860396000233B610023E5
:103C7000BB6100237B610023FB60264B1B68FB615B
:103C80002CE0FB695A697B68DB689A420CD1FB69BE
:103C90009A697B681B699A4206D1FB699A897B689D
:103CA0009B889BB29A4210D0FB680133FB60BB69D2
:103CB000002B02D1FB69BB6107E0FB69DA7FBB69BE
:103CC000DB7F9A4201D8FB69BB61FB691B68002B53
:103CD00001D0FB697B61FB691B68FB61FB69002B01
:103CE000CFD1BB69002B08D0B8697969FFF75CFFB9
:103CF000B8603A69BB6813443B613A693B689A42D1
:103D000002DAFB68012BB2DC3B6918462037BD465E
:103D100080BD00BF8C26002080B584B000AF7860E5
:103D200039600520FFF764FDF860FB68002B10D1B7
:103D300078683968FFF794FF02463B689A4203DBD4
:103D40000520FFF755FDF860FB68002B01D100232B
:103D500016E0F8680021202207F004FDFB6803222A
:103D6000DA77094B1A68FB681A60074AFB68136028
:103D7000FB68083318467968142207F059FCFB6881
:103D800018461037BD4680BD8C26002080B582B015
:103D900000AF786039600A4B1A687B689A4204D198
:103DA0007B681B68064A136003E07B681A683B68FF
:103DB0001A6005207968FFF73DFD0837BD4680BDD4
:103DC0008C26002090B58BB000AF7860396000235E
:103DD0007B620123FB613B685B68BB61BB695B88FD
:103DE0009BB2184603F09CFD03461C46BB691B882A
:103DF0009BB2184603F094FD03461B0A9BB203F0E6
:103E00000F039BB21A469203D31A9B009BB2234422
:103E1000FB82BB69DB889BB2184603F081FD034639
:103E2000C3F30C039BB2DB00BB823B685B683B6166
:103E30003B6900221A7000225A7000229A700022F8
:103E4000DA703B69BA8A9A80BA8AFB8A13449AB2BA
:103E50003B69DA807B685B683B624DE03B6A5B688C
:103E6000FB603B699B889AB2FB689B889BB29A4235
:103E70001ED23B693A6A1A607B6A002B14D03B69F8
:103E80009B889AB27B6ADB889BB29A42C0F08280A0
:103E90003B69DB889AB2FB689B889BB29A4279D8CF
:103EA0007B6A3A681A602AE07B683A685A6026E0C2
:103EB0003B699B889AB2FB689B889BB29A4200D16F
:103EC00068E03B699B889AB2FB68DB889BB29A42A8
:103ED00000D25FE07B6A002B09D07B6ADB889AB254
:103EE000FB689B889BB29A4201D00023FB61FB6870
:103EF0001B683B62FB687B623B6A002BAED13B6A6E
:103F0000002B13D17B6A002B0DD07B6A3A681A60B4
:103F10007B6ADB889AB23B699B889BB29A4205D048
:103F20000023FB6102E07B683A685A607B689B7FF4
:103F300003F00103002B2BD0FB69002B26D07B68FC
:103F40005B685B689B889BB2002B02D00023FB61FF
:103F50001CE03B697B623B691B683B6213E03B6A88
:103F60005B683B617B6ADB889AB23B699B889BB24A
:103F70009A4203D00023FB6100BF07E03B697B62EC
:103F80003B691B683B623B6A002BE8D1FB6911E08F
:103F900000230FE0386803F05FFB03461946074B28
:103FA0001A888BB2D31A9AB2044B1A80386803F07D
:103FB0000FFB002318462C37BD4690BD90260020ED
:103FC00090B58BB000AF78600023FB617B685B68C5
:103FD000BB61BB691B889BB2184603F0A1FC03467A
:103FE0001B0A9BB203F00F039B00142B00D00EE1C1
:103FF000BB69DB889BB2184603F092FC0346C3F30F
:104000000C039BB2DB00FB82BB695B889BB218464A
:1040100003F086FC03461C46BB691B889BB218460E
:1040200003F07EFC03461B0A9BB203F00F039BB216
:104030001A469203D31A9B009BB22344BB82786832
:1040400003F00AFB0346FB74754B1B881A46FB7C86
:1040500013440A2B10DDFB7CB8691946FFF700FEFC
:104060000346002B00F0D3806D4B1B881A46FB7C67
:1040700013440A2B00F3CB806A4B1B683B6218E0A9
:104080003B6A5A69BB69DB689A420DD13B6A9A69FF
:10409000BB691B699A4207D13B6A9A89BB699B88B5
:1040A0009BB29A4200D107E03B6AFB613B6A1B6806
:1040B0003B623B6A002BE3D13B6A002B09D1FB7CBE
:1040C000B8691946FFF728FE38623B6A002B1CD1FD
:1040D0009DE0BB69DB889BB2184603F021FC0346D8
:1040E000C3F30C03002B10D13B6ADB89184603F0A5
:1040F00017FC0346C3F30C03002B06D03B6A0833BE
:104100001846B969142207F093FAFB7C9AB2444B23
:104110001B8813449AB2424B1A80BB69DB889BB25E
:10412000184603F0FDFB034603F40053002B0CD1AB
:104130003B6A9B7F43F00103DAB23B6A9A77FA8AC3
:10414000BB8A13449AB23B6A9A83386A7968FFF74C
:1041500039FE0346002B58D03B6A9B8B14339AB22E
:104160003B6A9A833B6A5B685B681B687B623B6A5D
:104170005B685B68BB613B6A0833B8691946142207
:1041800007F056FA3B6A9B8B184603F0B3FB0346D5
:104190001A46BB695A80BB6900229A710022DA7103
:1041A000BB6900229A720022DA72B869142101F008
:1041B0004FFA03461A46BB695A813B6A5B687B60CB
:1041C0000EE07B6A5B68FB60786A6FF0130103F0B6
:1041D0008FF97868796A03F069FAFB681B687B627B
:1041E0007B6A002BEDD1386AF969FFF7CFFD78685B
:1041F00003F032FA03461946094B1A888BB2D31AD8
:104200009AB2074B1A807B6805E0002303E07868C8
:1042100003F0DEF9002318462C37BD4690BD00BFE1
:10422000902600208C26002080B58CB000AFF8606E
:10423000B9607A60BB681B8EFB8414237B850220E7
:104240000021022203F002F838623B6A002B01D100
:10425000FF23B4E03B6AFA8C5A813B6A5A893B6A75
:104260001A81594B033323F003031A463B6A5A6001
:104270003B6A5B68FB61FB685B68F869194614225E
:1042800007F0D6F9FB69DB889BB2184603F048FBC0
:1042900003463B853B8DC3F30C03BB853B8D03F489
:1042A00000537B83FB681B89143BFB85FB8C143B11
:1042B000002B00DA0733DB103B8379E0FA8DFB8CAF
:1042C000143B9A42D4BF01230023DBB2FB82BB8D97
:1042D000C3F30C039AB27B8B13433B85FB8A002B01
:1042E00003D13B8D43F400533B85FB8A002B03D164
:1042F0003B8BDB009BB200E0FB8DBB82FB6903F1D3
:104300001401BA8A7B8DF86803F08EFA03461A46C8
:104310007B8D13447B853B8D184603F0EBFA0346F7
:104320001A46FB69DA80BB8A14339BB2184603F045
:10433000E1FA03461A46FB695A80FB6900229A7229
:104340000022DA72F869142101F082F903461A4654
:10435000FB695A81FB8A002B06D0FB8D14339BB27C
:10436000386A194603F06CF802200021002202F09E
:104370006DFF38613B69002B0DD03869396A03F055
:10438000C3F9BB685B69B86839697A689847386966
:1043900003F01EF904E0386A03F01AF9FF230EE077
:1043A000FA8DBB8AD31AFB85BA8D3B8B1344BB8530
:1043B000FB8D002B82D1386A03F00AF900235BB22F
:1043C00018463037BD4680BD9426002080B485B0A5
:1043D00000AF0346FB71FB79012B06D0072B07D0FA
:1043E000002B08D10023FB7308E00223FB7305E0D8
:1043F0000623FB7302E00423FB7300BFFB7B18461C
:104400001437BD465DF8047B704700BF80B582B0AD
:1044100000AF104B7B60104B3B6007E03B681A1D00
:104420003A607A68111D796012681A603B680B4A1D
:104430009342F3D30A480B494FF000028842B8BFB9
:1044400040F8042BFADB03F0DDFC01F05FF90837DC
:10445000BD4680BD38250108000000209C090020D1
:10446000A00900200072012080B400AFFEE700BF69
:1044700080B485B000AF78600023FB607B68FB6090
:1044800002E0FB68013BFB60FB68002BF9D11437AD
:10449000BD465DF8047B704780B500AF4FF00070FB
:1044A000012101F07DFA4FF00070002101F078FA4F
:1044B00080BD00BF80B483B000AF78607B6801220C
:1044C0001A607B6800225A607B6800229A607B68D1
:1044D0000022DA607B6800221A617B684FF4804218
:1044E0005A617B6800229A617B680022DA617B68EE
:1044F0004FF400621A627B6800225A627B680022D5
:104500009A627B680022DA627B6800221A637B6809
:1045100000225A637B6800229A637B680022DA6378
:104520007B6840221A647B6820225A647B680022E0
:104530009A647B680022DA647B6800221A657B68D3
:1045400000225A657B6800229A657B680022DA6542
:104550007B6800221A667B6880225A667B6800228C
:104560009A667B680022DA667B6800221A677B689D
:1045700000225A677B6800229A677B680022DA670C
:104580007B684FF08062C3F880207B684FF0007238
:10459000C3F884207B680022C3F888207B684FF42E
:1045A0000012C3F88C207B680022C3F890207B683F
:1045B0000022C3F894207B680022C3F898207B680F
:1045C0000022C3F89C207B680022C3F8A0207B68EF
:1045D0004FF00072C3F8A4207B684FF48032C3F818
:1045E000A8207B684FF48002C3F8AC207B684FF4AE
:1045F0000052C3F8B0207B680022C3F8B4207B6867
:104600000022C3F8B8200C37BD465DF8047B704724
:1046100080B58CB000AF78600B467B800023BB6216
:104620000023FB628C4B7B620023FB6000233B6218
:104630008A4B1B69FB62FB6A23F01C03FB6207F1D8
:104640001003184601F0A8F87B697B627B6A844AF4
:10465000934208D97B6A834A934204D8FB6A43F0A9
:104660000803FB6226E07B6A7E4A934208D97B6A94
:104670007D4A934204D8FB6A43F00C03FB6219E0C5
:104680007B6A794A934204D97B6A784A934200D87C
:1046900010E07B6A754A934208D97B6A744A934258
:1046A00004D8FB6A43F00403FB6203E0FB6A43F0B7
:1046B0001003FB62694AFB6A13610023FB60FB681D
:1046C0000133FB607B881846012100F0DBFC0346C8
:1046D0003B623B6A03F00403002B03D1FB68654A8D
:1046E0009342ECD9FB68644A934201D100239FE1D5
:1046F0007B681B68002B00F09A800023FB607B889E
:10470000184600214FF4805200F00CFD0346002BA8
:1047100001D100238CE16FF07F40FFF7A9FEFB6819
:104720000133FB607B881846012100F0ABFC034697
:104730003B623B6A03F02003002B03D1FB684D4A28
:104740009342ECD9FB684C4A934201D100236FE1BC
:104750000023FB600023FB607B8818461D2100F0CE
:1047600091FC0346BB627B8818461F2100F08AFC3F
:104770000346BB62BB6A03F01C03BB62BB6A043B1B
:10478000142B4DD801A252F823F000BF13480008A3
:10479000214800082148000821480008F347000884
:1047A0002148000821480008214800082148000845
:1047B0002148000821480008214800082148000835
:1047C0002148000821480008214800080348000843
:1047D000214800082148000821480008E147000856
:1047E0007B684FF400621A627B684FF480425A6122
:1047F00019E07B6800221A627B684FF480425A619C
:1048000011E07B684FF400621A627B6800225A61F3
:1048100009E07B6800221A627B6800225A6102E08C
:104820000123FB6000BFFB68012B93D026E07B686F
:104830001B6ADB089AB27B685B695B089BB2134317
:104840009BB27A88104600211A4600F06BFC0346A2
:10485000002B13D10023EBE000879303008002407C
:10486000FF2C3101BF0E1602FF869303FFE0F50512
:10487000007A030AFEFF0500FFFF05006E4B1B6870
:10488000FB62FA6A6D4B1340FB627B685A687B6877
:104890009B681A437B68DB681A437B681B691A4371
:1048A0007B685B691A437B689B691A437B68DB6999
:1048B0001A437B681B6A1A437B685B6A1A437B68EE
:1048C0009B6A1A437B68DB6A1A437B681B6B1A433B
:1048D0007B685B6B1343FA6A1343FB62564AFB6ABD
:1048E000136055497B689A6B7B68DB6B1A437B6866
:1048F0001B6C1A437B685B6C1A437B689B6C1A4386
:104900007B68DB6C1A437B681B6D1A437B685B6DAD
:1049100013434B60484A7B689B6D9360464A7B68B3
:10492000DB6DD360444B9B69FB62FA6A4FF64173BF
:104930001340FB627B681B6E1A047B685B6E1A4334
:104940007B689B6E1A437B68DB6E1A437B681B6F28
:104950001A437B685B6F1343FA6A1343FB62364A60
:10496000FB6A936134497B689A6F7B68DB6F134302
:10497000CB61314B03F5805318331B68FB62FA6A35
:104980002F4B1340FB627B68D3F880207B68D3F801
:1049900084301A437B68D3F888301A437B68D3F895
:1049A0008C301A437B68D3F890301A437B68D3F875
:1049B00094301A437B68D3F898301A437B68D3F855
:1049C0009C301A437B68D3F8A0301343FA6A134330
:1049D000FB62194B03F580531833FA6A1A601649C3
:1049E0007B68D3F8A4207B68D3F8A8301A437B688F
:1049F000D3F8AC301A437B68D3F8B0301A437B68E5
:104A0000D3F8B4309B001A437B68D3F8B830134313
:104A100043F4000201F580531A600749064B03F581
:104A200080531B6843F0800201F580531A60012314
:104A300018463037BD4680BD008002400F8120FF00
:104A4000233FDEF880B500AF012000F00DF800F044
:104A5000B5FA012000F024F8012000F0C3FA01208B
:104A600000F0E8FA80BD00BF80B483B000AF034619
:104A7000FB71FB79002B06D0084A084B1B6843F0FA
:104A80000803136005E0054A044B1B6823F0080384
:104A900013600C37BD465DF8047B70470080024010
:104AA00080B483B000AF0346FB71FB79002B06D0C6
:104AB000084A084B1B6843F00403136005E0054AED
:104AC000044B1B6823F0040313600C37BD465DF8EC
:104AD000047B70470080024080B485B000AF7860EE
:104AE00039603B6805331B781B023A680432127840
:104AF0001343FB607A68114B13441A46FB6813603A
:104B00003B6803331B781A063B6802331B781B048F
:104B10001A433B6801331B781B0213433A6812782F
:104B20001343FB607A68064B13441A46FB68136014
:104B30001437BD465DF8047B704700BF40800240DB
:104B40004480024090B486B000AF786000237B615F
:104B50000023BB600023FB6000233B61174B1B68F5
:104B60001A68174B13401B0C043B7B617B69BB60CD
:104B7000144B1B689B68012B05D9124B1B681B68E3
:104B80009B68FB6003E00D4B1B689B68FB600B4B55
:104B90001B683B61094B1B68DB681A46074B1A60B0
:104BA0007B681C4607F1080393E8070084E80700C8
:104BB00078681837BD4690BC704700BFB030002001
:104BC0000000FF3F204F002080B487B000AF0346B5
:104BD000FB8000237B610023BB6000233B61514BC2
:104BE0001B681B68002B01DA002395E04D4B1B6806
:104BF000FB60FB8840F2F452934217D9FB884A4A83
:104C0000A2FB03239B0A9BB27B61FB88464AA2FB63
:104C10000312920A40F2F45101FB02F29B1A9BB27A
:104C2000002B05D07B6901337B6101E001237B61AF
:104C30007B69012B1CD13B4B1B683A4A12681268F6
:104C400042F040521A60374B1B68FA88C2F30C02DC
:104C50005A60344B1B68334A1268126842F00042B3
:104C60001A60304B1B68DB681A462E4B1A603DE019
:104C700000233B6133E03B69002B07D1294B1B68C4
:104C8000284A1268126842F080521A60FB6840F2AB
:104C9000F4525A607B695A1E3B699A4213D1FB68F1
:104CA0001B6843F00052FB681A60FA887B691F4951
:104CB00001FB03F3134403F2F453BB60BB68C3F37B
:104CC0000C02FB685A60FB681B6843F00042FB68FB
:104CD0001A60FB68DB68FB603B6901333B613A6942
:104CE0007B699A42C7D30F4AFB681360104B03F5E8
:104CF000805314331B6803F00403002B0BD00C4BC0
:104D000003F58053143304221A60094B03F58053D2
:104D1000043300221A60012318461C37BD465DF893
:104D2000047B7047B43000200BB002AC0CFAFFFFDC
:104D30000080024080B487B000AFF860B9607A604C
:104D400000237B61214AFB68136000237B612AE01A
:104D50007B695B01FA6813443B613B694FF0004299
:104D60001A603B6944F2F4525A607B6940F2F45293
:104D700002FB03F3BA6813441A463B699A607B68E6
:104D80005A1E7B699A4208D97B6901335B01FA6834
:104D900013441A463B69DA6002E0FA683B69DA605C
:104DA0007B6901337B617A697B689A42D0D3084B77
:104DB000FA6803F580530C331A60064B064A1A60F2
:104DC0001C37BD465DF8047B704700BFB030002043
:104DD00000800240204F0020A430002080B400AFAB
:104DE000314B1B681B68002B12DB2F4B1B681B68A9
:104DF00003F48073002B0BD02C4B1B682A4A1268DB
:104E00005A602A4B1B689A6801329A60012345E078
:104E1000254B1B681B68002B21DB234B1B681B6881
:104E200003F40073002B1AD01F4B1B681B6803F49C
:104E30008073002B13D11D4B1B681B4A12681A602C
:104E40001A4B1B6800225A60184B1B6801229A609B
:104E5000154B1B68DB681A46134B1A601DE0124B9A
:104E60001B681B68002B18DB0F4B1B681B6803F4C7
:104E70000073002B11D10C4B1B681B6803F480736B
:104E8000002B0AD1094B1B689A6801329A60064BC5
:104E90001B68DB681A46044B1A6000231846BD469F
:104EA0005DF8047B704700BFB0300020204F002029
:104EB00080B487B000AFF860B9607A6000237B618E
:104EC0001D4AFB68136000237B6126E07B695B0160
:104ED000FA6813443B613B694FF480121A607B69A6
:104EE00040F2F45202FB03F3BA6813441A463B69DA
:104EF0009A607B685A1E7B699A4208D97B690133A4
:104F00005B01FA6813441A463B69DA6002E0FA680A
:104F10003B69DA607B6901337B617A697B689A421D
:104F2000D4D3064BFA6803F5805310331A601C374C
:104F3000BD465DF8047B7047B4300020008002401D
:104F400080B483B000AF786039607B681A683B68D2
:104F50001A437B681A600C37BD465DF8047B7047C6
:104F600080B400AF0649064B03F580531B6843F03D
:104F7000010201F580531A60BD465DF8047B70475D
:104F80000080024080B483B000AF0023FB710A4B65
:104F900003F580531B6803F00103002B02D00123AB
:104FA000FB7101E00023FB71FB7918460C37BD460D
:104FB0005DF8047B704700BF0080024080B400AF02
:104FC0000749074B03F5805318331B6843F48012DD
:104FD00001F5805318331A60BD465DF8047B7047B5
:104FE0000080024080B483B000AF0346FB71FB79C0
:104FF000002B0CD00E490E4B03F5805318331B6861
:1050000043F4005201F5805318331A600BE008494D
:10501000074B03F5805318331B6823F4005201F546
:10502000805318331A600C37BD465DF8047B704717
:105030000080024080B483B000AF0346FB71FB796F
:10504000002B0CD00E490E4B03F5805318331B6810
:1050500043F0020201F5805318331A600BE008494F
:10506000074B03F5805318331B6823F0020201F548
:10507000805318331A600C37BD465DF8047B7047C7
:105080000080024080B485B000AF03460A46FB8032
:105090001346BB800023FB600023BB601E4B1B69D3
:1050A000FB60FB6803F01C03FB60FB88DB029BB228
:1050B000FA681343FB60BB889B0103F4F863FA684A
:1050C0001343FB60FB6823F00203FB60FB6843F0C3
:1050D0000103FB60104AFB681361BB680133BB60CE
:1050E0000D4B1B69FB60FB6803F00103002B03D031
:1050F000BB680A4A9342F0D9BB68094A934201D17E
:10510000002302E0044B5B699BB218461437BD468E
:105110005DF8047B704700BF00800240FEFF050081
:10512000FFFF050080B485B000AF0346FB800B464F
:10513000BB8013467B800023FB600023BB601F4BBA
:105140001B69FB60FB6803F01C03FB60FB88DB0250
:105150009BB2FA681343FB60BB889B0103F4F863BE
:10516000FA681343FB60FB6843F00203FB60FB68D3
:1051700043F00103FB60114A7B8853610F4AFB68CF
:105180001361BB680133BB600C4B1B69FB60FB68A0
:1051900003F00103002B03D0BB68094A9342F0D906
:1051A000BB68084A934201D1002300E0012318465E
:1051B0001437BD465DF8047B704700BF0080024095
:1051C000FEFF0500FFFF050080B485B000AF7860EA
:1051D00039607B681B68FB60FB68B3F1FF3F02D05E
:1051E000FB68002B01D1012326E03B6893F839309E
:1051F00003F00203002B01D100231DE03B685A6835
:10520000FB689A4201D1002316E07B681A683B686C
:105210005B685A403B689B681340002B0BD13B688E
:105220009B68DA43FB681A403B689B68DB439A4201
:1052300001D1012300E0002318461437BD465DF874
:10524000047B704780B584B000AF7860396000237C
:10525000FB733B681B88052B24D17B6801331B78CB
:105260009BB21B02BB817B6802331B789AB2BB895D
:105270001343BB81BB890133BB817B68DA1CBB89CB
:10528000104619460122012304F0F4FF0346FB7285
:10529000FB7A002B08D0FB7A1846FFF797F80346F5
:1052A000FB7301E00323FB73FB7B18461037BD46FD
:1052B00080BD00BF80B584B000AF78603960002346
:1052C000FB733B681B88052B4AD97B6801331B782D
:1052D0009BB21B02BB817B6802331B789AB2BB89ED
:1052E0001343BB81BB890133BB817B6803331B78CC
:1052F0009BB21B027B817B6804331B789AB27B894B
:1053000013437B817B685B797B727B89002B23D085
:105310007B89782B20D87B89DBB25B00DBB27A7A81
:105320009A4219D17B68991DBA897B890846114632
:105330001A46012304F09EFF03463B723B7A002B82
:1053400006D03B7A1846FFF741F80346FB7306E0A8
:105350003B6805221A8002E00323FB7302E001E0B0
:105360000323FB73FB7B18461037BD4680BD00BF8F
:1053700080B586B000AF786039600023FB753B686C
:105380001B88052B5FD17B6801331B789BB21B0206
:10539000BB827B6802331B789AB2BB8A1343BB8201
:1053A000BB8A0133BB827B6803331B789BB21B0231
:1053B0007B827B6804331B787B827B8A002B3ED008
:1053C0007B8A7D2B3BD87B68FB603B6800221A8080
:1053D000FB685A1CFA6003221A703B681B88013371
:1053E0009AB23B681A80FB685A1CFA607A8AD2B279
:1053F0005200D2B21A703B681B8801339AB23B68E4
:105400001A80BA8A7B8AF86811461A46002304F08B
:1054100031FF0346FB72FB7A002B06D0FB7A18465D
:10542000FEF7D4FF0346FB750CE03B681A887B8AC5
:105430005B009BB213449AB23B681A8002E00323DC
:10544000FB7502E001E00323FB75FB7D184618376E
:10545000BD4680BD80B586B000AF7860396000235E
:10546000FB753B681B88092B40F29F807B680133EA
:105470001B789BB21B02BB827B6802331B789AB2FB
:10548000BB8A1343BB82BB8A0133BB827B68033375
:105490001B789BB21B027B827B6804331B789AB219
:1054A0007B8A13437B827B6805331B789BB21B028C
:1054B0003B827B6806331B789AB23B8A13433B825C
:1054C0003B8A01333B827B6807331B789BB21B020C
:1054D000FB817B6808331B789AB2FB891343FB81FD
:1054E0007B685B7A7B737B8A002B5CD07B8A7D2B0D
:1054F00059D8FB89002B56D0FB89792B53D8FB89CF
:105500005A007B7B9A424ED17B6803F10A013A8AAA
:10551000FB89084611461A46012304F0ABFE0346F8
:10552000BB75BB7D002B33D17B68BB603B68002221
:105530001A80BB685A1CBA6017221A703B681B8815
:1055400001339AB23B681A80BB685A1CBA607A8AE7
:10555000D2B25200D2B21A703B681B8801339AB2A1
:105560003B681A80BA8A7B8AB86811461A460023BB
:1055700004F080FE0346BB75BB7D002B08D13B6861
:105580001A887B8A5B009BB213449AB23B681A80EC
:10559000BB7D002B06D0BB7D1846FEF717FF0346E8
:1055A000FB7502E001E00323FB75FB7D184618370D
:1055B000BD4680BD80B586B000AF78600B467B806D
:1055C00000237B617B683B6117E03B691B789BB2E2
:1055D0001B02FB813B6901333B613B691B789AB23B
:1055E000FB891343FB813B6901333B61FB897A698A
:1055F00013447B617B88023B7B807B88012BE4D852
:105600007B88002B08D03B691B789BB21B02FB8177
:10561000FB897A6913447B617B691A0C7B699BB2B5
:1056200013447B617B691B0C1B04002B05D07B6939
:105630001A0C7B699BB213447B617B699BB2184651
:1056400002F058F9034618461837BD4680BD00BF22
:1056500080B582B000AF78600B467B807B8878682D
:105660001946FFF7A7FF0346DB439BB218460837EE
:10567000BD4680BD80B586B000AF786000237B61F9
:105680000023FB737B683B6129E03B695A683B69F7
:105690005B8910461946FFF78DFF03461A467B6962
:1056A00013447B617B691A0C7B699BB213447B6159
:1056B0003B695B8903F001039BB2002B0CD0FB7BA1
:1056C000C3F10103FB737B691B029AB27B6903F48C
:1056D0007F431B0A13437B613B691B683B613B694A
:1056E000002BD2D1FB7B002B08D07B691B029AB226
:1056F0007B6903F47F431B0A13437B617B699BB285
:10570000DB439BB218461837BD4680BD80B500AF5D
:105710004FF4407004F03EF903F010F800F02AFC5A
:1057200000F05CF904F0C4F90020FAF765FFFAF71D
:10573000B5FF012001210E4A0523FCF743FBFAF7D0
:10574000C9FFFFF74BFB0346002B01D000F080F9A7
:10575000084B1B68184600F083F9074B1B78002B99
:1057600004D004F0E3F9044B00221A70E7E700BF0D
:10577000B8000020742C0020602F002080B400AFFF
:10578000044B1B680A33034A1360BD465DF8047B73
:10579000704700BF742C002080B489B000AF7860DF
:1057A0000023BB6100237B610023FB6102233B617B
:1057B0000023FB600223BB60484B9B6803F00C0393
:1057C000BB61BB69042B07D0082B09D0002B3FD14C
:1057D0007B68434A1A603FE07B68424A1A603BE0BC
:1057E0003E4B5B6803F480039B0DFB603B4B5B68A7
:1057F00003F03F03BB60FB68002B0DD0394ABB6848
:10580000B2FBF3F2354B596847F6C0730B409B0966
:1058100003FB02F3FB610CE0314ABB68B2FBF3F21D
:105820002E4B596847F6C0730B409B0903FB02F3EC
:10583000FB612A4B5B6803F440331B0C01335B00B4
:105840003B61FA693B69B2FBF3F27B681A6003E0E3
:105850007B68234A1A6000BF204B9B6803F0F0036B
:10586000BB61BB691B09BB611F4ABB6913441B7841
:10587000DBB27B617B681A687B69DA407B685A60BF
:10588000164B9B6803F4E053BB61BB699B0ABB6189
:10589000154ABB6913441B78DBB27B617B685A688D
:1058A0007B69DA407B689A600C4B9B6803F4604329
:1058B000BB61BB695B0BBB610B4ABB6913441B78C3
:1058C000DBB27B617B685A687B69DA407B68DA60AF
:1058D0002437BD465DF8047B704700BF00380240A6
:1058E0000024F40000127A00C000002080B483B0CD
:1058F00000AF78600B46FB70FB78002B06D009499F
:10590000084B1A6B7B6813430B6306E00549054B94
:105910001A6B7B68DB4313400B630C37BD465DF8A5
:10592000047B70470038024080B483B000AF7860D9
:105930000B46FB70FB78002B06D00949084B1A6C0C
:105940007B6813430B6406E00549054B1A6C7B68C2
:10595000DB4313400B640C37BD465DF8047B704796
:105960000038024080B483B000AF78600B46FB7013
:10597000FB78002B06D00949084B5A6C7B6813430F
:105980004B6406E00549054B5A6C7B68DB431340CA
:105990004B640C37BD465DF8047B7047003802400D
:1059A00080B483B000AF78600B46FB70FB78002BAF
:1059B00006D00949084B1A697B6813430B6106E05E
:1059C0000549054B1A697B68DB4313400B610C37B3
:1059D000BD465DF8047B70470038024090B58FB03B
:1059E00004AFFAF73DFCFDF7B7FE144801F0A6FF3F
:1059F00003467B626FF0FF0001F0A0FF03463B62AD
:105A00000F4801F09BFF0346FB6107F1240107F1FA
:105A1000200207F11C04002300930A4B01930A4B58
:105A200002930A48234601F0AFFF084802F08AF8C3
:105A3000064802F095F82C37BD4690BDC86DA8C049
:105A4000016DA8C0E1640008C5710008886D0020E0
:105A500080B500AF014800F01FFD80BD886D0020BB
:105A600080B582B000AF78607A680D4B1B68D31A9E
:105A7000F92B04D97B680A4A1360FAF765FF7A6844
:105A8000084B1B68D31A41F28732934204D97B68D2
:105A9000044A136000F062FD0837BD4680BD00BFB8
:105AA000782C00207C2C002080B400AFBD465DF82F
:105AB000047B704780B400AFFEE700BF80B400AF46
:105AC000FEE700BF80B400AFFEE700BF80B400AFC8
:105AD000FEE700BF80B400AFBD465DF8047B7047B1
