:020000040800F2
:1000000008D101202D30000839430008454300087D
:100010004D430008554300085D4300080000000000
:1000200000000000000000000000000075830008D0
:10003000654300080000000075850008D5850008AC
:10004000993000089930000899300008993000086C
:10005000993000089930000899300008993000085C
:10006000993000089930000899300008993000084C
:10007000993000089930000899300008993000083C
:10008000993000089930000899300008993000082C
:10009000993000089930000899300008993000081C
:1000A000993000089930000899300008DD75000883
:1000B00099300008993000089930000899300008FC
:1000C00099300008993000089930000899300008EC
:1000D00099300008993000089930000899300008DC
:1000E00099300008993000089930000899300008CC
:1000F00099300008993000089930000899300008BC
:1001000099300008993000089930000899300008AB
:10011000993000089930000899300008993000089B
:10012000517500089930000899300008B975000829
:100130009930000871430008993000089930000890
:10014000993000089930000899300008993000086B
:10015000993000089930000899300008993000085B
:10016000993000089930000899300008993000084B
:10017000993000089930000899300008993000083B
:10018000993000089930000880B483B000AF7860DF
:10019000034A7B6813600C37BD465DF8047B7047EB
:1001A000DC00274280B485B000AF7860294B1B6823
:1001B0007A6812881344FB607A68FB689A421FD001
:1001C000FB681B79002B1BD1234B1B68FA689A42F2
:1001D00016D0224B1A68FB689A4202D11F4A7B68EC
:1001E0001360FB681A887B681A801A4B1B68FA68D0
:1001F000128813447A6817490968521A92B25A80D1
:10020000144B1B687A6852881344BB60BA687B68D9
:100210009A421AD0BB681B79002B16D10F4B1A6873
:100220007B689A4202D10D4ABB6813607B681A88CA
:10023000BB681A80074B1B687A6812881344BA6837
:1002400004490968521A92B25A801437BD465DF8C3
:10025000047B7047380000203C0000204000002054
:1002600080B582B000AF194B033323F003031A4665
:10027000174B1A60164B1B687B607B684FF4A052CB
:100280001A807B6800225A807B6800221A71104B0A
:100290001B6803F5A0530F4A13600E4B1B68012225
:1002A0001A710C4B1B684FF4A0521A80094B1B6843
:1002B0004FF4A0525A80064B1B68074A1360074848
:1002C00007F02CF80837BD4680BD00BF8C770020B2
:1002D000380000203C0000204000002044000020A6
:1002E00080B584B000AF78607B68002B00D125E03A
:1002F000144B1B687A689A42124B1B687A689A42C0
:1003000004D3114B1B687A689A4200D316E00F4859
:1003100007F01CF87B68083BFB60FB6800221A7141
:100320000B4B1B68FA689A4202D2094AFB681360B9
:10033000F868FFF737FF054807F01CF81037BD468F
:1003400080BD00BF380000203C0000204400002099
:100350004000002080B586B000AF78600B467B80FF
:100360007B8803339BB223F003037B807B880B2BBA
:1003700001D80C237B807B88B3F5A05F01D90023D3
:10038000A0E0524B1B687A689A42504B1B687A680F
:100390009A4204D34E4B1B687A689A4201D37B6819
:1003A00090E07B68083B7B617B69484A12689B1A36
:1003B0007B827B691A887B8AD31A9BB2083B3B827B
:1003C0007A883B8A9A4201D900237BE07A883B8A6B
:1003D0009A4201D17B6875E03E4806F0B7FF3B4B7F
:1003E0001B687A6912881344FB60FB681B79002B39
:1003F00032D1FB681B887B817A8A7B8813449BB24D
:1004000008333B81344B1A68FB689A4205D12F4B65
:100410001A683B891344304A13602C4B1A683B8995
:100420001344FB60FB6800221A71FB687A891A800A
:10043000FB687A8A5A807B693A891A80FB681B8834
:10044000B3F5A05F07D0214B1B68FA6812881344EC
:100450003A895A8032E031E07B8803F114023B8A0A
:100460009A422BD87A8A7B8813449BB208333B810B
:10047000164B1A683B891344FB60174B1B68FA68DC
:100480009A4202D2144AFB681360FB6800221A7178
:100490007B691A88FB681A80FB687A8A5A807B69B4
:1004A0003A891A80FB681B88B3F5A05F06D0074B1A
:1004B0001B68FA68128813443A895A80054806F086
:1004C00059FF7B6818461837BD4680BD38000020AC
:1004D0003C000020440000204000002080B588B08F
:1004E00000AF0346FB80FB88002B01D100239AE07C
:1004F000FB8803339BB223F00303FB80FB880B2BA9
:1005000001D80C23FB80FB88B3F5A05F01D9002341
:1005100089E0474806F01AFF464B1B681A46464BCF
:100520001B68D31AFB8374E0434B1A68FB8B13449C
:100530007B617B691B79002B65D17B691B881A461F
:10054000FB8BD31AA3F10802FB889A425BD37B6929
:100550001B881A46FB8BD31AA3F10802FB881433BD
:100560009A4227D3FA8BFB8813449BB208337B82D1
:10057000314B1A687B8A1344FB60FB6800221A71B6
:100580007B691A88FB681A80FB68FA8B5A807B6942
:100590007A8A1A807B6901221A71FB681B88B3F57D
:1005A000A05F0AD0244B1B68FA68128813447A8A29
:1005B0005A8002E07B6901221A711E4B1B687A691E
:1005C0009A421AD11B4B1B68BB6105E01A4B1B6892
:1005D000BA6912881344BB61BB691B79002B04D034
:1005E000164B1B68BA699A42F0D1124ABB69136074
:1005F000104B1A68114B1B689A420D4806F0BAFE60
:100600007B6908330FE00C4B1A68FB8B13441B8883
:10061000FB83FA8BFB88C3F5A0539A4284DB044822
:1006200006F0A8FE002318462037BD4680BD00BF57
:100630004400002040000020380000203C00002042
:1006400080B400AFBD465DF8047B704780B500AF55
:1006500000F044FC074B1B780133DAB2054B1A70EB
:10066000044B1B7803F00103002B01D000F020FAAB
:1006700080BD00BF48000020B0B586B002AF7860F2
:100680000B46FB70FB78002B67D07B681B7E042B2E
:1006900003D07B681B7E072B5FD17B685B6F002BD1
:1006A00005D17B689B8D40F66832934255D07B68BC
:1006B000186D7B68996A7D687B681C1D7B685A8B06
:1006C0007B689B8B009201932A46234609F0D2F95E
:1006D000786800F0FFFD764B1A687B689A4205D176
:1006E000734B1B68DB68724A136019E0704B1B6820
:1006F000704A136010E06F4B1B68DA687B689A429F
:1007000005D16C4B1B687A68D268DA6008E0694BE7
:100710001B68DB68674A1360664B1B68002BEAD1D5
:100720007B680022DA60644B01221A707B681B7EB2
:10073000042B0CD17B680A221A76604B1A687B68FE
:10074000DA605E4A7B68136003F062FE03E0022019
:10075000796802F069FB0023A4E07B681B7E072B0D
:1007600000F2908001A252F823F000BF8D0700082C
:10077000F707000811080008310800084D080008B4
:100780008508000885080008690800080023FB7335
:100790007B685B8B002B27D0494B1A687B689A4299
:1007A00005D1474B1B68DB68454A136019E0444B91
:1007B0001B68404A136010E03E4B1B68DA687B6898
:1007C0009A4205D13B4B1B687A68D268DA6008E030
:1007D000384B1B68DB68374A1360364B1B68002BAD
:1007E000EAD17B680022DA600220796802F01CFB03
:1007F00000237B604BE00023FB733248796800F0F4
:10080000A1FD0320796802F00FFB00237B603EE02E
:100810000023FB732648796800F094FD264B0122E3
:100820001A700220796802F0FFFA00237B602EE044
:10083000786808F063FD0346FB7397F90F30002BCF
:1008400003D17B6805221A7621E020E0786808F061
:1008500055FD0346FB7397F90F30002B03D17B68DE
:1008600005221A7613E012E0786808F047FD034687
:10087000FB7397F90F30002B03D17B6809221A769E
:1008800005E004E00023FB7300237B6000BF7B686E
:10089000002B06D097F90F30002B02D1786808F0B2
:1008A000EFFEFB7B5BB218461037BD46B0BD00BF04
:1008B000A48B0020B08B0020A08B0020B88B0020E0
:1008C000B48B0020AC8B002080B582B000AF786084
:1008D0007B681B7E012B06D07B689B7F43F0100357
:1008E000DAB27B689A7778680121FFF7C5FE034684
:1008F00018460837BD4680BDB0B588B002AF7860F5
:1009000039607B681B7E0A2B08D12848796800F083
:1009100019FD0220796802F087FA43E07B681B6DBD
:100920007B617B689B6A3B617B68D3F88830FB60A6
:100930007B681B69BB601E48796800F003FD1D4B96
:1009400001221A707B681B6F002B04D07B681B6F21
:10095000184600F077FB7B68DB6E002B04D07B68C9
:10096000DB6E184600F06EFB3B68002B0ED07D68F6
:100970007B681C1D7B685A8B7B689B8B0092019364
:10098000786939692A46234609F074F802207968A3
:1009900002F04AFAFB68002B04D0FB68B8686FF0DD
:1009A000090198471837BD46B0BD00BFB88B00207D
:1009B000A48B0020A08B002080B582B000AF7860AF
:1009C00078680121FFF798FF0837BD4680BD00BF5A
:1009D00080B485B000AF78607B689B6A7A68928D3E
:1009E0001344FB607B681B6B7A68D28E40F2B45173
:1009F0008A4202D87A68D28E01E040F2B45213449F
:100A0000FA68D31A002B08DB7B689A8D7B68DA853D
:100A10007B681B6BFA68D31A15E07B689A6A7B685F
:100A20001B6BD31A002B03DD7B680022DA8509E0FB
:100A30007B681A6B7B689B6AD31ABB60BB689AB2EF
:100A40007B68DA85002318461437BD465DF8047BC1
:100A5000704700BF80B584B000AF78600B467B80E4
:100A60007B689A8D7B8813449AB27B689A857B68F1
:100A70009B8D40F66832934203D97B6840F668321A
:100A80009A857868FFF7A4FF0346FB60FB6840F295
:100A9000D922934209DD7B689B7F43F00203DAB2DF
:100AA0007B689A77786808F0EBFD1037BD4680BD0B
:100AB000B0B58AB002AF00237B75A74B1B6801332A
:100AC000A54A1360A54B1B780133DAB2A34B1A7009
:100AD0000023BB61A24B1B68FB61BAE1FB6993F881
:100AE00021209E4B1B789A4203D1FB69DB68FB6196
:100AF000AFE19A4B1A78FB6983F821200023FB753C
:100B00000023BB75FB691B7E022B08D1FB6993F8A0
:100B10004630062B03D1FB7D0133FB7595E0FB6965
:100B200093F846300C2B03D1FB7D0133FB758CE031
:100B3000FB6993F89130002B27D0FB6993F8903034
:100B40000133DAB2FB6983F89020FB6993F89020B7
:100B5000FB6993F89130013B8249CB5C9A4274D394
:100B6000FB69002283F89020FB6993F89130062BF3
:100B700007D8FB6993F891300133DAB2FB6983F847
:100B80009120F86909F0CAF85FE0FB699B8E1BB2FF
:100B9000002B07DBFB699B8E9BB201339BB29AB2A1
:100BA000FB699A86FB691B6F002B4ED0FB699A8EFE
:100BB000FB69B3F8443012B21BB29A4245DBFB69C1
:100BC0001B7E022B16D0FB69B3F840301BB2DB1042
:100BD0009BB21AB2FB69B3F842301BB21344FA69F4
:100BE00092F846201146604A525C93409AB2FB69E3
:100BF000A3F84420FB6900229A86FB69B3F86020C1
:100C0000FB69B3F84C30934228BF13467B827B8A42
:100C10005B089AB2FB69A3F84E20FB69B3F84E302B
:100C20001A46FB69DB8E5B009A4206DAFB69DB8EB3
:100C30005B009AB2FB69A3F84E20FB69DA8EFB6970
:100C4000A3F84C20F86908F071FFFB691B7E062BA6
:100C50000FD1FB699B7F03F01003002B09D03E4BA3
:100C60001A68FB695B6AD31A282B02D9FB7D013312
:100C7000FB75FB691B7A03F00803002B41D0FB696D
:100C80001B7E042B03D0FB691B7E072B39D1324B13
:100C90001A68FB695B6AD21AFB69D3F88C3003F5DA
:100CA000242303F6B8433149A1FB03135B099A429D
:100CB00006D9FB7D0133FB75BB7D0133BB7520E09D
:100CC000254B1A68FB695B6AD21AFB69D3F88C1052
:100CD000FB6993F892301846254B03FB00F30B4455
:100CE0002249A1FB03135B099A420AD9F86908F06B
:100CF000E9FFFB6993F892300133DAB2FB6983F8BC
:100D00009220FB691B7E032B09D1134B1A68FB69E8
:100D10005B6AD31A282B02D9FB7D0133FB75FB6973
:100D20001B7E092B09D10C4B1A68FB695B6AD31A2D
:100D3000F02B02D9FB7D0133FB75FB7D002B52D0DC
:100D4000F86900F0C7FABB69002B13D0FB69DA68B9
:100D5000BB69DA6012E000BFA88B002049000020C8
:100D6000A48B0020B4A10008A4A10008D34D6210F8
:100D7000F8240100FB69DB68544A1360BB7D002B3B
:100D800010D0FB69186DFB69996AFD69FB691C1D30
:100D9000FB695A8BFB699B8B009201932A46234681
:100DA00008F068FEFB69D3F88830FB60FB691B69BB
:100DB000BB60FB697B60FB69DB68FB6102207968D3
:100DC00002F032F8424B00221A70FB68002B04D06C
:100DD000FB68B8686FF0090198473D4B1B78002B02
:100DE00000D075E635E0FB69BB61FB69DB68FB6140
:100DF000BB69DB7F0133DAB2BB69DA77BB69DA7FC3
:100E0000BB6993F820309A4223D3BB690022DA777A
:100E10002F4B00221A70BB69D3F88430002B0AD004
:100E2000BB69D3F88430BA6912691046B96998472A
:100E300003467B7501E000237B75254B1B78002B57
:100E400000D045E697F91530002B02D1B86908F0BB
:100E500017FCFB69002B7FF441AE0023BB611D4BE7
:100E60001B68FB612CE00023FB751B4B1A68FB69B8
:100E70005B6AD31AF02B02D9FB7D0133FB75FB7D36
:100E8000002B18D0F86900F025FABB69002B04D0BC
:100E9000FB69DA68BB69DA6003E0FB69DB680D4A6D
:100EA0001360FB693B60FB69DB68FB61022039680A
:100EB00001F0BAFF04E0FB69BB61FB69DB68FB6121
:100EC000FB69002BCFD12037BD46B0BDA48B0020DD
:100ED000A08B0020B88B0020A88B002080B582B0AA
:100EE00000AF234B1B780133DAB2214B1A70214B30
:100EF0001B687B6036E07B6893F821201C4B1B78D5
:100F00009A422FD01A4B1A787B6883F821207B688D
:100F10009B7F03F00103002B10D07B689B7F43F085
:100F20000203DAB27B689A77786808F0A9FB7B68DD
:100F30009B7F23F00303DAB27B689A777B68DB68D8
:100F40003B607B685B6F002B0AD00B4B00221A7052
:100F5000786800F013F8084B1B78002B00D0C6E728
:100F60003B687B607B68002BC5D10837BD4680BDE0
:100F700049000020A48B0020A08B002090B585B0F4
:100F800000AF78607B685B6F5B7BBB737B685B6F7C
:100F9000BB607B6800225A677B68DB6F002B0BD03D
:100FA0007B68DC6F7B681B6918467968BA68002328
:100FB000A0470346FB7307E000207968BA68002366
:100FC00000F06CF80346FB7397F90F30002B29D122
:100FD000BB7B03F02003002B2ED07B689B8D40F65B
:100FE0006832934205D07B689B8D01339AB27B684F
:100FF0009A857B68DB6F002B0BD07B68DC6F7B688E
:101000001B691846796800220023A0470346FB733A
:1010100001E00023FB7397F90F3013F10A0F0BD196
:10102000F6230AE097F90F3013F10A0F01D1F623E6
:1010300003E07B68BA685A6700235BB2184614372E
:10104000BD4690BD80B584B000AF786007E07B6896
:101050001B68FB60786800F009F8FB687B607B68C0
:10106000002BF4D11037BD4680BD00BF80B582B0E3
:1010700000AF78607B68002B0CD07B685B68002B2E
:1010800004D07B685B68184605F026FD042079686B
:1010900001F0CAFE0837BD4680BD00BF80B584B0F0
:1010A00000AFF860B9607A60FB707B68002B09D0F4
:1010B0007B681B89B8681946FFF7CCFC786805F097
:1010C0000BFD08E097F90330002B04D1B868FFF757
:1010D000FBFB034600E000235BB218461037BD4619
:1010E00080BD00BF80B586B000AF0346FB717F2393
:1010F000FB720023FB6000233B61184B1B687B6184
:101100001FE07B695B7EFA799A4217D37B695B7E2D
:10111000FA7A9A4212D3124B1A687B695B6AD21A26
:10112000FB689A420AD30E4B1A687B695B6AD31A32
:10113000FB607B693B617B695B7EFB727B69DB6883
:101140007B617B69002BDCD13B69002B02D03869C5
:10115000FFF732FC1837BD4680BD00BFA48B0020CE
:10116000A88B002080B584B000AF00237B600023F3
:10117000BB60114B1B68FB6012E0104B1A68FB68E8
:101180005B6AD21A7B689A4207D30C4B1A68FB68D9
:101190005B6AD31A7B60FB68BB60FB68DB68FB6043
:1011A000FB68002BE9D1BB68002B02D0B868FFF7C1
:1011B00003FC1037BD4680BDB88B0020A88B0020F3
:1011C00080B584B000AF0346FB71022001F00AFE37
:1011D000F860FB68002B10D1FFF7C4FF022001F07C
:1011E00001FEF860FB68002B07D1FB791846FFF77A
:1011F00079FF022001F0F6FDF860FB68002B5CD05F
:10120000F8680021942208F02DFFFB68FA795A76DD
:10121000FB6841F68442A3F86620FB680022A3F82D
:101220006820FB6840F668329A85FB6840F66832B1
:10123000DA85FB6800225A72FB68FF229A72FB680B
:101240004FF40672DA86FB680622A3F84420FB6896
:101250000022A3F84020FB680622A3F84220FB6886
:101260004FF6FF729A86FB680122A3F84C2000F02B
:10127000BDF8B860FB68BA689A65FB68BA681A6519
:10128000FB68BA689A64FB68BA68DA650D4B1A683D
:10129000FB685A620C4B1A78FB6883F82120FB68C4
:1012A0000022DA77FB68094ADA67FB68084AC3F864
:1012B0008C20FB68002283F89220FB6818461037C8
:1012C000BD4680BDA88B0020490000209D1000086D
:1012D00000DD6D0080B582B000AF78607B681B7E5A
:1012E000002B2CD07B681B7E0A2B28D07B681B7EB2
:1012F000012B24D07B685B6F002B07D07B685B6F72
:10130000184605F0E9FB7B6800225A677B684FF6B8
:10131000FF729A867B68DB6E1846FFF793FE7B6848
:101320001B6F1846FFF78EFE7B680022DA667B682B
:10133000DA6E7B681A677B680022A3F86A20083798
:10134000BD4680BD80B582B000AF786039607B68F3
:101350001A683B689A4205D17B681B68DA687B682B
:101360001A6019E07B681B681F4A136010E01E4B6F
:101370001B68DA683B689A4205D11B4B1B683A68C8
:10138000D268DA6008E0184B1B68DB68164A136005
:10139000154B1B68002BEAD13B680022DA603868E5
:1013A000FFF798FF3B681B7E0A2B13D03B681B7E20
:1013B000012B0FD03B689B7F03F00103002B09D06A
:1013C0003B689B7F43F00203DAB23B689A77386848
:1013D00008F056F93B681B7E012B3B6800221A7609
:1013E0000837BD4680BD00BFB08B002080B400AF81
:1013F000064B1A68064B1B681344044A1360034BE0
:101400001B681846BD465DF8047B70470400002049
:10141000A88B002080B584B000AF03463960FB8004
:10142000386807F06FFAF860FB68002B0DD0FB6896
:101430001B8C002B09D0FB681B8C283B7B817A8995
:10144000FB88934228BF1346FB80FB881846103761
:10145000BD4680BD90B589B002AF786039607B68C9
:101460005B688E4A13607B685B688C4A12681278EE
:1014700002F00F0292001344894A1360874B1B68E5
:101480001B789BB203F00F039BB29B009BB25B42A5
:101490009BB29BB21BB27868194605F0ADFA0346C1
:1014A000002B40F0B7827B681B89132B40F2B2827D
:1014B0007C4B1B681846396802F006FD0346002B7A
:1014C00040F0A882774B1B6803F0F003E02B00F09C
:1014D000A182734B1B689B899BB2184603F02AFAC2
:1014E00003461B0B9BB2BB72BB7A9BB21A4692039C
:1014F000D31A9B009BB29BB21BB27868194605F0C9
:101500007BFA0346002B00D084E2654B1C68644BD9
:101510001B681B889BB2184603F00CFA0346238015
:101520005F4B1C685E4B1B685B889BB2184603F0E0
:1015300001FA034663805A4B1C68594B1B685B6871
:10154000184603F01FFA034663606368564A136047
:10155000534B1C68524B1B689B68184603F012FAE9
:101560000346A360A368514A13604D4B1C684C4B63
:101570001B68DB899BB2184603F0DCF90346E38164
:10158000474B1B689B899BB2184603F0D3F903466F
:10159000DBB203F03F03DAB2454B1A707B681A895D
:1015A000434B1B7803F00303002B14BF01230023DC
:1015B000DBB29BB213449AB23E4B1A8000233B61CC
:1015C0003D4B1B687B6130E07B699A8B344B1B6819
:1015D0001B889BB29A4223D17B695A8B304B1B6884
:1015E0005B889BB29A421BD17B695A68334B1B685C
:1015F0009A4215D17B691A682A4B1B689A420FD10F
:101600003B69002B0BD07B69DA683B69DA602A4BB7
:101610001A687B69DA60284A7B69136008E007E092
:101620007B693B617B69DB687B617B69002BCBD18C
:101630007B69002B7DD1224B1B687B6125E07B6998
:101640009A8B174B1B681B889BB29A421AD17B69F5
:101650005A8B134B1B685B889BB29A4212D17B69F1
:101660005A68164B1B689A420CD17B691A680D4B5D
:101670001B689A4206D1786900F0AEFA786805F0E6
:101680002BFACAE17B69DB687B617B69002BD6D1D1
:1016900000233B610B4B1B68FB602FE060000020C8
:1016A0005C000020FCC801206400002068000020CD
:1016B0006C0000206E000020A48B0020F4C80120E4
:1016C000B88B0020AC8B0020FB685A8B954B1B68B5
:1016D0005B889BB29A420CD1FB681A68924B1B68DC
:1016E0009A420ED0FB68002B0BD0FB681B68002BC6
:1016F00007D0FB683B61FB68DB68FB60FB68002B85
:10170000E2D1FB68002B14D03B69002B0AD0FB68A8
:10171000DA683B69DA60854B1A68FB68DA60834AED
:10172000FB681360F86800F08DF9786805F0D4F96B
:1017300073E17B69002B00F046817D4B00221A602B
:101740007B681A897A4B1A81794A7B685360754B9A
:101750001B68774AD360774B00221A60764B0022D1
:101760001A70764B1B7803F00803002B06D07B68B9
:101770005B7B43F00103DAB27B685A737B695B6F72
:10178000002B10D07869FFF7F9FB034613F10A0F1D
:1017900000F006817B695B6F002B04D0684B1B88CF
:1017A000002B40F0FD80674A7B691360786900F088
:1017B0007FFA0346FB7297F90B3013F10A0F00F022
:1017C000EF805D4B1B7803F00803002B16D07B697C
:1017D000D3F88830002B08D07B69D3F888307A6939
:1017E000126910466FF00A01984757487969FFF768
:1017F000A9FD0220796901F017FBD1E04E4B1B785F
:1018000003F01003002B1CD07B699B7F03F01003B7
:10181000002B0DD17B69D3F88830002B08D07B6971
:10182000D3F888307A69126910466FF00B01984737
:1018300045487969FFF786FD0220796901F0F4FADD
:10184000AEE00023FB727B69B3F86430002B18D044
:101850007B699B6F002B0CD07B699B6F7A69116948
:101860007A69B2F864200846796998470346FB72A2
:1018700001E00023FB7297F90B3013F10A0F00D13E
:101880008EE02C4B1B68002B38D07B699B7F03F0CC
:101890001003002B08D0274B1B68184605F01CF9D5
:1018A0007869FFF789F87BE07B69DB6F002B0DD04F
:1018B0007B69DC6F7B691A691E4B1B68104679696E
:1018C0001A460023A0470346FB7209E0194B1B6828
:1018D000002079691A460023FFF7E0FB0346FB72FC
:1018E00097F90B3013F10A0F00D159E097F90B303B
:1018F000002B03D00F4B1A687B695A670E4B1B787D
:1019000003F02003002B45D07B695B6F002B1DD0BB
:101910007B695B6F7A69526F527B42F02002D2B2D0
:101920005A7337E05C000020FCC80120AC8B00201B
:101930004C00002074000020700000206C0000208B
:101940006E000020BC8B0020A48B00207B699B8D47
:1019500040F66832934205D07B699B8D01339AB281
:101960007B699A857B69DB6F002B0BD07B69DC6F11
:101970007B691B691846796900220023A04703464A
:10198000FB7201E00023FB7297F90B3013F10A0F91
:1019900000D105E0224B00221A60786907F070FE42
:1019A0001F4B00221A601F4B00221A601E4B5B68FF
:1019B000002B2ED01C4B5B68184605F08DF81A4B97
:1019C00000225A6025E0194B1B689B899BB2184680
:1019D00002F0B0FF034603F00403002B15D1144BB3
:1019E0001868144B1B881A46134B1B68D1180F4BF1
:1019F0001B685B889AB20D4B1B681B889BB20092D8
:101A000001930E4A0E4B08F035F8786805F064F83B
:101A100003E002E0786805F05FF81C37BD4690BD32
:101A2000BC8B0020740000204C0000205C000020D3
:101A3000680000206E00002064000020FCC8012027
:101A4000F4C8012080B586B002AF7860594B1B788E
:101A500003F00403002B01D00023A5E0554B1B78B5
:101A600003F01003002B16D0534B1868534B1B8800
:101A70001A46534B1B68D118524B1B685B889AB2AD
:101A8000504B1B681B889BB2009201934E4A4F4BF0
:101A900007F0F0FF87E0474B1B7803F00203002BB1
:101AA00000F081807B685B7E1846FFF789FBF86059
:101AB000FB68002B01D1FF2376E0434B1A68FB68DB
:101AC0001A607B685A8BFB685A83404B1A68FB6824
:101AD0005A603C4B1B681B889AB2FB689A83FB6870
:101AE00003221A76364B1B685A1CFB689A62FB6805
:101AF0009A6AFB681A63334B1B68DB899AB2FB68EE
:101B0000A3F860202F4B1B68DB899AB2FB68A3F80F
:101B10006220FB68B3F86020FB68A3F84E20284BD6
:101B20001B685A1EFB685A657B681A69FB681A6154
:101B30007B685A69FB685A617B681B7A23F07303E0
:101B4000DAB2FB681A72224B1A68FB68DA60204A24
:101B5000FB68136002F05CFC1E4B01221A70F868EF
:101B600001F072F8FB68DA8EFB6804331046194600
:101B7000FFF750FC03461A46FB68DA86F868122124
:101B800007F07EFC0346FB7297F90B30002B05D063
:101B9000F8680021FEF7B0FEFB7A05E0F86807F070
:101BA0006FFD034600E000235BB218461037BD46C8
:101BB00080BD00BF6C000020680000206E00002087
:101BC000640000205C000020FCC80120F4C8012053
:101BD000A48B0020A08B002080B584B002AF786079
:101BE0002B4B1B7803F00403002B01D0002349E0AA
:101BF000274B1B7803F00203002B28D0254B1A68D3
:101C00007B689B6AD31A002B2BDB224B1A687B68FC
:101C10009B6A7968898D0B44D31A002B21DC1E4BFB
:101C200018681E4B1B881A461A4B1B68D1181C4B90
:101C30001B685B889AB21A4B1B681B889BB2009288
:101C40000193184A184B07F015FF00231AE0104BB8
:101C50001B7803F00103002B03D0144B1A687B6838
:101C60005A620E4B1B88002B0BD07B689B7F43F086
:101C70000203DAB27B689A77786807F001FD0346C1
:101C800000E000235BB218460837BD4680BD00BFA8
:101C90006C00002064000020680000206E0000201E
:101CA0005C000020FCC80120F4C80120A88B0020A3
:101CB00080B588B002AF78600023FB750023BB7548
:101CC000A44B1B7803F00403002B34D07B681B7EED
:101CD000022B08D17B681A6D9F4B1B689A4215D165
:101CE0000123FB7512E09D4B1A687B689B6AD31A2F
:101CF000002B0BDB994B1A687B689B6A7968898D8E
:101D00000B44D31A002B01DC0123FB75FB7D002B58
:101D10000FD0934B1B7843F00803DAB2904B1A7044
:101D20007B689B7F23F00103DAB27B689A77F52307
:101D300007E3002305E3874B1B7803F00203002B26
:101D400010D07B681B7E022B0CD07B681B7E032B84
:101D500008D07B689B7F43F00203DAB27B689A77F6
:101D60000023EEE27B689B7F03F01003002B03D17E
:101D70007C4B1A687B685A627B68002283F8922049
:101D8000786800F061FF7B681B7E023B072B00F246
:101D9000D68201A252F823F0B91D0008791F00086D
:101DA000A1200008CB200008B1210008A1200008D4
:101DB000792200080F230008664B1B7803F01003FC
:101DC000002B00F0A980634B1B7803F00203002B6B
:101DD00000F0A2807B681B6FDB685B68184602F02E
:101DE000D1FD03465A1C5C4B1B689A4240F094801C
:101DF0007B68B3F8663001339AB27B68A3F866203B
:101E0000564B1B685A1C7B689A627B689A6A7B688F
:101E10001A63514B1A687B689A64534B1B68DB89C1
:101E20009AB27B68A3F860204F4B1B68DB899AB29B
:101E30007B68A3F86220494B1B685A1E7B685A6571
:101E40007B6804221A767B68DA8E7B68043310463E
:101E50001946FFF7DFFA03461A467B68DA867B6885
:101E6000DB8E1A46920013445B009AB27B68A3F89B
:101E70004E207B68B3F84C30012B04D17B68DB8E9D
:101E80005B009BB201E07B68DB8E7A68A2F84C3085
:101E90007B68B3F86830013B9AB27B68A3F868208E
:101EA0007B681B6F3B613B691A687B681A673869FE
:101EB000FFF7DCF87B681B6F002B04D17B684FF6C3
:101EC000FF729A8606E07B6800229A867B68002271
:101ED00083F846207B68D3F88030002B0BD07B68DA
:101EE000D3F880307A6812691046796800229847E2
:101EF0000346BB7501E00023BB7597F9163013F15B
:101F00000A0F01D1F6231CE27B689B7F43F002039A
:101F1000DAB27B689A771CE00E4B1B7803F0100353
:101F2000002B16D00C4B1868104B1B881A460B4B15
:101F30001B68D1180C4B1B685B889AB20A4B1B6854
:101F40001B889BB200920193094A0A4B07F092FD4D
:101F5000F6E1F5E16C00002068000020640000203C
:101F600070000020A88B00205C0000206E00002084
:101F7000FCC80120F4C801209C4B1B7803F010031F
:101F8000002B7BD09A4B1A687B689B6CD31A013B61
:101F9000002B5BDB964B1A687B681B6DD31A002BFA
:101FA00054DC7B6804221A767B685B69002B0AD0BC
:101FB0007B685B697A6812691046796800229847E5
:101FC0000346BB7501E0F223BB7597F91630002B71
:101FD00009D097F9163013F10A0F02D07868FEF78E
:101FE000EBFCF623ADE17B68B3F84C30FB817868FD
:101FF00000F0BAF97B68B3F86430002B07D07B6837
:10200000B3F86430013B9AB27B68A3F86420FB8983
:10201000012B04D17B68DB8E5B009BB201E07B6807
:10202000DB8E7A68A2F84C30724B1B7803F02003E9
:10203000002B0AD07B689B7F43F00203DAB27B68F7
:102040009A777B6807221A7617E016E0684B1868C3
:10205000694B1B881A46694B1B68D118684B1B6873
:102060005B889AB2664B1B681B889BB200920193F7
:10207000644A654B07F0FEFC11E010E05B4B1B78F7
:1020800003F00203002B0AD07B689B6A5A1E5B4B4D
:102090001B689A4203D1786807F078FD50E14FE160
:1020A000786800F061F9534B1B7803F02003002B94
:1020B0000AD07B689B7F43F00203DAB27B689A7791
:1020C0007B6807221A763BE13AE1786800F04CF928
:1020D000484B1B7803F02003002B58D0434B1B7850
:1020E00003F01003002B47D07B681A6D404B1B6830
:1020F0009A4241D17B689B7F43F00203DAB27B684E
:102100009A777868FFF7E6F8404B1A687B689A423E
:1021100005D13E4B1B68DB683C4A136019E03B4B22
:102120001B683B4A136010E0394B1B68DA687B6818
:102130009A4205D1364B1B687A68D268DA6008E0AB
:10214000334B1B68DB68324A1360314B1B68002B32
:10215000EAD17B680022DA602E4B01221A707B687C
:102160000A221A762C4B1A687B68DA602A4A7B6846
:10217000136002F04DF91AE07B689B7F43F0020385
:10218000DAB27B689A777B6808221A760FE0174BE1
:102190001B7803F01003002B09D07B681A6D144BD9
:1021A0001B689A4203D17B6806221A76C8E0C7E012
:1021B000786800F0D9F80F4B1B7803F02003002B50
:1021C00059D07B689B7F43F00203DAB27B689A7731
:1021D0007868FFF77FF80D4B1A687B689A421DD12B
:1021E0000A4B1B68DB68094A136031E06C00002071
:1021F00068000020700000206E00002064000020B5
:102200005C000020FCC80120F4C80120A48B002041
:10221000B08B0020A08B0020B88B00204B4B1B689C
:102220004B4A136010E04A4B1B68DA687B689A429D
:1022300005D1474B1B687A68D268DA6008E0444BE6
:102240001B68DB68424A1360414B1B68002BEAD1D4
:102250007B680022DA603F4B01221A707B680A22F9
:102260001A763D4B1A687B68DA603B4A7B681360DC
:1022700002F0CEF864E063E0786800F075F8374B60
:102280001B7803F01003002B40D07B681A6D344B91
:102290001B689A423AD17868FFF71CF82B4B1A68F2
:1022A0007B689A4205D1294B1B68DB68274A13607B
:1022B00019E0264B1B68264A136010E0244B1B686C
:1022C000DA687B689A4205D1214B1B687A68D2682C
:1022D000DA6008E01E4B1B68DB681D4A13601C4B6C
:1022E0001B68002BEAD17B680022DA60194B0122BF
:1022F0001A707B680A221A76174B1A687B68DA60B4
:10230000154A7B68136002F083F819E018E07868DA
:1023100000F02AF8114B1B7803F01003002B0DD0AE
:102320007B681A6D0E4B1B689A4207D10D4B1B78C8
:1023300043F01003DAB20B4B1A7001E000E000BF6B
:1023400000235BB218461837BD4680BDA48B002021
:10235000B08B0020A08B0020B88B00206C000020E8
:102360006800002070000020F0B58BB000AF7860EE
:102370000023BB61A54B1B7803F01003002B00F07A
:10238000BC827B68B3F860301A467B689B6D13444F
:102390007B617B685A6D9E4B1B68D31A002B1BDB3D
:1023A0007B685A6D9A4B1B689A4206D17B689A6D7E
:1023B000984B1B68D31A002B0EDB7B689A6D954BEC
:1023C0001B689A4243D1944B1B68DB899AB27B68A5
:1023D000B3F860309A423AD98F4B1B68DB899AB2C6
:1023E0007B68A3F860207B68B3F862208A4B1B6887
:1023F000DB899BB29A4206D2874B1B68DB899AB273
:102400007B68A3F86220824B1A687B685A65814B0F
:102410001A687B689A657B68B3F86030002B0DD131
:102420007B6893F89130002B11D17B68002283F8F0
:1024300090207B68012283F8912008E07B6893F864
:102440009130002B03D07B68002283F89120714BE0
:102450001A687B689B6CD31A002B5CDC7B680022BB
:10246000A3F864206D4B1B88002B4BD17B689B6DC0
:102470007A68B2F860201A447B699A4242D17B683C
:102480009B8E1BB2002B3DDB7B689A6C614B1B68FB
:102490009A4237D10123BB617B6893F847300133FF
:1024A000DAB27B6893F847309A4207D97B6893F891
:1024B00047300133DAB27B6883F847207B6893F8B2
:1024C0004730032B16D97B68B3F84C207B68DB8E32
:1024D00013449AB27B68B3F84C309A4212D97B68A5
:1024E000B3F84C207B68DB8E13449AB27B68A3F868
:1024F0004C2007E07B6893F84730032B02D17868C3
:1025000007F08EFBBB69002B40F023817B68002223
:1025100083F8472067E13F4B1A687B689B6CD31AAE
:10252000013B002BC0F211813A4B1A687B681B6D8E
:10253000D31A002B00F309817B689B7F03F004030F
:10254000002B0CD07B689B7F23F00403DAB27B68FE
:102550009A777B68B3F84E207B68A3F84C207B68A1
:10256000002283F846207B68B3F840301BB2DB10B2
:102570009BB29AB27B68B3F842309BB213449BB2D1
:102580009AB27B68A3F84420224B1B689AB27B68FE
:102590009B6C9BB2D31A9AB27B68A3F864207B68C9
:1025A000B3F866207B68B3F8643013449AB27B6852
:1025B000A3F866207B68002283F84720154B1A6831
:1025C0007B689A647B681B7E032B45D97B68B3F8D4
:1025D0004C207B68B3F84E309A4221D27B68B3F826
:1025E0004C207B68DB8E13449AB27B68B3F84C3086
:1025F0009A4231D97B68B3F84C207B68DB8E134458
:102600009AB27B68A3F84C2068E000BF6C00002001
:1026100064000020680000205C0000206E000020A4
:102620007B68B3F84C207B68DB8E19467B68DB8EB9
:1026300003FB01F37968B1F84C1093FBF1F39BB203
:1026400013447B827B68B3F84C307A8A9A4203D970
:102650007B687A8AA3F84C2040E07B681B6FFB60A4
:102660007B681B6F1A687B681A67FB685B68184693
:1026700004F082FA7B68B3F86430002B13D0FB6857
:10268000DB689B899BB2184602F054F9034603F0BD
:102690000103002B07D07B68B3F86430013B9AB28A
:1026A0007B68A3F86420FB685B68184604F064FA52
:1026B000034619467B68B3F868208BB2D31A9AB2E6
:1026C0007B68A3F86820F868FEF7D0FC7B68B3F855
:1026D0006830002B02D07B681B6F002B7B681B6F60
:1026E000002B22D07B681B6FDB685B68184602F00A
:1026F00049F904467B681B6F1B891D467B681B6F6D
:10270000DB689B899BB2184602F014F9034603F07C
:102710000303002B14BF01230023DBB22B44E21878
:10272000914B1B68D31A002B97DD7B681B6F002B26
:1027300004D17B684FF6FF729A8602E07B68002224
:102740009A867B680022DA7703E07B680022A3F890
:10275000642048E07B68DB6EFB607B68DB6E1A6898
:102760007B68DA667B68DB6E002B03D17B68002216
:10277000A3F86A20FB685B68184604F0FDF97B68E3
:10278000B3F86430002B13D0FB68DB689B899BB2E5
:10279000184602F0CFF8034603F00103002B07D0E0
:1027A0007B68B3F86430013B9AB27B68A3F864207D
:1027B000FB685B68184604F0DFF9034619467B683E
:1027C000B3F868208BB2D31A9AB27B68A3F868205A
:1027D000F868FEF74BFC7B68B3F86830002B02D03A
:1027E0007B681B6F002B7B68DB6E002B29D05E4B58
:1027F0001C687B68DB6EDB685B68184602F0C2F819
:1028000005467B68DB6E1B891E467B68DB6EDB68DA
:102810009B899BB2184602F08DF8034603F0030330
:10282000002B14BF01230023DBB233442B44E31AF3
:10283000002B06DB4C4B1A687B681B6DD31A002BF0
:1028400088DD7B689B6B002B57D07B68DA6B464B2F
:102850001B68D31A002B50DA444B1B689AB27B6872
:102860009B6B9BB2D31A9BB2FB83FA8B7B68B3F84A
:1028700040301BB2DB109BB29BB2D31A9BB2FB83DE
:102880007B68B3F840309AB2FB8B13449BB29AB288
:102890007B68A3F84020B7F91E30002B03DAFB8BCE
:1028A0005B429BB2FB83FA8B7B68B3F842301BB26E
:1028B0009B109BB29BB2D31A9BB2FB837B68B3F88D
:1028C00042309AB2FB8B13449BB29AB27B68A3F856
:1028D00042207B68B3F840301BB2DB109BB29AB247
:1028E0007B68B3F842309BB213449BB29AB27B68C8
:1028F000A3F844207B6800229A631D4B1B88002BA1
:1029000000F07C817B681B7E062B00F277817B6860
:102910009A6A184B1B68D31A013B002B72DB7B6849
:102920009A6A134B1B881946124B1B680B44D31A27
:102930000133002B66DC7B689A6A0E4B1B68D31A46
:102940003B620D4B5B687B620B4B5B685B891A4695
:102950003B6A9A4232DA084B5B681A893B6A9BB23F
:10296000D31A7B8119E000BF68000020A88B0020EB
:102970006E000020640000204C0000207B6A5B8910
:102980001A463B6A9B1A3B627B6A7A891A817B6A88
:1029900000225A817B6A1B687B627B6A5B891A46CC
:1029A0003B6A9A42EADB3B6A9BB25B429BB29BB2B8
:1029B0001BB2786A194604F01FF80BE09D4B5A6869
:1029C0003B6A9BB25B429BB29BB21BB2104619465C
:1029D00004F012F8974B1A89974B1B6899B27B68E1
:1029E0009B6A9BB2CB1A9BB213449AB2914B1A8149
:1029F000904BDB687A68926A8F490A608E4A126847
:102A00005A600DE08C4B1A687B689B6AD31A002BC6
:102A100006DA7B689B7F43F00203DAB27B689A7721
:102A2000854B1A687B689B6AD31A002BC0F2E18041
:102A3000814B1A687B689B6A7968898D0B44D31A2D
:102A40000133002B00F3D5807B689A6A7A4B1B68B0
:102A50009A4240F0CA80774B1C89764BDB689B8991
:102A60009BB2184601F066FF034603F00303002BF8
:102A700014BF01230023DBB29BB223449AB26F4BF5
:102A80001A807B689A8D6D4B1B889A425ED2694B87
:102A9000DB689B899BB2184601F04CFF034603F0AC
:102AA0000103002B1ED0634BDC68624BDB689B8903
:102AB0009BB29BB223F47C539DB25E4BDB689B8937
:102AC0009BB2184601F036FF034603F03E039BB26B
:102AD000184601F019FF03469BB22A4613439BB2E6
:102AE0009BB2A3817B689A8D524B1A81514BDB6854
:102AF0009B899BB2184601F01DFF034603F00203B9
:102B0000002B05D04B4B1B89013B9AB2494B1A81D4
:102B1000484B5A68474B1B891046194603F008FF7B
:102B2000444B1C89434BDB689B899BB2184601F0E0
:102B300001FF034603F00303002B14BF012300230E
:102B4000DBB29BB223449AB23C4B1A803B4B1B88AE
:102B50001A46394B1B681A447B689A627B689A8DC7
:102B6000364B1B88D31A9AB27B689A857868FDF732
:102B70002FFF304B5B681B89002B06D02D4B5B6809
:102B80002F4A13602B4B00225A602A4BDB689B892B
:102B90009BB2184601F0CEFE034603F00103002B62
:102BA00006D0284B1B7843F02003DAB2254B1A706D
:102BB0007B689B7F03F00103002B0ED07B689B7F1B
:102BC00023F00103DAB27B689A777B689B7F43F03E
:102BD0000203DAB27B689A770FE07B689B7F43F051
:102BE0000103DAB27B689A7707E0786806F00EFD99
:102BF00003E0786806F00AFD19E018E00E4B1A6849
:102C00007B689B6AD31A002B0ADB0B4B1A687B6824
:102C10009B6A7968898D0B44D31A0133002B06DD3A
:102C20007B689B7F43F00203DAB27B689A772C378C
:102C3000BD46F0BD4C000020640000206E00002066
:102C4000740000207000002080B586B000AF78606E
:102C50003D4B1B6814333B613B4B1B689B899BB20C
:102C6000184601F067FE03461B0B9BB2052B68D983
:102C7000354B1B689B899BB2184601F05BFE0346EF
:102C80001B0B9BB2053B9BB29B00FB810023FB828D
:102C900051E0FB8A3A6913441B787B737B7B012BE1
:102CA00004D0022B06D0002B4AD033E0FB8A01333C
:102CB000FB8240E0FB8A01333A6913441B78042B02
:102CC00004D1FB8A1A1DFB899A4200DD39E0FB8A98
:102CD00002333A6913441B781B0299B2FB8A03330F
:102CE0003A6913441B789BB20A4613439BB27B811B
:102CF0007B8940F2B452934204D87B89002B01D0E7
:102D00007A8901E040F2B4527B68DA86FB8A0433A8
:102D1000FB8210E0FB8A01333A6913441B78002BD5
:102D200000D10EE0FB8A01333A6913441B789AB252
:102D3000FB8A1344FB82FA8AFB899A42A9D300E0FA
:102D400000BF1837BD4680BD5C00002080B483B052
:102D500000AF00237B8002E07B8801337B807B888F
:102D60000B2BF9D91B4B033323F003037B600023A8
:102D70007B8027E07B88184A002142F8231000233B
:102D80003B8015E07B88144A52F823207B681A6048
:102D90007B8811497A6841F823207B880F4A32F8F2
:102DA00013301A467B6813447B603B8801333B80B9
:102DB0007B880B4A32F813303A889A42E2D37B88F8
:102DC00001337B807B880B2BD4D90C37BD465DF853
:102DD000047B7047A800002078000020CCA10008E8
:102DE000E4A1000880B485B000AF0346FB71FB7915
:102DF0000B2B01D900230EE0FB790A4A52F823304D
:102E0000FB60FB68002B05D0FB79FA681268054966
:102E100041F82320FB6818461437BD465DF8047B53
:102E2000704700BF7800002080B485B000AF034633
:102E30003960FB713B68002B00D10CE03B68FB6004
:102E4000FB79074A52F82320FB681A60FB79044992
:102E5000FA6841F823201437BD465DF8047B7047BB
:102E60007800002080B584B000AF78603F4B1B68CD
:102E7000002B05D03D4B1B683D4A12681046984711
:102E800007F10C033B48194601F0B4FBFB681B78C3
:102E9000052B69D801A252F823F000BFB52E000817
:102EA000C72E0008052F0008272F0008432F000811
:102EB0005B2F0008FB689B681B68FA689268043205
:102EC0001046984751E0FB68DB6893F8293003F01F
:102ED0006003002B08D0FB689A68FB68DB6810462B
:102EE000194602F00BFD07E0FB689A68FB68DB6897
:102EF0001046194605F042FDFB6808201946FFF709
:102F000093FF32E0FB689968FB68DA68FB681B692D
:102F1000084611461A4601F0B9FAFB68072019461F
:102F2000FFF782FF21E0FB68DA68FB681B69104647
:102F3000194601F019FBFB6807201946FFF774FFDB
:102F400013E0FB689B68FA68D26810469847FB68F4
:102F500007201946FFF768FF07E0FB689B68FA68DF
:102F6000D2681046984700E000BF89E7702500202E
:102F7000742500207825002080B584B000AF7860EB
:102F80003960154B1B68002B01D1FA231FE0082084
:102F9000FFF728FFF860FB68002B01D1FF2316E044
:102FA000FB6801221A70FB687A689A60FB683A68CD
:102FB000DA600948F96804F01DF90346002B05D0D2
:102FC0000820F968FFF730FFFF2300E000235BB221
:102FD00018461037BD4680BD7825002080B584B0E6
:102FE00002AF7860396001F05BFB0B4A7B681360CD
:102FF0000A4A3B6813600A48052104F0DFF80323FE
:1030000000930848084900224FF47A7304F0C8F985
:103010000837BD4680BD00BF702500207425002004
:1030200078250020FCA10008652E000880B582B03C
:1030300000AF134B7B60134B3B6007E03B681A1DEE
:103040003A607A68111D796012681A603B680E4A0E
:103050009342F3D30D480E494FF000028842B8BFA7
:1030600040F8042BFADBDFF82C00016841F4700112
:10307000016004F0D5FA01F01FF80837BD4680BDA5
:1030800029A200080000002038000020380000209D
:1030900004C9012088ED00E080B400AFFEE700BF66
:1030A00080B485B000AF78600023FB607B68FB6074
:1030B00002E0FB68013BFB60FB68002BF9D1143791
:1030C000BD465DF8047B704780B500AF4FF00070DF
:1030D000012101F0E3F84FF00070002101F0DEF86B
:1030E00080BD00BF80B483B000AF78607B680122F0
:1030F0001A607B6800225A607B6800229A607B68B5
:103100000022DA607B6800221A617B684FF48042FB
:103110005A617B6800229A617B680022DA617B68D1
:103120004FF400621A627B6800225A627B680022B8
:103130009A627B680022DA627B6800221A637B68ED
:1031400000225A637B6800229A637B680022DA635C
:103150007B6840221A647B6820225A647B680022C4
:103160009A647B680022DA647B6800221A657B68B7
:1031700000225A657B6800229A657B680022DA6526
:103180007B6800221A667B6880225A667B68002270
:103190009A667B680022DA667B6800221A677B6881
:1031A00000225A677B6800229A677B680022DA67F0
:1031B0007B684FF08062C3F880207B684FF000721C
:1031C000C3F884207B680022C3F888207B684FF412
:1031D0000012C3F88C207B680022C3F890207B6823
:1031E0000022C3F894207B680022C3F898207B68F3
:1031F0000022C3F89C207B680022C3F8A0207B68D3
:103200004FF00072C3F8A4207B684FF48032C3F8FB
:10321000A8207B684FF48002C3F8AC207B684FF491
:103220000052C3F8B0207B680022C3F8B4207B684A
:103230000022C3F8B8200C37BD465DF8047B704708
:1032400080B58CB000AF78600B467B800023BB62FA
:103250000023FB6200233B62864B7B620023FB6002
:10326000854B1B69FB62FB6A23F01C03FB6207F1C1
:103270001003184600F02CFF7B697B627B6A7F4A53
:10328000934208D97B6A7E4A934204D8FB6A43F092
:103290000803FB6226E07B6A794A934208D97B6A7D
:1032A000784A934204D8FB6A43F00C03FB6219E0AE
:1032B0007B6A744A934204D97B6A734A934200D86A
:1032C00010E07B6A704A934208D97B6A6F4A934246
:1032D00004D8FB6A43F00403FB6203E0FB6A43F09B
:1032E0001003FB62644AFB6A13617B881846002165
:1032F0004FF4004200F096FD0346002B01D100235D
:10330000AAE16348FFF7CCFE7B681B68002B00F046
:103310009B80FB680133FB607B881846012100F02D
:1033200031FD034603F00403002B03D1FB68594A27
:103330009342EED9FB68584A934201D100238BE1B6
:103340000023FB607B88184600214FF4805200F078
:1033500069FD0346002B01D100237DE1FB680133A9
:10336000FB607B881846012100F00CFD034603F04A
:103370002003002B03D1FB68464A9342EED9FB6839
:10338000454A934201D1002366E10023FB607B881C
:1033900018461F2100F0F6FC0346BB62BB6A03F02F
:1033A0001C03043B142B4DD801A252F823F000BF9C
:1033B0003734000845340008453400084534000817
:1033C0001734000845340008453400084534000827
:1033D00045340008453400084534000845340008E9
:1033E00045340008453400084534000845340008D9
:1033F00027340008453400084534000845340008E7
:10340000053400087B684FF400621A627B684FF451
:1034100080425A6117E07B6800221A627B684FF491
:1034200080425A610FE07B684FF400621A627B6849
:1034300000225A6107E07B6800221A627B68002242
:103440005A6100E000BF2DE07B681B6ADB089AB27E
:103450007B685B695B089BB213439BB27A8810461A
:1034600000211A4600F0DEFC0346002B16D1002393
:10347000F2E000BF0087930300800240FF2C31017F
:10348000BF0E1602FF869303FFE0F5057FD1F0081B
:10349000FFFF0F00FEFF0400FFFF04006FF07F40FE
:1034A000FFF7FEFD6E4B1B68FB62FA6A6D4B134023
:1034B000FB627B685A687B689B681A437B68DB68A1
:1034C0001A437B681B691A437B685B691A437B68F4
:1034D0009B691A437B68DB691A437B681B6A1A4342
:1034E0007B685B6A1A437B689B6A1A437B68DB6A6A
:1034F0001A437B681B6B1A437B685B6B1343FA6A46
:103500001343FB62564AFB6A136055497B689A6B0A
:103510007B68DB6B1A437B681B6C1A437B685B6CB4
:103520001A437B689B6C1A437B68DB6C1A437B688D
:103530001B6D1A437B685B6D13434B60484A7B6885
:103540009B6D9360464A7B68DB6DD360444B9B69FF
:10355000FB62FA6A4FF641731340FB627B681B6E95
:103560001A047B685B6E1A437B689B6E1A437B6808
:10357000DB6E1A437B681B6F1A437B685B6F1343D8
:10358000FA6A1343FB62364AFB6A936134497B68EB
:103590009A6F7B68DB6F1343CB61314B03F580532C
:1035A00018331B68FB62FA6A2F4B1340FB627B687F
:1035B000D3F880207B68D3F884301A437B68D3F833
:1035C00088301A437B68D3F88C301A437B68D3F871
:1035D00090301A437B68D3F894301A437B68D3F851
:1035E00098301A437B68D3F89C301A437B68D3F831
:1035F000A0301343FA6A1343FB62194B03F580535F
:103600001833FA6A1A6016497B68D3F8A4207B68DD
:10361000D3F8A8301A437B68D3F8AC301A437B68E0
:10362000D3F8B0301A437B68D3F8B4309B001A4308
:103630007B68D3F8B830134343F4000201F580539C
:103640001A600749064B03F580531B6843F080025C
:1036500001F580531A60012318463037BD4680BDFE
:10366000008002400F8120FF233FDEF880B500AFCD
:10367000012000F00DF800F021FB012000F024F8FB
:10368000012000F02FFB012000F054FB80BD00BFA3
:1036900080B483B000AF0346FB71FB79002B06D0EA
:1036A000084A084B1B6843F00803136005E0054A0D
:1036B000044B1B6823F0080313600C37BD465DF80C
:1036C000047B70470080024080B483B000AF0346A3
:1036D000FB71FB79002B06D0084A084B1B6843F0AE
:1036E0000403136005E0054A044B1B6823F0040340
:1036F00013600C37BD465DF8047B704700800240C4
:1037000080B485B000AF786039603B6805331B78C2
:103710001B023A68043212781343FB607A68114B3B
:1037200013441A46FB6813603B6803331B781A0680
:103730003B6802331B781B041A433B6801331B7838
:103740001B0213433A6812781343FB607A68064BF6
:1037500013441A46FB6813601437BD465DF8047BBA
:10376000704700BF408002404480024090B486B061
:1037700000AF78600023FB6000233B6100237B6186
:103780000023BB6077E0BB680133BB60454B1B681F
:103790001B6803F40073002B16D0424B1B681B6898
:1037A00003F48073002B0FD13F4B1B683D4A126816
:1037B0001A603D4B1B6801229A603A4B1B68DB681C
:1037C0001A46384B1A6056E0364B1B681B6803F4E8
:1037D0008073002B12D1334B1B681B6803F40073FA
:1037E000002B0BD1304B1B689A6801329A602D4B2D
:1037F0001B68DB681A462B4B1A603CE02A4B1B689F
:10380000284A12685A60284B1B689A6801329A60ED
:10381000254B1B689B68012B04D1234B1B68214A55
:1038200012681A601F4B1B681A68204B13401B0C50
:10383000043BFB601C4B1B689B68012B05D91A4B92
:103840001B681B689B683B6103E0164B1B689B6809
:103850003B61144B1B687B61124B1B68DB681A468B
:10386000104B1A607B681C4607F10C0393E80700B5
:1038700084E8070010E00B4B1B681B68002B03DB80
:10388000BB68042B7FF67FAF7B681C4607F10C03F7
:1038900093E8070084E8070078681837BD4690BCB5
:1038A000704700BFCC8B00203CAA00200000FF3FE7
:1038B00080B487B000AF0346FB8000237B61002308
:1038C000BB6000233B61514B1B681B68002B01DA76
:1038D000002395E04D4B1B68FB60FB8840F2F452DF
:1038E000934217D9FB884A4AA2FB03239B0A9BB247
:1038F0007B61FB88464AA2FB0312920A40F2F45114
:1039000001FB02F29B1A9BB2002B05D07B690133AD
:103910007B6101E001237B617B69012B1CD13B4B67
:103920001B683A4A1268126842F040521A60374BDC
:103930001B68FA88C2F30C025A60344B1B68334A86
:103940001268126842F000421A60304B1B68DB6854
:103950001A462E4B1A603DE000233B6133E03B6981
:10396000002B07D1294B1B68284A1268126842F0C5
:1039700080521A60FB6840F2F4525A607B695A1E0A
:103980003B699A4213D1FB681B6843F00052FB6805
:103990001A60FA887B691F4901FB03F3134403F2A1
:1039A000F453BB60BB68C3F30C02FB685A60FB684E
:1039B0001B6843F00042FB681A60FB68DB68FB6031
:1039C0003B6901333B613A697B699A42C7D30F4A2D
:1039D000FB681360104B03F5805314331B6803F02E
:1039E0000403002B0BD00C4B03F58053143304223B
:1039F0001A60094B03F58053043300221A60012337
:103A000018461C37BD465DF8047B7047D08B0020FC
:103A10000BB002AC0CFAFFFF0080024080B487B00C
:103A200000AFF860B9607A6000237B61214AFB68CF
:103A3000136000237B612AE07B695B01FA68134411
:103A40003B613B694FF000421A603B6944F2F4521B
:103A50005A607B6940F2F45202FB03F3BA681344E4
:103A60001A463B699A607B685A1E7B699A4208D95C
:103A70007B6901335B01FA6813441A463B69DA60DB
:103A800002E0FA683B69DA607B6901337B617A693D
:103A90007B689A42D0D3084BFA6803F580530C3305
:103AA0001A60064B064A1A601C37BD465DF8047B57
:103AB000704700BFCC8B0020008002403CAA002051
:103AC000C08B002080B487B000AFF860B9607A6026
:103AD00000237B611D4AFB68136000237B6126E0A5
:103AE0007B695B01FA6813443B613B694FF48012C8
:103AF0001A607B6940F2F45202FB03F3BA68134484
:103B00001A463B699A607B685A1E7B699A4208D9BB
:103B10007B6901335B01FA6813441A463B69DA603A
:103B200002E0FA683B69DA607B6901337B617A699C
:103B30007B689A42D4D3064BFA6803F5805310335E
:103B40001A601C37BD465DF8047B7047D08B00209F
:103B50000080024080B483B000AF786039607B6839
:103B60001A683B681A437B681A600C37BD465DF8DB
:103B7000047B704780B483B000AF78600B46FB7065
:103B8000FB78002B06D07B685B6823F000427B68E3
:103B90005A6005E07B685B6843F000427B685A60CE
:103BA0000C37BD465DF8047B704700BF80B400AFA2
:103BB0000649064B03F580531B6843F0010201F5EB
:103BC00080531A60BD465DF8047B70470080024058
:103BD00080B483B000AF0023FB710A4B03F5805320
:103BE0001B6803F00103002B02D00123FB7101E0ED
:103BF0000023FB71FB7918460C37BD465DF8047B4A
:103C0000704700BF0080024080B485B000AF78608C
:103C10000023FB730A4B03F5805314331A687B6847
:103C20001340002B02D00123FB7301E00023FB7340
:103C3000FB7B18461437BD465DF8047B704700BF18
:103C40000080024080B483B000AF78600B46FB7008
:103C5000FB78002B0CD00F490E4B03F580531C331F
:103C60001A687B681A4301F580531C331A600CE014
:103C70000849084B03F580531C331A687B68DB4303
:103C80001A4001F580531C331A600C37BD465DF8AD
:103C9000047B70470080024080B483B000AF78603E
:103CA000054B03F5805314337A681A600C37BD4610
:103CB0005DF8047B704700BF0080024080B400AF15
:103CC0000749074B03F5805318331B6843F48012F0
:103CD00001F5805318331A60BD465DF8047B7047C8
:103CE0000080024080B483B000AF0346FB71FB79D3
:103CF000002B0CD00E490E4B03F5805318331B6874
:103D000043F4005201F5805318331A600BE0084960
:103D1000074B03F5805318331B6823F4005201F559
:103D2000805318331A600C37BD465DF8047B70472A
:103D30000080024080B483B000AF0346FB71FB7982
:103D4000002B0CD00E490E4B03F5805318331B6823
:103D500043F0020201F5805318331A600BE0084962
:103D6000074B03F5805318331B6823F0020201F55B
:103D7000805318331A600C37BD465DF8047B7047DA
:103D80000080024080B485B000AF03460A46FB8045
:103D90001346BB800023FB600023BB601E4B1B69E6
:103DA000FB60FB6803F01C03FB60FB88DB029BB23B
:103DB000FA681343FB60BB889B0103F4F863FA685D
:103DC0001343FB60FB6823F00203FB60FB6843F0D6
:103DD0000103FB60104AFB681361BB680133BB60E1
:103DE0000D4B1B69FB60FB6803F00103002B03D044
:103DF000BB680A4A9342F0D9BB68094A934201D191
:103E0000002302E0044B5B699BB218461437BD46A1
:103E10005DF8047B704700BF00800240FEFF040095
:103E2000FFFF040080B485B000AF0346FB800B4663
:103E3000BB8013467B800023FB600023BB601F4BCD
:103E40001B69FB60FB6803F01C03FB60FB88DB0263
:103E50009BB2FA681343FB60BB889B0103F4F863D1
:103E6000FA681343FB60FB6843F00203FB60FB68E6
:103E700043F00103FB60114A7B8853610F4AFB68E2
:103E80001361BB680133BB600C4B1B69FB60FB68B3
:103E900003F00103002B03D0BB68094A9342F0D919
:103EA000BB68084A934201D1002300E00123184671
:103EB0001437BD465DF8047B704700BF00800240A8
:103EC000FEFF0400FFFF040080B485B000AF7860FF
:103ED00039607B68FB607B68B3F1FF3F02D07B6891
:103EE000002B01D1012325E03B6893F8293003F032
:103EF0000203002B01D100231CE03B685A687B6859
:103F00009A4201D1002315E0FA683B685B685A4089
:103F10003B689B681340002B0BD13B689B68DA43DE
:103F20007B681A403B689B68DB439A4201D10123BE
:103F300000E0002318461437BD465DF8047B704747
:103F400080B489B000AF786039607B68FB61002382
:103F5000FB8100237B61FB6903F001033B613B694B
:103F6000002B0DD03B68002B0ADD07F10E03013357
:103F7000FA69511CF96112781A703B68013B3B6089
:103F8000FB69BB610AE0BB699A1CBA611B881A46CF
:103F90007B6913447B613B68023B3B603B68012BC0
:103FA000F1DC3B68002B04DD07F10E03BA691278DF
:103FB0001A70FB891A467B6913447B617B691A0C72
:103FC0007B699BB213447B617B691A0C7B699BB252
:103FD00013447B613B69002B08D07B691B029AB2BA
:103FE0007B6903F47F431B0A13437B617B699BB2AC
:103FF00018462437BD465DF8047B704780B582B013
:1040000000AF78600B467B807B8878681946FFF7A5
:1040100097FF0346DB439BB218460837BD4680BD79
:1040200080B586B000AF786000237B610023FB730E
:104030007B683B6129E03B695A683B695B891046B4
:104040001946FFF77DFF03461A467B6913447B61DF
:104050007B691A0C7B699BB213447B613B695B896A
:1040600003F001039BB2002B0CD0FB7BC3F10103D7
:10407000FB737B691B029AB27B6903F47F431B0AC3
:1040800013437B613B691B683B613B69002BD2D1C9
:10409000FB7B002B08D07B691B029AB27B6903F47F
:1040A0007F431B0A13437B617B699BB2DB439BB25B
:1040B00018461837BD4680BD80B500AF03F0B0FA92
:1040C00000F000FB00F008F901F068FDFEE700BF1A
:1040D00080B489B000AF78600023BB6100237B61AE
:1040E0000023FB6102233B610023FB600223BB60D2
:1040F000484B9B6803F00C03BB61BB69042B07D0E2
:10410000082B09D0002B3FD17B68434A1A603FE05F
:104110007B68424A1A603BE03E4B5B6803F48003D5
:104120009B0DFB603B4B5B6803F03F03BB60FB6890
:10413000002B0DD0394ABB68B2FBF3F2354B5968FE
:1041400047F6C0730B409B0903FB02F3FB610CE0D5
:10415000314ABB68B2FBF3F22E4B596847F6C07385
:104160000B409B0903FB02F3FB612A4B5B6803F4E2
:1041700040331B0C01335B003B61FA693B69B2FBC6
:10418000F3F27B681A6003E07B68234A1A6000BF81
:10419000204B9B6803F0F003BB61BB691B09BB614B
:1041A0001F4ABB6913441B78DBB27B617B681A68CA
:1041B0007B69DA407B685A60164B9B6803F4E053D6
:1041C000BB61BB699B0ABB61154ABB6913441B7881
:1041D000DBB27B617B685A687B69DA407B689A60F6
:1041E0000C4B9B6803F46043BB61BB695B0BBB6119
:1041F0000B4ABB6913441B78DBB27B617B685A684E
:104200007B69DA407B68DA602437BD465DF8047B61
:10421000704700BF003802400024F40000127A000A
:104220000800002080B483B000AF78600B46FB70BC
:10423000FB78002B06D00949084B1A6B7B681343A7
:104240000B6306E00549054B1A6B7B68DB431340A3
:104250000B630C37BD465DF8047B704700380240A5
:1042600080B483B000AF78600B46FB70FB78002B06
:1042700006D00949084B5A6C7B6813434B6406E02F
:104280000549054B5A6C7B68DB4313404B640C3784
:10429000BD465DF8047B70470038024080B483B0AF
:1042A00000AF78600B46FB70FB78002B06D0094905
:1042B000084B1A697B6813430B6106E00549054BFF
:1042C0001A697B68DB4313400B610C37BD465DF810
:1042D000047B70470038024090B589B004AF0020DD
:1042E0000021FEF77BFE0F4BFB606FF07F43BB604E
:1042F0000D4B7B6007F10C0107F108023C1D002308
:1043000000930A4B01930A4B02930A48234602F09A
:1043100051FD084802F026FE064802F031FE14372F
:10432000BD4690BDC0A86DC8C0A86D8CCD4C00081E
:10433000792F0008A4C8002080B400AFBD465DF806
:10434000047B704780B400AFFEE700BF80B400AFCD
:10435000FEE700BF80B400AFFEE700BF80B400AF4F
:10436000FEE700BF80B400AFBD465DF8047B704738
:1043700080B582B000AF00237B604020FFF744FC93
:104380000346012B06D10F4B1A683B1D10461946F8
:1043900003F038FD4020FFF77FFC4FF48030FFF73B
:1043A0007BFC7B68002B0AD07B68002B07D0064B78
:1043B0004FF080521A60BFF34F8FBFF36F8F0837F3
:1043C000BD4680BD8C25002004ED00E080B582B0A4
:1043D00000AF7860FCF73AF9094B1B68002B03D15A
:1043E000084B1B68002B05D0FA200749002200F07B
:1043F0004DF802E0054B00221A600837BD4680BD2B
:10440000A48B0020B88B0020CD430008802500201D
:1044100080B500AF0A4B1B68002B0FD1094B1B68FE
:10442000002B03D1084B1B68002B07D0044B012243
:104430001A60FA200549002200F028F880BD00BF6C
:1044400080250020A48B0020B88B0020CD430008DD
:1044500080B582B000AF786000F0A4FC41F28830F3
:104460000349002200F012F80837BD4680BD00BFA6
:104470005144000880B500AF41F288300249002263
:1044800000F004F880BD00BF5144000880B586B03C
:1044900000AFF860B9607A600920FEF7A3FC3861CC
:1044A0003B69002B00D15AE03B6900221A603B694E
:1044B000BA689A603B697A68DA603B69FA685A6060
:1044C000284B1B68002B03D1264A3B69136046E04A
:1044D000244B1B685A68FB689A420FD9214B1B6812
:1044E000204A12685168FA688A1A5A601D4B1A6885
:1044F0003B691A601B4A3B69136030E0194B1B682B
:104500007B6129E03B695A687B695B68D21A3B6929
:104510005A607B691B68002B06D07B691B685A6850
:104520003B695B689A4214D97B691B68002B08D0F1
:104530007B691B687A69126851683A6952688A1AFD
:104540005A607B691A683B691A607B693A691A602C
:1045500005E07B691B687B617B69002BD2D1183732
:10456000BD4680BD7C25002080B584B000AF78605A
:1045700039601F4B1B68002B00D136E01C4B1B68B9
:10458000BB600023FB602CE0BB689A687B689A42A2
:1045900022D1BB68DA683B689A421DD1FB68002BC8
:1045A00004D1BB681B68124A136003E0BB681A6839
:1045B000FB681A60BB681B68002B08D0BB681B68CF
:1045C000BA6812685168BA6852680A445A60092089
:1045D000B968FEF729FC08E0BB68FB60BB681B6894
:1045E000BB60BB68002BCFD100BF1037BD4680BD7C
:1045F0007C25002080B586B000AF78603960274BFD
:104600001B68002B06D178683968002202F028FE6A
:10461000786140E0214B1B685B68002B09D01F4B81
:104620001B685B68786839681A4602F019FE786181
:1046300002E04FF0FF337B617B69B3F1FF3F17D19D
:10464000164B1B683B613B691B68144A13603B694E
:104650009B68FB603B69DB68BB6009203969FEF73A
:10466000E3FBFB68002B02D0FB68B8689847C6E7FD
:104670000A4B1B685A687B699A4208D9074B1B682A
:10468000064A126851687A698A1A5A6003E0034B35
:104690001B6800225A601837BD4680BD7C2500206B
:1046A00080B500AF02F076FEFBF7DAFDFEF74EFBB9
:1046B00002F07AFB04F010F8FBF7C2FFFFF7DAFE16
:1046C00080BD00BF80B500AF00F070F800F006F9C3
:1046D00000F008F8024B1B68002B00D1FEE780BDFC
:1046E0008425002080B5B0B000AF4FF0606001219C
:1046F000FFF798FDFEF7E8FCFFF758FA00BFFFF759
:1047000067FA0346012BFAD03B1D1846FEF7EAFC78
:1047100001237B6000233B624FF40073FB620023A4
:104720003B630023FB630023BB6400233B65002342
:104730007B650023BB650023C7F884304FF000730E
:10474000C7F888304FF40013C7F890300023C7F83B
:1047500098300023C7F89C300423C7F8A4304FF0EA
:104760000073C7F8A8304FF48033C7F8AC304FF46B
:104770008003C7F8B0304FF40053C7F8B4304FF49B
:104780008043C7F8BC303B1D18460121FEF758FD99
:104790000246044B1A6004480121FFF753FAC03760
:1047A000BD4680BD842500204000010080B584B056
:1047B00000AF07200121FFF735FD4FF480400121B4
:1047C000FFF74EFD0120FBF7DFFC86237B60032310
:1047D0007B7202233B720023BB720023FB723B1DE2
:1047E0003A48194602F0F8FB384801210B2202F042
:1047F0009DFC364802210B2202F098FC3348072129
:104800000B2202F093FC4FF470537B603B1D304849
:10481000194602F0E1FB2E480A210B2202F086FC29
:104820002B480B210B2202F081FC29480C210B2282
:1048300002F07CFC26480D210B2202F077FC32238B
:104840007B603B1D2348194602F0C6FB214801212D
:104850000B2202F06BFC1F4804210B2202F066FCC5
:104860001C4805210B2202F061FC04237B6001231C
:104870003B720023BB720123FB7202237B723B1D40
:104880001548194602F0A8FB1348042102F040FC29
:104890000023FB6002E0FB680133FB60FB6844F629
:1048A0001F629342F7D90C48042102F023FC002335
:1048B000FB6002E0FB680133FB60FB6844F61F62AB
:1048C0009342F7D91037BD4680BD00BF00000240BB
:1048D00000040240000802400010024080B582B08F
:1048E00000AF4FF4407004F041FB3D233B710523C2
:1048F0007B710023BB710123FB713B1D184604F043
:1049000047FB0837BD4680BD80B483B000AF034687
:10491000FB80FB881B029AB2FB881B0A9BB29BB2EE
:1049200013439BB29BB218460C37BD465DF8047B1F
:10493000704700BF80B582B000AF0346FB80FB88A4
:104940001846FFF7E1FF034618460837BD4680BD0D
:1049500080B483B000AF78607B681A067B6803F48C
:104960007F431B021A437B6803F47F031B0A1A432D
:104970007B681B0E134318460C37BD465DF8047B5D
:10498000704700BF80B582B000AF78607868FFF7ED
:10499000DFFF034618460837BD4680BD80B588B0A6
:1049A00004AF78607B68062283F822207B680022AF
:1049B00083F823207B68122283F824207B6813224B
:1049C00083F825207B68102283F826207B68152237
:1049D00083F827207B68112283F828207B6840F227
:1049E000DC521A847B68222283F829202A4A7B68B9
:1049F00013602A4B1B68002B06D11420002103F002
:104A000057F80246254B1A607B682333002019466D
:104A1000FEF776FE224823490522FFF753F8224885
:104A200022490522FEF7FAFF0023FB600AE0FB683B
:104A30005B011D4A134418460121FFF79BF8FB68F0
:104A40000133FB60FB68042BF1D90023FB600BE012
:104A5000FB685B01124A134418464FF44001FFF70C
:104A600079F8FB680133FB60FB68042BF0D9042361
:104A700000930023019300230293002303930C4827
:104A80000C494FF4AF72002300F0B6FFFEF7EEFDC5
:104A90001037BD4680BD00BF882500208C25002032
:104AA000D48B0020E0AA002040AA0020748C0020B3
:104AB000794C00080CA2000880B586B000AF786081
:104AC000396000233B612A4B1B68002B13D1012066
:104AD0000021032202F040FF0246254B1A60244BBE
:104AE0001B68002B07D0224B1B68184600210022B0
:104AF000002303F01BF81E4B1B6818460021FA2206
:104B0000002303F0E9F90346002B2BD0194B1B6857
:104B10009B68FB603B687B6114E0FA683B69D118D5
:104B20007B695A687B695B89084611461A4605F01D
:104B3000FFF97B695B891A463B6913443B617B69DA
:104B40001B687B617B69002BE7D13B699BB21846F0
:104B5000FEF7AEFE064B1B6818460021002200231C
:104B600002F0E4FF00235BB218461837BD4680BD53
:104B700090250020D08B002080B58CB000AF7860ED
:104B800000237B6200233B620023FB6207F10803E2
:104B90001846FEF7EBFD3B691B6803F40043002B4E
:104BA00028D1BB687B83FB687B617B8B0320194624
:104BB000032201F0C3FDF862FB6A002B1AD0FB6AE6
:104BC000BB6214E0BB6A59687A697B6A1A44BB6AA3
:104BD0005B89084611461A4605F0AAF9BB6A5B894B
:104BE0001A467B6A13447B62BB6A1B68BB62BB6A62
:104BF000002BE7D11E4B1B689B68012B04D91C4B73
:104C00001B681B68FB6101E03B69FB6100233B62A1
:104C100009E0FB694FF000421A60FB69DB68FB6149
:104C20003B6A01333B62124B1B689A683B6A9A42AB
:104C3000EFD80F4B1B6800229A600E4B03F5805390
:104C400014331B6803F08003002B0BD0094B03F5D2
:104C50008053143380221A60064B03F580530833C7
:104C600000221A60FB6A18463037BD4680BD00BF7F
:104C70003CAA00200080024080B584B000AF78607C
:104C8000104B1B68184600216422002303F024F90E
:104C90000346012B15D10C4B1B681846FFF76CFF20
:104CA000F860094B1B681B69074A1268F8681146CF
:104CB00098470346002B04D0F86801F00DFF00234D
:104CC000FB60DDE78C2500208825002080B582B0C0
:104CD00000AF78607B68732283F82A207B68742297
:104CE00083F82B207B680A4A5A617B68094A9A61DB
:104CF0007868FFF753FE41F2883007490022FFF73A
:104D0000C5FB00235BB218460837BD4680BD00BF17
:104D100011540008B94A00081D4D000880B582B042
:104D200000AF786000F03EF841F28830034900227D
:104D3000FFF7ACFB0837BD4680BD00BF1D4D000826
:104D400080B582B000AF786015497A6813469B0041
:104D500013449B000B441B68002B13D010497A6846
:104D600013469B0013449B000B441B68184601F03C
:104D7000B3FE0B497A6813469B0013449B000B4417
:104D800000221A6006497A6813469B0013449B0070
:104D90000B44103300229A700837BD4680BD00BF17
:104DA0009425002080B582B000AF0023FB715EE047
:104DB000FA79324913469B0013449B000B4410338D
:104DC0009B78BB71BB79002B4ED0FA792B491346E7
:104DD0009B0013449B000B441033DB780133D8B2A3
:104DE000264913469B0013449B000B441033024694
:104DF000DA70FA79214913469B0013449B000B4457
:104E00001033DB78EF2B15D8FA791C4913469B0039
:104E100013449B000B4410339B78012B0FD1FA797C
:104E2000164913469B0013449B000B441033DB7858
:104E3000012B04D9FB791846FFF782FF14E0FA79B9
:104E40000E4913469B0013449B000B4410339B7880
:104E5000032B09D1FA79094913469B0013449B009F
:104E60000B44103302229A70FB790133FB71FB79FA
:104E7000092B9DD90837BD4680BD00BF9425002071
:104E800080B586B000AF78600B46FB700A23FB75D7
:104E90000A23BB750A237B7500233B750023FB7433
:104EA0000023BB740A237B7400233B7400233B75EF
:104EB00084E03A7D704913469B0013449B000B44E9
:104EC00010339B78FB7397F915300A2B05D1FB7BC8
:104ED000002B02D13B7D7B756DE0FB7B002B6AD004
:104EE0007B68002B0DD07B6819683A7D62481346B9
:104EF0009B0013449B0003445B68994201D13B7DB6
:104F0000B4E0FB7B012B3BD13A7D5B4913469B0010
:104F100013449B000B441B68002B18D03A7D564964
:104F200013469B0013449B000B441033DB783A7C00
:104F30009A4240D83B7D7B743A7D4F4913469B0093
:104F400013449B000B441033DB783B7433E03A7D11
:104F5000494913469B0013449B000B441033DB78F4
:104F6000FA7C9A4227D83B7DFB753A7D424913462D
:104F70009B0013449B000B441033DB78FB741AE056
:104F8000FB7B012B17D93A7D3B4913469B00134409
:104F90009B000B441033DB78BA7C9A420BD83B7DE4
:104FA000BB753A7D344913469B0013449B000B4468
:104FB0001033DB78BB743B7D01333B753B7D092BA4
:104FC0007FF677AFFB7803F00203002B08D197F947
:104FD00015300A2B06D1FB7803F00103002B01D119
:104FE000FF2343E097F91530092B02DC7B7D3B75ED
:104FF0001FE097F91630092B07DCBB7D3B753A7D26
:1050000013469B0013449B000FE097F91730092BC0
:1050100002DCFB7D3B7508E097F91130092B02DCBF
:105020007B7C3B7501E0FF2320E03B7D1846FFF7CA
:1050300087FE3A7D13469B0013449B007B68002B40
:1050400009D03A7D7B6819680B4813469B001344CE
:105050009B00034459603A7D074913469B00134463
:105060009B000B4410330022DA703B7D5BB2184684
:105070001837BD4680BD00BF9425002080B586B09E
:1050800000AFF860B9607A603B60BB685B687B61C9
:105090007B6918463968062204F04AFF7B690633AB
:1050A00018467968062204F043FF7B69002242F02B
:1050B00008021A7300225A73FB689B69F868B96882
:1050C0009847034618461837BD4680BD80B586B060
:1050D00000AFF860B9607A60FB70BB68002B12D03B
:1050E000BB681B68002B0ED0BB681B681846F968AC
:1050F000FEF7EAFE0346002B05D1BB681B6803F0F0
:10510000F003E02B01D1F22367E0FB78B868194681
:10511000FFF7B6FE0346FB7597F91730002B01DA4F
:10512000FB7D5AE097F917202E4913469B00134444
:105130009B000B44103302229A7097F917202949DB
:1051400013469B0013449B000B440833FA681A6013
:1051500097F9172013469B0013449B000833214AFC
:10516000134404337A681168196092889A8097F919
:1051700017201C4913469B0013449B000B4410331B
:105180000022DA7097F91720164913469B00134442
:105190009B000B441B68002B1ED097F91720114968
:1051A00013469B0013449B000B441B683B6197F91B
:1051B00017200C4913469B0013449B000B4400220C
:1051C0001A60FB682333F86839691A467B68FFF771
:1051D00055FF386901F080FC00235BB21846183790
:1051E000BD4680BD9425002080B58AB000AFF86030
:1051F000B9607A60FB68002B00D1B2E07B685B8904
:10520000292B03D8786801F067FCAAE07B685B680B
:105210003B623B6A0E33FB61FB691B889BB2B3F5B3
:10522000807F0CD1FB691B79062B08D1FB695B7968
:10523000042B04D1FB695B889BB2082B03D07868F0
:1052400001F04AFC8DE0FB690E3307F118021046AD
:105250001946042204F06CFEFB69183307F11402AE
:1052600010461946042204F063FEFB680433002B49
:1052700003D0FB685B68002B03D1002387F827303D
:1052800009E07A69FB685B689A420CBF012300233E
:10529000DBB287F82730FB6903F1080297F8273063
:1052A000002B01D0012300E0022307F11801F86868
:1052B000FFF70CFFFB69DB889BB2B3F5807F03D05F
:1052C000B3F5007F49D049E097F82730002B40D054
:1052D0000220FFF719FB03461A46FB69DA80FB69D7
:1052E00003F11802FB690E3310461946042204F03C
:1052F0001FFEFB6903F10E02FB68043310461946DA
:10530000042204F015FEFB6903F11202FB69083365
:1053100010461946062204F00BFE3A6AFB69083370
:1053200010461946062204F003FEFB6908331846AE
:10533000B968062204F0FCFD3B6A06331846B968DA
:10534000062204F0F5FDFB689B69F86879689847C8
:1053500002E0FB680433002B00E000BF786801F036
:10536000BBFB2837BD4680BD90B585B000AFF86067
:10537000B9601346FB71FA7913469B0013449B00F6
:10538000FA79224913469B0013449B000B441033C7
:105390009B78022B23D1FA791C4913469B001344B6
:1053A0009B000B441033DB78E32B18D9FA791346B2
:1053B0009B0013449B00154A13440433F8681946B4
:1053C00000F078FA0346002B09D1FA790F49134609
:1053D0009B0013449B000B44103303229A70FB681C
:1053E00003F12304FA7913469B0013449B0008330E
:1053F000064A13440433F868B9682246FFF73EFEB4
:10540000034618461437BD4690BD00BF94250020C2
:1054100080B588B000AFF860B9607A607B68BB6126
:10542000B8680E2101F0E8FA0346002B01D0FE23F4
:10543000ABE07B681B681846F968FEF745FD03463C
:10544000002B02D0534BFB6196E07B681B6803F096
:10545000F003E02B16D101233B7400237B745E2301
:10546000BB747B6801331B7803F07F03DBB2FB74F2
:105470007B689B783B757B68DB787B7507F1100355
:10548000FB6179E07B681A68FB685B685A40FB68DF
:105490009B681340002B14D07B681B689BB24FF6AF
:1054A000A96293420DD0FB680C33002B07D0FB6838
:1054B000DB68002B03D0FB680C33BB6101E0FC23ED
:1054C00063E0354B1B781946344A0B469B000B446E
:1054D0009B00134410339B78012B16D9BB691A68C3
:1054E0002D4B1B7818462D4903469B0003449B0017
:1054F0000B445B689A4208D1274B1B78F868B9685F
:105500001A46FFF731FF03463FE00023FB7528E012
:1055100097F91720214913469B0013449B000B4425
:1055200010339B78012B17D9BB69196897F917209D
:105530001A4813469B0013449B0003445B6899423E
:105540000AD1FA7D144B1A70FB7DF868B9681A46C7
:10555000FFF70AFF034618E0FB7DDBB20133DBB245
:10556000FB7597F91730092BD2DDF868B969BA686D
:1055700000F016F8034608E0FB682333F868B968C2
:105580001A46FB69FFF77AFD03465BB218462037DF
:10559000BD4680BD14A200085C2600209425002092
:1055A00080B58AB000AFF860B9607A60FB682333D9
:1055B000BB61FF2387F82730BB681B681846F96872
:1055C000FEF782FC0346002B0CD1BB681B6803F07E
:1055D000F003E02B06D0BB68002B03D0BB681B6830
:1055E000002B01D1F223E2E0B8680121FFF748FC6B
:1055F0000346FB7597F91730002B01DAFB7DD6E0E7
:1056000097F917206C4913469B0013449B000B44E9
:1056100010339B78002B0AD197F91720664913465F
:105620009B0013449B000B44103301229A7097F99E
:105630001720614913469B0013449B000B44103311
:105640009B78012B05D097F9172013469B00134434
:105650009B0097F91720584913469B0013449B0061
:105660000B4410339B78012B02D07B68002B0CD1AC
:10567000F868B96800F01EF9034687F827307B68A0
:10568000002B02D197F8273091E097F917204A496B
:1056900013469B0013449B000B4410339B78012B53
:1056A00015D9FA7D454B1A7097F9172013469B00C0
:1056B00013449B000833404A13440433F868796864
:1056C000BA69FFF7DBFC034687F827306DE097F9EE
:1056D0001720394913469B0013449B000B44103399
:1056E0009B78012B61D10023FB617B683B620EE05C
:1056F0003B6A5A893B6A1B899A423B6A1B7B012B96
:1057000002D00123FB6105E03B6A1B683B623B6AF8
:10571000002BEDD1FB69002B17D03B6A1B890320BE
:105720001946002201F00AF838623B6A002B11D0BA
:10573000386A796801F04AFA0346002B0AD0386AC1
:1057400001F0CAF900233B6204E07B683B62386ADF
:1057500001F02AFA3B6A002B24D097F9172016494A
:1057600013469B0013449B000B441B68002B0BD07B
:1057700097F91720104913469B0013449B000B44D4
:105780001B68184601F0A8F997F917200A49134633
:105790009B0013449B000B443A6A1A60002387F86D
:1057A000273002E0FF2387F8273097F827305BB2D5
:1057B00018462837BD4680BD942500205C26002071
:1057C00080B588B000AFF860B9607A603B600023B4
:1057D000FB7703202A21002200F0B0FFB861BB69EB
:1057E000002B01D1FF2360E0BB695B687B617B69B3
:1057F0000E333B61BB8E1846FFF786F803461A4608
:105800003B69DA803B69083318463968062204F0A0
:105810008FFB3B6912331846F96A062204F088FBB5
:105820007B6918467968062204F082FB7B6906339F
:105830001846B968062204F07BFB3B690E33184614
:10584000B96A042204F074FB3B6918331846396BBB
:10585000042204F06DFB3B6900221A70002242F022
:1058600001025A703B69002242F008029A7000223D
:10587000DA703B6906221A713B6904225A717B690E
:10588000002242F008021A73002242F006025A7304
:10589000FB689B69F868B96998470346FB77B86964
:1058A00001F01AF90023BB61FB7F5BB21846203779
:1058B000BD4680BD90B587B004AF786039607B6825
:1058C00003F123027B6803F123047B680433009314
:1058D000084B01933B6802930123039378681146B8
:1058E000054A2346FFF76CFF034618460C37BD46B2
:1058F00090BD00BF1CA2000814A2000880B586B0AD
:1059000000AF786039600E23FB827B685B890E2BC9
:1059100000D865E07B685B683B613B691A7B5B7B19
:105920001B021343FB813B691B7803F00103002B2F
:1059300023D03B691B78012B0FD13B695B78002B8F
:105940001BD13B699B785E2B17D17B685B7B43F057
:105950001003DAB27B685A730FE03B691846254999
:10596000062204F0B3FA0346002B06D17B685B7B6A
:1059700043F00803DAB27B685A73FB89082B03D023
:10598000B3F5C16F1AD02BE03B6893F8293003F0D0
:105990002003002B00D123E0FB8A5B429BB29BB229
:1059A0001BB27868194601F027F80346002B00D097
:1059B00016E07868396802F0E1FF0FE03B6893F881
:1059C000293003F02003002B00D109E03B6823338A
:1059D000386819467A68FFF707FC00BF002303E028
:1059E000786801F079F800235BB218461837BD4695
:1059F00080BD00BF14A2000880B58CB002AFF86073
:105A0000B9603B601346FB80FB68002B09D14FF067
:105A1000500383F31188BFF36F8FBFF34F8FBB61C8
:105A2000FEE73B6B042B09D94FF0500383F3118839
:105A3000BFF36F8FBFF34F8F7B61FEE7FB88184684
:105A4000B96B00F00FFD38623B6A002B7AD03B6ADD
:105A50001A6BFB8803F18043013B9B001344FB61FD
:105A6000FB6923F00703FB61FB6903F00703002BCD
:105A700009D04FF0500383F31188BFF36F8FBFF34A
:105A80004F8F3B61FEE7FB880093386AB9683A6B39
:105A9000FB6B00F0E7FBF869F9683A6802F01AFC62
:105AA00002463B6A1A607B6B002B02D07B6B3A6A22
:105AB0001A6002F00BFD324B1B680133304A136051
:105AC000304B1B68002B09D12E4A3B6A13602C4BCC
:105AD0001B68012B0FD100F017FC0CE02A4B1B6850
